:100000000214DD02000A53EFFE323202001A53EFEF
:10001000FD323202001253EFFB323202002253EF64
:10002000FE323202173390029EE0FCA3E0FDED1D8C
:1000300070011C14AA044C70F5EF1F70011E144EC1
:1000400070E42202199053EFFD32C2AF22D2AF22E8
:03005300020006A2
:03005B0002000E92
:1000630002001E4102A20044029A00000000420264
:0D0073009E00004202A0000041025F00005C
:0300830002001662
:03008B000219B2A5
:030093000219D47B
:03009B000200461A
:1000A30002185E020478E86480F8E933E8336011EB
:1000B3000460F0ED33EC337009E8FCE9FDEAFEEB94
:1000C300FF220460DED3EB9FEA9EE99DE8C2E78C42
:1000D300F0C2F795F0400CE8CCF8E9CDF9EACEFA96
:1000E300EBCFFB12044385D0F05804700320D5B343
:1000F300E80470075002B2D502048292D5EC046082
:10010300F7E4CCC0E0C398F8603B94186008400D56
:10011300D0E0FB02045AE4FBFAC9FC8028E830E48F
:1001230006E4C9FBE4CAFCE830E305E4C9CACBFC36
:10013300E854076010F8C3E913F9EA13FAEB13FB69
:10014300EC13FCD8F130F52FC3E49CFCEF9BFFEEDE
:100153009AFEED99FDD0E0FBEF4E4D4C701222DB81
:100163000302047FEC2CFCEF33FFEE33FEED33FD93
:10017300ED30E7EB02045AEF2BFFEE3AFEED39FDCB
:10018300D0E0FB50130BBB0003020482ED13FDEE22
:1001930013FEEF13FFEC13FC02045AEC4D6011E85D
:1001A300497017ED33EC3304600DE4FCFFFEFD22D0
:1001B300E933E8330470F802047812044358046006
:1001C30009E4CC2481500628500902048228400304
:1001D30002047FC0E0EB4A7044B98006D0E0FB0222
:1001E300046EEF4E701CBD8008EBFFEAFEE9FD8054
:1001F300EBE98DF0A4FEE5F0020287E9CDF9EAFE12
:10020300EBFFEF89F0A4FCE5F0CE89F0A42EFFE428
:1002130035F0CD89F0A42DFEE435F08067EF4E7004
:1002230005BD80D780C3EF8BF0A4ACF0EE8BF0A4B8
:100233002CFCE435F0F8EF8AF0A42CE5F038FCE46C
:1002430033CB8DF0A42CFCE5F03BF8EE8AF0A42C24
:10025300FCE5F038F8E433CF89F0A42CFCE5F03862
:10026300CF3400CE89F0A42FFFE5F03EFEE433C97E
:100273008DF0A42EFEE5F039CD8AF0A42FFFE5F032
:100283003EFEE43DFD33D0E0FB50070BBB000F0205
:100293000482EC2CFCEF33FFEE33FEED33FD02045E
:1002A3005A020482EC5D046005E8590470030204F9
:1002B30078120443580460F6EC4860F2EC7004FDD5
:1002C300FEFF22C860DB2481C85009C39860025036
:1002D3000602047F9850CAF582E9294B4A7005ABA0
:1002E3008202046E75F0007C1A7880C3EF9BEE9A4D
:1002F300ED99400DC3EF9BFFEE9AFEED99FDE842A9
:10030300F0DC23ACF0D0E0FFD0E0FED0E0FDAB8228
:1003130020E7101BEB60BAEC2CFCEF33FFEE33FE4F
:10032300ED33FD02045AE803F830E705C0F075F039
:1003330000EF2FFFEE33FEED33FD40B830E7C28010
:10034300AA74F8CC6480CCC86480C8F58204604F7A
:10035300C3EB9FF5F0EA9E42F0E99D42F0E89C452D
:10036300F0603C501DE5825FFFE582D313CB5BCB8E
:10037300F42B5582FB50280ABA002409B90020083F
:10038300801DE5825BFBE582D313CF5FCFF4C313FC
:100393002F5582FF50090EBE00050DBD00010CC391
:1003A300EB9FF5F0EA9E42F0E99D42F0E89C45F0B0
:1003B3006007CC4820E701B3EC22ED33EC33600A4D
:1003C300047003BD8004ECB2E7FC2275F020800EBC
:1003D30075F010800575F0087D007E007F00339274
:1003E300D530D5031209EFEC334010EF33FFEE3372
:1003F300FEED33FDEC33FCD5F0ED22E5F0247EA2D7
:10040300D513CC92E7CDCEFF22EDD2E7CD33EC333B
:1004130092D524814006E4FFFEFDFC22FCE4CFCE0E
:10042300CDCC24E0501174FF80EDC3CC13CCCD139D
:10043300CDCE13CECF13CF0470F030D5DE0209EF4B
:10044300E9D2E7C933E833F892D5EDD2E7CD33ECFF
:1004530033FC5002B2D522EC30E7100FBF000C0E74
:10046300BE00080DBD00040BEB6014A2D5EB13FC1A
:10047300ED92E7FD2274FFFCFDFEFF22E480F8A26B
:10048300D574FF13FC7D80E480EFF920E73624F96F
:1004930050037907E4F42402FBE582158270021508
:1004A30083DBF6E024FB501BE96014E4F0E58215DE
:1004B3008270021583E004F0B40A08E4F0D9EE7404
:1004C30001F00A22C2D522ED33EC3392D5FA602A29
:1004D300B4FF33EDC2E77BFF60067A0479EFE422D1
:1004E3007A0479F820D5047A0479F3224E614E0018
:1004F3002B494E46002D494E4600E47A08F0A3DA14
:10050300FC7B00740722C083C082ECC0E0EDC0E036
:10051300EEC0E0EFC0E0EA75F010A4CAABF075F0EE
:100523004DA42BFBE435F0FCEA2410FAEB34C5FBB5
:10053300EC34D9FCEDC2E7FF75F056A4F42411C5E1
:10054300F0F434C58FF0A42AE5F03BE43CF020E757
:10055300141205FFD0E0FFD0E0FED0E0FDD0E0FCB8
:100563001202A78014F4041205FFD0E0FFD0E0FECE
:10057300D0E0FDD0E0FC12019ED082D083E0FAED02
:10058300D2E7CD33EC332482FBE4C3CF33CFCE3376
:10059300CECD33CD33DBF37B0775F00A846004F0F3
:1005A300A31B0AE5F0F0A38FF0740AA4FFACF08E4E
:1005B300F0740AA42CFEACF050010C8DF0740AA464
:1005C3002CFDE435F0F0A3DBDE7407223F8000004E
:1005D3004120000042C80000447A0000461C40004D
:1005E30047C35000497424004B1896804CBEBC206E
:1005F3005A0E1BCA6753C21C749DC5AEFB600654DA
:1006030007601C232312062DEB54386009120619C8
:1006130012062812019EECF8EDF9EEFAEFCB22EB6D
:1006230012062880F1543803241C9005CFFE93FC56
:100633000EEE93FD0EEE930ECE93FF22E709F6081E
:10064300DFFA8046E709F208DFFA803E88828C836E
:10065300E709F0A3DFFA8032E309F608DFFA8078CE
:10066300E309F208DFFA807088828C83E309F0A340
:10067300DFFA806489828A83E0A3F608DFFA805870
:1006830089828A83E0A3F208DFFA804C80D280FA61
:1006930080C680D4806980F28033801080A680EA8F
:1006A300809A80A880DA80E280CA803389828A8334
:1006B300ECFAE493A3C8C582C8CCC583CCF0A3C825
:1006C300C582C8CCC583CCDFE9DEE7800D89828A89
:1006D30083E493A3F608DFF9ECFAA9F0EDFB228992
:1006E300828A83ECFAE0A3C8C582C8CCC583CCF068
:1006F300A3C8C582C8CCC583CCDFEADEE880DB892A
:10070300828A83E493A3F208DFF980CC88F0EF6058
:10071300010E4E60C388F0ED2402B4040050B9F515
:1007230082EB2402B4040050AF23234582239006B6
:100733008F73C2D530F707B2D563F0FF05F030E70A
:100743000CB2D5F4048463F0FF05F080018430D546
:1007530002F40422BB010689828A83E0225002E765
:1007630022BBFE02E32289828A83E49322BB010C2B
:10077300E58229F582E5833AF583E0225006E925EF
:1007830082F8E622BBFE06E92582F8E222E5822909
:10079300F582E5833AF583E49322BB010689828AD5
:1007A30083F0225002F722BBFE01F322F8BB010DB6
:1007B300E58229F582E5833AF583E8F0225006E9DC
:1007C3002582C8F622BBFE05E92582C8F222EF8DF9
:1007D300F0A4A8F0CF8CF0A428CE8DF0A42EFE2296
:1007E300BC000BBE0029EF8DF084FFADF022E4CCFA
:1007F300F875F008EF2FFFEE33FEEC33FCEE9DECC3
:10080300984005FCEE9DFE0FD5F0E9E4CEFD22ED08
:10081300F8F5F0EE8420D21CFEADF075F008EF2F52
:10082300FFED33FD4007985006D5F0F222C398FD43
:100833000FD5F0EA22C2D5EC30E709B2D5E4C39D67
:10084300FDE49CFCEE30E715B2D5E4C39FFFE49EC4
:10085300FE1207E3C3E49DFDE49CFC80031207E35F
:1008630030D507C3E49FFFE49EFE22C5F0F8A3E062
:1008730028F0C5F0F8E582158270021583E038F0A0
:1008830022A3F8E0C5F025F0F0E582158270021589
:1008930083E0C838F0E822BB0110E58229F582E540
:1008A300833AF583E0F5F0A3E0225009E92582F8C5
:1008B30086F008E622BBFE0AE92582F8E2F5F00895
:1008C300E222E5832AF583E993F5F0A3E99322E88D
:1008D3008FF0A4CC8BF0A42CFCE98EF0A42CFC8A22
:1008E300F0EDA42CFCEA8EF0A4CDA8F08BF0A42D9F
:1008F300CC3825F0FDE98FF0A42CCD35F0FCEB8E40
:10090300F0A4FEA9F0EB8FF0A4CFC5F02ECD39FEF5
:10091300E43CFCEAA42DCE35F0FDE43CFC2275F06A
:1009230008758200EF2FFFEE33FECD33CDCC33CCF1
:10093300C58233C5829BED9AEC99E58298400CF50C
:1009430082EE9BFEED9AFDEC99FC0FD5F0D6E4CE3A
:10095300FBE4CDFAE4CCF9A88222B800C1B900596E
:10096300BA002DEC8BF084CFCECDFCE5F0CBF9783B
:1009730018EF2FFFEE33FEED33FDEC33FCEB33FBCF
:1009830010D703994004EB99FB0FD8E5E4F9FA2259
:100993007818EF2FFFEE33FEED33FDEC33FCC93354
:1009A300C910D7059BE99A4007EC9BFCE99AF90F1C
:1009B300D8E0E4C9FAE4CCFB2275F010EF2FFFEE88
:1009C30033FEED33FDCC33CCC833C810D7079BECD3
:1009D3009AE899400AED9BFDEC9AFCE899F80FD54B
:1009E300F0DAE4CDFBE4CCFAE4C8F922C3E49FFFD8
:1009F300E49EFEE49DFDE49CFC22EB9FF5F0EA9E61
:100A030042F0E99D42F0EC6480C864809845F0228E
:100A1300EB9FF5F0EA9E42F0E99D42F0E89C45F039
:100A230022E8600FECC313FCED13FDEE13FEEF138E
:100A3300FFD8F122BB010789828A83020B4C500540
:100A4300E9F8020B40BBFE05E9F8020B5889828ADC
:100A530083020B647401FF3395E0FEFDFCA3A3A3A3
:100A6300E0CF2FF0E582158270021583E0CE3EF0D1
:100A7300E582158270021583E0CD3DF0E582158293
:100A830070021583E0CC3CF022ECF0A3EDF0A3EE72
:100A9300F0A3EFF022A8828583F0D083D082120ADC
:100AA300AF120AAF120AAF120AAFE473E493A3C5FD
:100AB30083C5F0C583C8C582C8F0A3C583C5F0C587
:100AC30083C8C582C822F5F0C582A4C582C5F0C516
:100AD30083A42583F58322F8E0FBA3A3E0F925F0A3
:100AE300F0E582158270021583E0FA38F022EBF00C
:100AF300A3EAF0A3E9F022BB010789828A83020BF0
:100B03007D5005E9F8020B74BBFE05E9F8020B867C
:100B130089828A83020B8FD083D082F8E493701288
:100B2300740193700DA3A393F8740193F5828883E2
:100B3300E4737402936860EFA3A3A380DFE6FC0869
:100B4300E6FD08E6FE08E6FF22E0FCA3E0FDA3E0E5
:100B5300FEA3E0FF22E2FC08E2FD08E2FE08E2FF5A
:100B630022E493FC740193FD740293FE740393FFD8
:100B730022E6FB08E6FA08E6F922E0FBA3E0FAA383
:100B8300E0F922E2FB08E2FA08E2F922E493FB74BB
:100B93000193FA740293F922E508240FF582E434F1
:100BA30002F583E005082290020C30070390020F40
:100BB300E475F001120ADA0207572000E97F2ED20A
:100BC300008018EF540F2490D43440D4FF30040B2A
:100BD300EF24BFB41A0050032461FFE50960021536
:100BE30009050CE50C7002050B30070E90020CE4AE
:100BF30075F001120ADAEF02079D021A0F7403D28D
:100C0300078003E4C207F50890020C120AF1E4F529
:100C130009F50BF50CE50960077F20120BDE80F563
:100C2300750AFFC201C200C202C203C205C206C2E4
:100C330008120BAAFF700D3007057F00120BEFAFF0
:100C43000CAE0B22B4255FC2D5C204120BAAFF243B
:100C5300D0B40A00501A75F00A780930D50508B6E1
:100C6300FF0106C6A426F620D5047002D20380D95C
:100C730024CFB41A00EF5004C2E5D204020EE1D22D
:100C83000180C6D20080C0D20280BCD2D580BAD245
:100C93000580B47F20120BDE2002077401B5090022
:100CA30040F1120B9BFF120BDE020C18D208D20686
:100CB3008095120B9BFB120B9BFA120B9BF94A4B71
:100CC300700679DF7A0F7BFF20022EE509602A7E0A
:100CD300008E8275830012077060060EEE650A703F
:100CE300F0C2D5EBC0E0EAC0E0E9C0E0EE120F428B
:100CF300D0E0F9D0E0FAD0E0FB120757FF60AAEB8F
:100D0300C0E0EAC0E0E9C0E0120BDED0E02401F964
:100D1300D0E03400FAD0E0FBE50A0460DCD50AD960
:100D23008087D20280A2120F2460F7E50A700104C3
:100D330012048DA90A600DE50A600914F50A120F61
:100D4300CCEF60F3EA30E702F404C3995079EAF494
:100D5300250A0430E701E404F50A800D120F24602C
:100D6300C1EA050A250A12048DEA90023BF030E736
:100D730001E4250A04D50A0420050114120F42E4F4
:100D8300C0E0120FCC90023BE0601320E70714F0A1
:100D9300120BC6802204F0D0E014C0E07F00120BD7
:100DA300C6E50A6007120BBD150A800B3005031256
:100DB3000BBDD0E0020C18D0E00480C4120F2460F5
:100DC3009EE50A0412048D90023BEAF0E50A200531
:100DD300026001042404120F4274FF04C0E0120FE6
:100DE300CC120BC6E50A2005026003120BBDD0E04E
:100DF300B50AE87F45120BD090023BE07F2B30E72A
:100E0300047F2DF404C0E0120BDED0E075F00A84F9
:100E1300C0F0120BC7D0E0120BC7020C1879108078
:100E2300027908C206C2088008D2D5790A800479FB
:100E33000AC2D5E50A047002F50AE4FAFDFEFF12C0
:100E43000B9BFC7B08200113120B9BFD7B103000D6
:100E53000A120B9BFE120B9BFF7B20EC3382D59275
:100E6300D55013C3E43000069FFFE49EFEE4200147
:100E7300039DFDE49CFCE4CBF8C201EC700CCFCEE7
:100E8300CDCCE824F8F870F38017C3EF33FFEE33CB
:100E9300FEED33FDEC33FCEB33FB994002FB0FD843
:100EA300E9EB300105F8D0E0C448B201C0E00AEC38
:100EB3004D4E4F78207B0070C2EAB50A0040BCC09B
:100EC300E0120F44D0F0D0E0200104C4C0E0C4B26B
:100ED30001C0F0120BC7D0F0D5F0EB020C18120BC7
:100EE3001A0CB5530E20580C864C0C82420E244F1C
:100EF3000E2C440E2C490C9B430E32550D5F460DB0
:100F0300BF450D29470FFF500C8A2D0C8E2E0CB1B7
:100F13002B0C92230CAF200FE82A0C4A4800000C3C
:100F2300A9E50AB4FF03750A06120B9BFC120B9B7F
:100F3300FD120B9BFE120B9BFF9002340204CA7935
:100F43000AA2D5200314300509B910020404B90814
:100F53000104A2D52006025001042002689202B5C2
:100F630009005034C0E07F203003197F30A20272A1
:100F7300067205500F120F9BC202C206C205C208B9
:100F83007F30800F300503E9C0E0120BDE3005032C
:100F9300D0E0F9D0E0B509CC3005177F30B9100C9B
:100FA300120BDE7F583004077F788003B9080312E1
:100FB3000BDE3002057F2D020BDE7F202008F87F39
:100FC3002B2006F322920280CF7F00B40700500B40
:100FD3002434F582E43402F583E0FF22286E756C35
:100FE3006C2900D201120B9B3001F8C20178093041
:100FF300D50108F6020C4A2D50434958120B9B2485
:1010030003B405004001E4900FFA93120BCF743A36
:10101300120BCFD203750904020E209001CFEFF01B
:10102300A3EDF0A3EBF0A3E0F8A3E0F9A3E0FAA3A8
:10103300E0FB90029AE0FCA3E0FDA3E0FEA3E0FF47
:1010430012095DE47B04FAF9F812095DC3E49FFF1A
:10105300E49EAD07FC9001CFE01470030210F71477
:10106300700302113A147003021193240360030204
:1010730011F09001D6E0FB7A00640170144398509C
:101083008D8BECF58D438E40D28EE49001CAF080B7
:1010930011EB64024A700B4398508DD7ECF5D6439D
:1010A3008E1553A23F9001D0E0F9FF7E007008A394
:1010B300E0640170028035EF64024E700D9001D13F
:1010C300E06403700543A2408022E96404700D903C
:1010D30001D1E06405700543A2808010E9640670C5
:1010E3000B9001D1E06407700343A2C0E49001CAEE
:1010F300F0D2AC229001D6E06402700B439A108DBB
:10110300D7ECF5D6438E1453BAFE9001D0E0FF7EA0
:101113000064087008A3E0640970028011EF640A98
:101123004E700B9001D1E0640B700343BA0143AFDF
:1011330001E49001CBF0229001D6E0FB7A00640237
:10114300700D43AC108DD7ECF5D6438E148011EBA4
:1011530064034A700B43AC508DD5ECF5D443D10AEC
:1011630053BAFD9001D0E0FF7E00640C7008A3E049
:10117300640D70028011EF640E4E700B9001D1E08C
:10118300640F700343BA0243AF08E49001CCF0222A
:101193009001D6E0FB7A006402700D4384108DD772
:1011A300ECF5D6438E148011EB64044A700B438430
:1011B300508DD3ECF5D243D1A053BAFB9001D0E0CC
:1011C300FF7E0064107008A3E0641170028016EFC4
:1011D30064124E70109001D1E064137008F5CA7563
:1011E300C90443BA0443AF10E49001CDF022900147
:1011F300CFEFF0A3EDF090020B7401F0E4FFFEFDDE
:10120300FC9001D1E0F8A3E0F9A3E0FAA3E0FB121C
:101213000344501D90020B74FFF09001D1E0FCA336
:10122300E0FDA3E0FEA3E0FF1203BD9001D1120A8B
:101233008C9001D1E0FCA3E0FDA3E0FEA3E0FF124C
:10124300040C9001D7EEF0A3EFF0E4FFFE7D207CC9
:10125300419001D1E0F8A3E0F9A3E0FAA3E0FB1287
:10126300019E12040C9001D5EEF0A3EFF07C007DFB
:101273000A1208389001D5ECF0A3EDF090020BE0D0
:10128300FF7E00BEFF12BFFF0F90020F74FFF0A39B
:101293007428F0A3744D801590020BE0640170353F
:1012A30090020F74FFF0A37428F0A37455F090011B
:1012B300D7E0FFA3E0900212CFF0A3EFF09001D5A7
:1012C300E0FFA3E0900214CFF0A3EFF07B017A01DB
:1012D30079D9120C009001CFE0FFA3E0FD7B017AE6
:1012E3000179D90215699001CFEFF0A3EDF0E490F5
:1012F30001D6F0FC7D0AAF03AE021207E3ED243002
:101303009001D5F07C007D0AAF03AE021207E37CA7
:10131300007D0A1207E3ED24309001D4F07C007DB8
:1013230064AF03AE021207E37C007D0A1207E3ED0C
:1013330024309001D3F07C037DE8AF03AE021207A3
:10134300E37C007D0A1207E3ED24309001D2F0AE76
:1013530002AF037C277D101207E37C007D0A12078E
:10136300E3ED24309001D1F0E4FFEFC394047480E3
:101373009480501E74D12FF582E43401F583E0B4D8
:10138300301074D12FF582E43401F5837420F00F0B
:1013930080D89001CFE0FFA3E0FD7B017A0179D1F2
:1013A300021569D2C7D2FCC2FE7F327E001200262C
:1013B300D2FE7FAE121941E4FF1219417F101219B8
:1013C300417F401219417F811219417F7F121941D8
:1013D3007FA11219417FC81219417FA61219417FBB
:1013E300A81219417F3F1219417FD3121941E4FF1B
:1013F3001219417FD51219417F801219417FD912E9
:1014030019417FF11219417FDA1219417F12121922
:10141300417FDB1219417F401219417F201219418C
:101423007F021219417F8D1219417F141219417FD6
:10143300A41219417FA61219417FAF121941E4FF8B
:1014430012189CE4FDFF0219FB9001CFEFF0A3ED0E
:10145300F0A3EBF0A3EAF0A3E9F0E4A3F0FCA3F01C
:101463009001D1E0FBA3E0FAA3E0F99001D5E0F508
:1014730082758300120770606024E09001D4F090BD
:1014830001CFE0D3947E748094804006E4F0A3E01F
:1014930004F09001CF1219F6E4FCECC394067480B7
:1014A300948050269001D4E075F006A42410F582B0
:1014B300E5F03420F583E5822CF582E43583F5836A
:1014C300E493F4FF12196B0C80D09001CFE0240653
:1014D300F09001D5E004F0808722787FE4F6D8FD10
:1014E3007581210215240216E0E493A3F8E493A383
:1014F3004003F68001F208DFF48029E493A3F85453
:1015030007240CC8C333C4540F4420C8834004F4D5
:1015130056800146F6DFE4800B01020408102040E8
:1015230080900066E47E019360BCA3FF543F30E5E6
:1015330009541FFEE493A360010ECF54C025E0605D
:10154300A840B8E493A3FAE493A3F8E493A3C8C52B
:1015530082C8CAC583CAF0A3C8C582C8CAC583CA1C
:10156300DFE9DEE780BE90020CEFF0A3EDF0A3EB22
:10157300F0A3EAF0A3E9F0E4A3F0FCA3F090020ED9
:10158300E0FBA3E0FAA3E0F9900212E0F582758391
:1015930000120770605A24E0900211F090020CE0F0
:1015A300D3947E748094804006E4F0A3E004F0902A
:1015B300020C1219F6E4FCECC39406748094805078
:1015C30020900211E075F006A42410F582E5F034B2
:1015D30020F583E5822CF582E435831219660C80AD
:1015E300D690020CE02406F0900212E004F0808D05
:1015F3002243FF1090029A120A9800B71B0075BA93
:101603008090FE0374C0F090FE03E030E0F990FE9A
:1016130001E4F090FE0004F0E4F5BA12166EE4F56E
:1016230094F593F592F591F596F595F5B2F5B1F537
:10163300B4F5B3F5CAF5C9F5CCF5CBF5E2F5E1F5AB
:10164300DEF58EF598F59AF5ACF584F5A2F5BAF5C5
:10165300AFF5899001D2120A980001C2009001D619
:101663007402F07B01E4FDFF02101EE47B107A2775
:10167300F9F890029AE0FCA3E0FDA3E0FEA3E0FFEB
:1016830012095D90029EEEF0A3EFF07B407A42795F
:101693000F780090029AE0FCA3E0FDA3E0FEA3E034
:1016A300FF12095DEF24FEFFEE34FF9002A0F0A3CA
:1016B300EFF07F007E1B7DB77C0090029AE0F8A3D9
:1016C300E0F9A3E0FAA3E0FBD3120A13500E900251
:1016D300A1E004F070069002A0E004F02212004A98
:1016E3001215F41213A67BFF7A287928E4FDFF1262
:1016F30015691218D312004D7BFF7A2879357D01C5
:10170300E4FF1215697BFF7A28793CE4FD7F4012E0
:10171300144C7B0F7A007D02E4FF1212E99001D191
:10172300120A98404CCCCD7D077F501211F180C82E
:10173300C0E0C083C082C0D075D000C007E5983038
:10174300E1085398FD9001CAE4F0E59830E0255391
:1017530098FEAF99EF647F70169002A3E0FF04F048
:10176300D3EF941474809480400A75C76080059009
:1017730002A3E4F0D007D0D0D082D083D0E032E40B
:101783009001CEF0D2B3C2B2C2B3D2B2D2B3C2B21C
:10179300F09001CEE0C39480748094805027C2B34C
:1017A300E4FD7F041219089001CEE025E02401F541
:1017B30082E43400F583EEF0A3EFF0D2B39001CED0
:1017C300E004F080CC9000007401F022A3E475F0F3
:1017D30001120884A9F0FA120757FDEF14601514DB
:1017E300601D1460252403702D9001CAE070FA0473
:1017F300F08D99229001CBE070FA04F08D9B22903A
:1018030001CCE070FA04F08DAD229001CDE070FAC6
:1018130004F0AF058F8522C2D5E830E70FB2D5E4D7
:10182300C39BFBE49AFAE499F9E498F8EC30E717E0
:10183300B2D512185012095DE4C39BFBE49AFAE493
:1018430099F9E498F8800312095D30D50DE4C39F3C
:10185300FFE49EFEE49DFDE49CFC22C0E0C0F0C0DA
:1018630083C082C0D075D000C000C001C002C003D5
:10187300C004C005C006C00753EFFB121782D00790
:10188300D006D005D004D003D002D001D000D0D0F0
:10189300D082D083D0F0D0E032AC07E4FBEBC3942A
:1018A30008748094805028EB24B0FF121941E4FFA0
:1018B3001219417F10121941E4FAEAC3948074802B
:1018C30094805008AF0412196B0A80EE0B80CE226D
:1018D300E4FCECC39408748094805028EC24B0FF9B
:1018E3001219417F011219417F10121941E4FBEBD8
:1018F300C39480748094805008E4FF12196B0B80AA
:10190300EE0C80CE22A90553BCF0EF42BC43BC4091
:10191300E5BC30E5FB53BCDFAFBDEFFEADBEEDFF75
:10192300E4F5BDF5BEAD01EFA805088005CEC313F0
:10193300CE13D8F9FF2254F0C4540F4410FF7E088D
:10194300C2C7C2FFC2FCAD061EED6014EF30E70450
:10195300D2FD8002C2FDD2FCC2FCEF25E0FF80E68F
:10196300D2C722F583E493FF7E08C2C7D2FFC2FC2D
:10197300AD061EED6014EF30E704D2FD8002C2FD18
:10198300D2FCC2FCEF25E0FF80E6D2C722C0E0C054
:1019930083C082E59A30E108539AFD9001CBE4F0CD
:1019A300E59A30E003539AFED082D083D0E032C070
:1019B300E0C083C082E5AC30E10853ACFD9001CCBC
:1019C300E4F0E5AC30E00353ACFED082D083D0E04A
:1019D30032C0E0C083C082E58430E1085384FD90C7
:1019E30001CDE4F0E58430E0035384FED082D0835C
:1019F300D0E032E0FFA3E0FDAC07ED24B0FF121905
:101A030041EC121939EC540FFF02194190023CEFDB
:101A1300F0FDE4FF1217DE90023CE0FF220000001D
:101A230000000000000000000000000000000000B3
:101A330008080808080808000008080000004824EF
:101A4300241200000000000000000000000000005D
:101A53004848487E2424247E2424240000000010C7
:101A63003C5252121C30505052523C101000000095
:101A7300222515150D2A5854545222000000000047
:101A83000C1212120A76252919916E000000060421
:101A930004020000000000000000000000004020DD
:101AA300101008080808080810102040000002045D
:101AB300080810101010101008080402000000009D
:101AC3000008086B1C1C6B080800000000000000E5
:101AD3000000101010FE10101000000000000000A5
:101AE30000000000000000000006040402000000E3
:101AF30000000000007E0000000000000000000065
:101B03000000000000000000000606000000004086
:101B1300202020101008080804040202000000001E
:101B2300182442424242424242241800000000006C
:101B3300101C10101010101010107C00000000007A
:101B43003C4242424020100804427E000000000054
:101B53003C4242402018204042423C00000000002A
:101B630020303028242422FE2020F800000000002A
:101B73007E0202021E22404042221C00000000009E
:101B8300182402023A464242424438000000000050
:101B93007E422020101008080808080000000000FA
:101BA3003C4242422418244242423C0000000000CE
:101BB3001C22424242625C404024180000000000A4
:101BC30000000018180000000018180000000000B2
:101BD30000000000080000000000080808000000E2
:101BE30040201008040204081020400000000000F8
:101BF3000000007E00007E000000000000000000E6
:101C03000204081020402010080402000000000015
:101C13003C4242462010101000181800000000003B
:101C23001C225A55555555553A423C0000000000B8
:101C33000808181414243C224242E7000000000064
:101C43001F2222221E22424242221F0000000000C5
:101C53007C4242010101010142221C0000000000FC
:101C63001F2242424242424242221F000000000021
:101C73003F4212121E12120242423F0000000000B5
:101C83003F4212121E12120202020700000000005D
:101C93003C2222010101712122221C0000000000CC
:101CA300E7424242427E42424242E70000000000D5
:101CB3003E0808080808080808083E00000000005D
:101CC3007C10101010101010101010110F000000D5
:101CD3007722120A0E0A1212222277000000000055
:101CE300070202020202020202427F000000000019
:101CF3007736363636362A2A2A2A6B000000000049
:101D0300E346464A4A5252526262470000000000CC
:101D13001C2241414141414141221C00000000007D
:101D23003F424242423E020202020700000000001C
:101D33001C224141414141414D321C6000000000E1
:101D43003F4242423E1212222242C70000000000DC
:101D53007C4242020418204042423E000000000040
:101D63007F4908080808080808081C00000000004C
:101D7300E74242424242424242423C0000000000EB
:101D8300E74242222424141418080800000000002B
:101D93006B2A2A2A2A2A361414141400000000007D
:101DA300E7422424181818242442E7000000000006
:101DB300772222141408080808081C0000000000F9
:101DC3007E2120101008040442423F0000007808DE
:101DD300080808080808080808080878000000022E
:101DE30004040408080810102020204040001E109E
:101DF30010101010101010101010101E00001824D6
:101E030000000000000000000000000000000000CF
:101E130000000000007E0000000000000000060833
:101E230000000000000000000000000000000000AF
:101E3300000000001C22302C22326C000000000045
:101E4300000302021A26424242261A000000000042
:101E53000000000038440202024438000000000081
:101E6300006040407C4242424262DC0000000000CD
:101E7300000000003C42427E02423C0000000000A1
:101E8300003048083E08080808083E00000000002B
:101E9300000000007C22221C023C42423C00000065
:101EA300000302023A4642424242E70000000000B9
:101EB3000C0C00000E08080808083E000000000093
:101EC3003030000038202020202020221E00000077
:101ED3000003020272120A0E1222770000000000B1
:101EE300080E08080808080808083E00000000005B
:101EF300000000007F9292929292B70000000000CF
:101F0300000000003B4642424242E700000000005E
:101F1300000000003C42424242423C0000000000FC
:101F2300000000001B26424242261A02070000005E
:101F3300000000005864424242645840E000000040
:101F430000000000774C040404041F00000000009C
:101F5300000000007C42023C40423E0000000000C2
:101F6300000008083E080808084830000000000088
:101F730000000000634242424262DC0000000000B5
:101F8300000000007722221414080800000000005B
:101F930000000000DB91525A2A24240000000000B4
:101FA300000000006E2418181824760000000000BA
:101FB30000000000E7422424181808080600000067
:101FC300000000007E22100808447E000000C020AC
:101FD3002020202020102020202020C000101010BE
:101FE3001010101010101010101010101000030417
:101FF30004040404040804040404040300045A202D
:1020030000000000000000000000000000000000CD
:102013000000000000002F00000000070007000080
:10202300147F147F1400242A7F2A12006264081389
:102033002300364955225000000503000000001C10
:10204300224100000041221C000014083E08140035
:1020530008083E0808000000A060000008080808FF
:1020630008000060600000002010080402003E51D8
:1020730049453E0000427F4000004261514946000D
:102083002141454B31001814127F10002745454567
:1020930039003C4A494930000171090503003649BA
:1020A30049493600064949291E000036360000001A
:1020B30000563600000008142241000014141414C2
:1020C300140000412214080002015109060032499C
:1020D30059513E007C1211127C007F494949360058
:1020E3003E41414122007F4141221C007F49494931
:1020F30041007F09090901003E4149497A007F08EF
:1021030008087F0000417F4100002040413F01005B
:102113007F08142241007F40404040007F020C02B0
:102123007F007F0408107F003E4141413E007F094C
:10213300090906003E4151215E007F091929460025
:1021430046494949310001017F0101003F404040B8
:102153003F001F2040201F003F4038403F006314D2
:1021630008146300070870080700615149454300DC
:10217300007F41410000552A552A55000041417F07
:1021830000000402010204004040404040000001FE
:10219300020400002054545478007F48444438001B
:1021A300384444442000384444487F00385454544D
:1021B3001800087E0901020018A4A4A47C007F086B
:1021C3000404780000447D4000004080847D0000CA
:1021D3007F102844000000417F4000007C04180465
:1021E30078007C0804047800384444443800FC2414
:1021F3002424180018242418FC007C080404080074
:10220300485454542000043F444020003C404020A4
:102213007C001C2040201C003C4030403C004428F3
:10222300102844001CA0A0A07C004464544C441417
:102233001414141414000000000000000000000037
:102243000000000000000000F80000000000000093
:10225300333000000000100C06100C0600000000D4
:10226300000000000040C07840C0784000043F04F4
:10227300043F040400007088FC08300000001820AC
:10228300FF211E0000F008F000E018000000211CF0
:10229300031E211E0000F00888700000001E212389
:1022A300241927211010160E000000000000000062
:1022B3000000000000000000E0180402000000001D
:1022C300071820400000020418E00000000040202E
:1022D3001807000000404080F080404000020201E7
:1022E3000F01020200000000F000000000010101E4
:1022F3001F01010100000000000000000080B07019
:1023030000000000000000000000000000000101C8
:102313000101010101000000000000000000303055
:102323000000000000000000008060180400601836
:10233300060100000000E010080810E000000F1084
:102343002020100F00001010F800000000002020D3
:102353003F20200000007008080888700000302823
:1023630024222130000030088888483000001820DB
:102373002020110E000000C02010F8000000070408
:1023830024243F240000F808888808080000192145
:102393002020110E0000E0108888180000000F11A3
:1023A3002020110E0000380808C83808000000007B
:1023B3003F000000000070880808887000001C229D
:1023C3002121221C0000E010080810E00000003169
:1023D3002222110F00000000C0C000000000000016
:1023E300303000000000000080000000000000808A
:1023F300600000000000008040201008000001027F
:1024030004081020004040404040404000040404C1
:102413000404040400000810204080000000201081
:102423000804020100007048080808F000000000DA
:102433003036010000C030C828E810E00007182734
:102443002423140B000000C038E0000000203C23CC
:10245300020227382008F8888888700000203F206F
:102463002020110E00C03008080808380007182083
:10247300202010080008F808080810E000203F207A
:102483002020100F0008F88888E8081000203F205B
:10249300202320180008F88888E8081000203F202F
:1024A3000003000000C030080808380000071820A7
:1024B30020221E020008F808000008F808203F2127
:1024C3000101213F20000808F8080800000020202F
:1024D3003F2020000000000808F8080800C08080A2
:1024E300807F00000008F888C028180800203F20DB
:1024F300012638200008F8080000000000203F20D3
:10250300202020300008F8F800F8F80800203F00E9
:102513003F003F200008F830C00008F808203F20A3
:102523000007183F00E01008080810E0000F102013
:102533002020100F0008F808080808F000203F21A9
:102543000101010000E01008080810E0000F182442
:102553002438504F0008F8888888887000203F206E
:1025630000030C3020007088080808380000382069
:102573002121221C00180808F80808180000002070
:102583003F2000000008F808000008F808001F209A
:102593002020201F000878880000C83808000007A2
:1025A300380E010000F80800F80008F800033C07A3
:1025B30000073C0300081868808068180820302C46
:1025C30003032C30200838C800C838080000002056
:1025D3003F2000000010080808C8380800203826EB
:1025E3002120201800000000FE020202000000006B
:1025F3007F40404000000C30C0000000000000009D
:10260300010638C00000020202FE00000000404044
:10261300407F0000000000040202020400000000EA
:102623000000000000000000000000000080808027
:10263300808080808000020204000000000000000F
:10264300000000000000008080808000000019244A
:102653002222223F2008F8008080000000003F1162
:102663002020110E000000008080800000000E1169
:102673002020201100000000808088F800000E1147
:102683002020103F200000808080800000001F2257
:102693002222221300008080F088888818002020DE
:1026A3003F202000000000808080808000006B9429
:1026B300949493600008F8008080800000203F21FC
:1026C3000000203F20008098980000000000202098
:1026D3003F20200000000000809898000000C08088
:1026E30080807F000008F8000080808000203F2465
:1026F300022D302000000808F80000000000202010
:102703003F202000008080808080808000203F2048
:10271300003F20003F8080008080800000203F2118
:102723000000203F200000808080800000001F20E8
:102733002020201F00808000808000000080FFA1F7
:102743002020110E000000008080808000000E1108
:102753002020A0FF80808080008080800020203F98
:10276300212000010000008080808080000033244D
:102773002424241900008080E080800000000000F1
:102783001F202000008080000000808000001F20A8
:102793002020103F20808080000080808000010E78
:1027A300300806010080800080008080800F300C9C
:1027B300030C300F000080800080808000002031F7
:1027C3002E0E312000808080000080808080818EEA
:1027D3007018060100008080808080800000213016
:1027E3002C2221300000000000807C020200000047
:1027F30000003F404000000000FF00000000000018
:1028030000FF0000000002027C8000000000404046
:102813003F00000000000601010202040400000062
:102823000000000000696E6974207375636365734B
:10283300730031206C696E650032206C696E65002F
:102843002D0020002564002566002D2532642E25E9
:0928530064002533642E256400A5
:00000001FF
