:10000000020D3602000A53EFFD323202001A53EF9E
:10001000FB323202001253EFFE323202002253EF63
:10002000FD3232020EAE900238E0FCA3E0FDED1D81
:1000300070011C14AA044C70F5EF1F70011E144EC1
:0C00400070E422021061C2AF22D2AF2295
:03005300020EF8A2
:03005B000200069A
:1000630002001641023C0044023400000000420238
:0D00730038000042023A00004101F0000098
:0300830002000E6A
:03008B00021083DD
:030093000210A5B3
:03009B0002001E42
:1000A300020FC702046CE86480F8E933E833601197
:1000B3000460F0ED33EC337009E8FCE9FDEAFEEB94
:1000C300FF220460DED3EB9FEA9EE99DE8C2E78C42
:1000D300F0C2F795F0400CE8CCF8E9CDF9EACEFA96
:1000E300EBCFFB12043785D0F05804700320D5B34F
:1000F300E80470075002B2D502047692D5EC04608E
:10010300F7E4CCC0E0C398F8603B94186008400D56
:10011300D0E0FB02044EE4FBFAC9FC8028E830E49B
:1001230006E4C9FBE4CAFCE830E305E4C9CACBFC36
:10013300E854076010F8C3E913F9EA13FAEB13FB69
:10014300EC13FCD8F130F52FC3E49CFCEF9BFFEEDE
:100153009AFEED99FDD0E0FBEF4E4D4C701222DB81
:1001630003020473EC2CFCEF33FFEE33FEED33FD9F
:10017300ED30E7EB02044EEF2BFFEE3AFEED39FDD7
:10018300D0E0FB50130BBB0003020476ED13FDEE2E
:1001930013FEEF13FFEC13FC02044EEC4D6011E869
:1001A300497017ED33EC3304600DE4FCFFFEFD22D0
:1001B300E933E8330470F802046C1204375804601E
:1001C30009E4CC2481500628500902047628400310
:1001D300020473C0E0EB4A7044B98006D0E0FB022E
:1001E3000462EF4E701CBD8008EBFFEAFEE9FD8060
:1001F300EBE98DF0A4FEE5F0020287E9CDF9EAFE12
:10020300EBFFEF89F0A4FCE5F0CE89F0A42EFFE428
:1002130035F0CD89F0A42DFEE435F08067EF4E7004
:1002230005BD80D780C3EF8BF0A4ACF0EE8BF0A4B8
:100233002CFCE435F0F8EF8AF0A42CE5F038FCE46C
:1002430033CB8DF0A42CFCE5F03BF8EE8AF0A42C24
:10025300FCE5F038F8E433CF89F0A42CFCE5F03862
:10026300CF3400CE89F0A42FFFE5F03EFEE433C97E
:100273008DF0A42EFEE5F039CD8AF0A42FFFE5F032
:100283003EFEE43DFD33D0E0FB50070BBB000F0205
:100293000476EC2CFCEF33FFEE33FEED33FD02046A
:1002A3004E020476EC5D046005E859047003020411
:1002B3006C120437580460F6EC4860F2EC7004FDED
:1002C300FEFF22C860DB2481C85009C39860025036
:1002D300060204739850CAF582E9294B4A7005ABAC
:1002E3008202046275F0007C1A7880C3EF9BEE9A59
:1002F300ED99400DC3EF9BFFEE9AFEED99FDE842A9
:10030300F0DC23ACF0D0E0FFD0E0FED0E0FDAB8228
:1003130020E7101BEB60BAEC2CFCEF33FFEE33FE4F
:10032300ED33FD02044EE803F830E705C0F075F045
:1003330000EF2FFFEE33FEED33FD40B830E7C28010
:10034300AA74F8CC6480CCC86480C8F58204604386
:10035300C3EB9FF5F0EA9E42F0E99D42F0E89C452D
:10036300F060305018E5825FFFE582F42B5582FB85
:1003730050210ABA001D09B90019088016E5825BED
:10038300FBE582F42F5582FF50090EBE00050DBD1B
:1003930000010CC3EB9FF5F0EA9E42F0E99D42F0A9
:1003A300E89C45F06007CC4820E701B3EC22ED332D
:1003B300EC33600A047003BD8004ECB2E7FC2275E1
:1003C300F020800E75F010800575F0087D007E002A
:1003D3007F003392D530D5031209E3EC334010EF9D
:1003E30033FFEE33FEED33FDEC33FCD5F0ED22E5C8
:1003F300F0247EA2D513CC92E7CDCEFF22EDD2E737
:10040300CD33EC3392D524814006E4FFFEFDFC227C
:10041300FCE4CFCECDCC24E0501174FF80EDC3CCEF
:1004230013CCCD13CDCE13CECF13CF0470F030D574
:10043300DE0209E3E9D2E7C933E833F892D5EDD216
:10044300E7CD33EC33FC5002B2D522EC30E7100F8A
:10045300BF000C0EBE00080DBD00040BEB6014A220
:10046300D5EB13FCED92E7FD2274FFFCFDFEFF22AA
:10047300E480F8A2D574FF13FC7D80E480EFF920BB
:10048300E73624F950037907E4F42402FBE58215E7
:100493008270021583DBF6E024FB501BE96014E451
:1004A300F0E582158270021583E004F0B40A08E4D3
:1004B300F0D9EE7401F00A22C2D522ED33EC339267
:1004C300D5FA602AB4FF33EDC2E77BFF60067A04F6
:1004D30079E3E4227A0479EC20D5047A0479E722DB
:1004E3004E614E002B494E46002D494E4600E47A9C
:1004F30008F0A3DAFC7B00740722C083C082ECC03F
:10050300E0EDC0E0EEC0E0EFC0E0EA75F010A4CA91
:10051300ABF075F04DA42BFBE435F0FCEA2410FAA4
:10052300EB34C5FBEC34D9FCEDC2E7FF75F056A400
:10053300F42411C5F0F434C58FF0A42AE5F03BE4AC
:100543003CF020E7141205F3D0E0FFD0E0FED0E04A
:10055300FDD0E0FC1202A78014F4041205F3D0E0EE
:10056300FFD0E0FED0E0FDD0E0FC12019ED082D0AF
:1005730083E0FAEDD2E7CD33EC332482FBE4C3CF3F
:1005830033CFCE33CECD33CD33DBF37B0775F00AD8
:10059300846004F0A31B0AE5F0F0A38FF0740AA4AF
:1005A300FFACF08EF0740AA42CFEACF050010C8D5D
:1005B300F0740AA42CFDE435F0F0A3DBDE7407220B
:1005C3003F8000004120000042C80000447A000040
:1005D300461C400047C35000497424004B189680C2
:1005E3004CBEBC205A0E1BCA6753C21C749DC5AEB9
:1005F300FB60065407601C2323120621EB5438606A
:100603000912060D12061C12019EECF8EDF9EEFA22
:10061300EFCB22EB12061C80F1543803241C900507
:10062300C3FE93FC0EEE93FD0EEE930ECE93FF22CC
:10063300E709F608DFFA8046E709F208DFFA803EA9
:1006430088828C83E709F0A3DFFA8032E309F60896
:10065300DFFA8078E309F208DFFA807088828C83FE
:10066300E309F0A3DFFA806489828A83E0A3F608B2
:10067300DFFA805889828A83E0A3F208DFFA804C8C
:1006830080D280FA80C680D4806980F28033801063
:1006930080A680EA809A80A880DA80E280CA8033CC
:1006A30089828A83ECFAE493A3C8C582C8CCC58344
:1006B300CCF0A3C8C582C8CCC583CCDFE9DEE78014
:1006C3000D89828A83E493A3F608DFF9ECFAA9F093
:1006D300EDFB2289828A83ECFAE0A3C8C582C8CCE9
:1006E300C583CCF0A3C8C582C8CCC583CCDFEADE02
:1006F300E880DB89828A83E493A3F208DFF980CC64
:1007030088F0EF60010E4E60C388F0ED2402B4045C
:100713000050B9F582EB2402B4040050AF23234503
:10072300822390068373C2D530F707B2D563F0FFF7
:1007330005F030E70CB2D5F4048463F0FF05F080D4
:10074300018430D502F40422BB010689828A83E046
:10075300225002E722BBFE02E32289828A83E493CA
:1007630022BB010CE58229F582E5833AF583E02279
:100773005006E92582F8E622BBFE06E92582F8E267
:1007830022E58229F582E5833AF583E49322BB01CE
:100793000689828A83F0225002F722BBFE01F322EC
:1007A300F8BB010DE58229F582E5833AF583E8F08C
:1007B300225006E92582C8F622BBFE05E92582C838
:1007C300F222EF8DF0A4A8F0CF8CF0A428CE8DF008
:1007D300A42EFE22BC000BBE0029EF8DF084FFADDA
:1007E300F022E4CCF875F008EF2FFFEE33FEEC3384
:1007F300FCEE9DEC984005FCEE9DFE0FD5F0E9E480
:10080300CEFD22EDF8F5F0EE8420D21CFEADF0759E
:10081300F008EF2FFFED33FD4007985006D5F0F2B7
:1008230022C398FD0FD5F0EA22C2D5EC30E709B216
:10083300D5E4C39DFDE49CFCEE30E715B2D5E4C3DB
:100843009FFFE49EFE1207D7C3E49DFDE49CFC805A
:10085300031207D730D507C3E49FFFE49EFE22C5EA
:10086300F0F8A3E028F0C5F0F8E5821582700215D0
:1008730083E038F022A3F8E0C5F025F0F0E5821517
:100883008270021583E0C838F0E822BB0110E582CC
:1008930029F582E5833AF583E0F5F0A3E0225009D8
:1008A300E92582F886F008E622BBFE0AE92582F8EC
:1008B300E2F5F008E222E5832AF583E993F5F0A354
:1008C300E99322E88FF0A4CC8BF0A42CFCE98EF002
:1008D300A42CFC8AF0EDA42CFCEA8EF0A4CDA8F0A5
:1008E3008BF0A42DCC3825F0FDE98FF0A42CCD3569
:1008F300F0FCEB8EF0A4FEA9F0EB8FF0A4CFC5F0D3
:100903002ECD39FEE43CFCEAA42DCE35F0FDE43CCB
:10091300FC2275F008758200EF2FFFEE33FECD3316
:10092300CDCC33CCC58233C5829BED9AEC99E5825D
:1009330098400CF582EE9BFEED9AFDEC99FC0FD5E9
:10094300F0D6E4CEFBE4CDFAE4CCF9A88222B800D9
:10095300C1B90059BA002DEC8BF084CFCECDFCE5A4
:10096300F0CBF97818EF2FFFEE33FEED33FDEC33C8
:10097300FCEB33FB10D703994004EB99FB0FD8E54D
:10098300E4F9FA227818EF2FFFEE33FEED33FDEC96
:1009930033FCC933C910D7059BE99A4007EC9BFC8C
:1009A300E99AF90FD8E0E4C9FAE4CCFB2275F01018
:1009B300EF2FFFEE33FEED33FDCC33CCC833C8103D
:1009C300D7079BEC9AE899400AED9BFDEC9AFCE86B
:1009D30099F80FD5F0DAE4CDFBE4CCFAE4C8F922B8
:1009E300C3E49FFFE49EFEE49DFDE49CFC22EB9F99
:1009F300F5F0EA9E42F0E99D42F0EC6480C8648021
:100A03009845F022EB9FF5F0EA9E42F0E99D42F013
:100A1300E89C45F022E8600FECC313FCED13FDEEF8
:100A230013FEEF13FFD8F122BB010789828A8302E9
:100A33000B405005E9F8020B34BBFE05E9F8020B45
:100A43004C89828A83020B587401FF3395E0FEFDC3
:100A5300FCA3A3A3E0CF2FF0E582158270021583D8
:100A6300E0CE3EF0E582158270021583E0CD3DF0C5
:100A7300E582158270021583E0CC3CF022ECF0A3F2
:100A8300EDF0A3EEF0A3EFF022A8828583F0D083EC
:100A9300D082120AA3120AA3120AA3120AA3E473AE
:100AA300E493A3C583C5F0C583C8C582C8F0A3C5B5
:100AB30083C5F0C583C8C582C822F5F0C582A4C525
:100AC30082C5F0C583A42583F58322F8E0FBA3A3A5
:100AD300E0F925F0F0E582158270021583E0FA381B
:100AE300F022EBF0A3EAF0A3E9F022BB010789822D
:100AF3008A83020B715005E9F8020B68BBFE05E916
:100B0300F8020B7A89828A83020B83D083D082F81E
:100B1300E4937012740193700DA3A393F87401937B
:100B2300F5828883E4737402936860EFA3A3A380C0
:100B3300DFE6FC08E6FD08E6FE08E6FF22E0FCA38C
:100B4300E0FDA3E0FEA3E0FF22E2FC08E2FD08E2F1
:100B5300FE08E2FF22E493FC740193FD740293FE0A
:100B6300740393FF22E6FB08E6FA08E6F922E0FBAA
:100B7300A3E0FAA3E0F922E2FB08E2FA08E2F92291
:100B8300E493FB740193FA740293F922900226EF23
:100B9300F0A3EDF0A3EBF0A3E0F8A3E0F9A3E0FAF0
:100BA300A3E0FB900234E0FCA3E0FDA3E0FEA3E09E
:100BB300FF120951E47B04FAF9F8120951C3E49FC7
:100BC300FFE49EAD07FC900226E0147003020C5B69
:100BD300147003020C96147003020CE324036003E5
:100BE300020D3590022DE0FB640170144398508D83
:100BF3008BECF58D438E40D28EE49001CAF0800FCA
:100C0300EBB4020B4398508DD7ECF5D6438E1553B6
:100C1300A23F900227E0FF7007A3E0B401028030F7
:100C2300EFB4020C900228E0B4030543A2408020F5
:100C3300900227E0B4040AA3E0B4050543A2808030
:100C43000F900227E0B40608A3E0B4070343A2C051
:100C5300E49001CAF0D2AC2290022DE0B4020B431F
:100C63009A108DD7ECF5D6438E1453BAFE90022713
:100C7300E0FFB40807A3E0B40902800EEFB40A0A48
:100C8300900228E0B40B0343BA0143AF01E490019F
:100C9300CBF02290022DE0FBB4020D43AC108DD7B4
:100CA300ECF5D6438E14800FEBB4030B43AC508D9D
:100CB300D5ECF5D443D10A53BAFD900227E0FFB433
:100CC3000C07A3E0B40D02800EEFB40E0A900228C5
:100CD300E0B40F0343BA0243AF08E49001CCF0221F
:100CE30090022DE0FBB4020D4384108DD7ECF5D6B2
:100CF300438E14800FEBB4040B4384508DD3ECF577
:100D0300D243D1A053BAFB900227E0FFB41007A34C
:100D1300E0B411028014EFB41210900228E0B4136F
:100D230009E4F5CA75C90443BA0443AF10E490015A
:100D3300CDF022787FE4F6D8FD758107020D7D02A0
:100D430010C7E493A3F8E493A34003F68001F208E9
:100D5300DFF48029E493A3F85407240CC8C333C4F5
:100D6300540F4420C8834004F456800146F6DFE460
:100D7300800B0102040810204080900066E47E018D
:100D83009360BCA3FF543F30E509541FFEE493A3D3
:100D930060010ECF54C025E060A840B8E493A3FAE5
:100DA300E493A3F8E493A3C8C582C8CAC583CAF071
:100DB300A3C8C582C8CAC583CADFE9DEE780BE43CC
:100DC300FF10900234120A8C00B71B0075BA809092
:100DD300FE0374C0F090FE03E030E0F990FE01E4FE
:100DE300F090FE0004F0E4F5BA120E3CE4F594F53D
:100DF30093F592F591F596F595F5B2F5B1F5B4F550
:100E0300B3F5CAF5C9F5CCF5CBF5E2F5E1F5DEF5B9
:100E13008EF598F59AF5ACF584F5A2F5BAF5AFF52C
:100E230089900229120A8C0001C20090022D7402DB
:100E3300F07B01E4FDFF020B8FE47B107A27F9F8C6
:100E4300900234E0FCA3E0FDA3E0FEA3E0FF12095F
:100E530051900238EEF0A3EFF07B407A42790F789D
:100E630000900234E0FCA3E0FDA3E0FEA3E0FF1248
:100E73000951EF24FEFFEE34FF90023AF0A3EFF0A6
:100E83007F007E1B7DB77C00900234E0F8A3E0F97D
:100E9300A3E0FAA3E0FBD3120A07500E90023BE053
:100EA30004F0700690023AE004F022C0E0C083C070
:100EB30082C0D075D000C007E59830E1085398FD93
:100EC3009001CAE4F0E59830E0205398FEAF99EF23
:100ED300B47F1290023DE0FF04F0EFD39414400A74
:100EE30075C760800590023DE4F0D007D0D0D08272
:100EF300D083D0E032C0E0C0F0C083C082C0D075E0
:100F0300D000C000C001C002C003C004C005C006B9
:100F1300C00753EFFE7F0A7E0012002620B602B2FE
:100F2300F8D007D006D005D004D003D002D001D02A
:100F330000D0D0D082D083D0F0D0E032E49002252C
:100F4300F0D2B3C2B2C2B3D2B2D2B3C2B2F0C2B35E
:100F5300E4FD7F04121005900225E025E02401F54D
:100F630082E43400F583EEF0A3EFF0D2B3900225D0
:100F7300E004F0E0C3948040D59000007401F022B7
:100F8300C2D5E830E70FB2D5E4C39BFBE49AFAE499
:100F930099F9E498F8EC30E717B2D5120FB91209B2
:100FA30051E4C39BFBE49AFAE499F9E498F88003CB
:100FB30012095130D50DE4C39FFFE49EFEE49DFD6D
:100FC300E49CFC22C0E0C0F0C083C082C0D075D0D6
:100FD30000C000C001C002C003C004C005C006C0F9
:100FE3000753EFFB120F3FD007D006D005D004D034
:100FF30003D002D001D000D0D0D082D083D0F0D0A3
:10100300E032A90553BCF0EF42BC43BC40E5BC3021
:10101300E5FB53BCDFAFBDEFFEADBEEDFFE4F5BDB9
:10102300F5BEAD01EFA805088005CEC313CE13D8D6
:10103300F9FF22EF7007ED24FF9288D2A8EFB401E5
:1010430007ED24FF928AD2AAEFB40203438F10EF75
:10105300B40303438F20EFB40403438F4022C0E063
:10106300C083C082E59A30E108539AFD9001CBE436
:10107300F0E59A30E003539AFED082D083D0E03279
:10108300C0E0C083C082E5AC30E10853ACFD900101
:10109300CCE4F0E5AC30E00353ACFED082D083D097
:1010A300E032C0E0C083C082E58430E1085384FDB0
:1010B3009001CDE4F0E58430E0035384FED082D088
:1010C30083D0E032120046120DC27D017F0212105E
:0610D3003612004980FE08
:00000001FF
