:10000000020B8B02000A53EFFE323202001A53EF4A
:10001000FD323202001253EFFB323202002253EF64
:10002000FE3232020D03900238E0FCA3E0FDED1D2C
:1000300070011C14AA044C70F5EF1F70011E144EC1
:1000400070E422020E5253EFFD32C2AF22D2AF2231
:03005300020006A2
:03005B0002000E92
:1000630002001E41023C0044023400000000420230
:0D00730038000042023A00004101F0000098
:0300830002001662
:03008B00020E74EE
:03009300020E96C4
:03009B000200461A
:1000A300020DE3020467E86480F8E933E833601182
:1000B3000460F0ED33EC337009E8FCE9FDEAFEEB94
:1000C300FF220460DED3EB9FEA9EE99DE8C2E78C42
:1000D300F0C2F795F0400CE8CCF8E9CDF9EACEFA96
:1000E300EBCFFB12043285D0F05804700320D5B354
:1000F300E80470075002B2D502047192D5EC046093
:10010300F7E4CCC0E0C398F8603B94186008400D56
:10011300D0E0FB020449E4FBFAC9FC8028E830E4A0
:1001230006E4C9FBE4CAFCE830E305E4C9CACBFC36
:10013300E854076010F8C3E913F9EA13FAEB13FB69
:10014300EC13FCD8F130F52FC3E49CFCEF9BFFEEDE
:100153009AFEED99FDD0E0FBEF4E4D4C701222DB81
:100163000302046EEC2CFCEF33FFEE33FEED33FDA4
:10017300ED30E7EB020449EF2BFFEE3AFEED39FDDC
:10018300D0E0FB50130BBB0003020471ED13FDEE33
:1001930013FEEF13FFEC13FC020449EC4D6011E86E
:1001A300497017ED33EC3304600DE4FCFFFEFD22D0
:1001B300E933E8330470F802046712043258046028
:1001C30009E4CC2481500628500902047128400315
:1001D30002046EC0E0EB4A7044B98006D0E0FB0233
:1001E300045DEF4E701CBD8008EBFFEAFEE9FD8065
:1001F300EBE98DF0A4FEE5F0020287E9CDF9EAFE12
:10020300EBFFEF89F0A4FCE5F0CE89F0A42EFFE428
:1002130035F0CD89F0A42DFEE435F08067EF4E7004
:1002230005BD80D780C3EF8BF0A4ACF0EE8BF0A4B8
:100233002CFCE435F0F8EF8AF0A42CE5F038FCE46C
:1002430033CB8DF0A42CFCE5F03BF8EE8AF0A42C24
:10025300FCE5F038F8E433CF89F0A42CFCE5F03862
:10026300CF3400CE89F0A42FFFE5F03EFEE433C97E
:100273008DF0A42EFEE5F039CD8AF0A42FFFE5F032
:100283003EFEE43DFD33D0E0FB50070BBB000F0205
:100293000471EC2CFCEF33FFEE33FEED33FD02046F
:1002A30049020471EC5D046005E85904700302041B
:1002B30067120432580460F6EC4860F2EC7004FDF7
:1002C300FEFF22C860DB2481C85009C39860025036
:1002D3000602046E9850CAF582E9294B4A7005ABB1
:1002E3008202045D75F0007C1A7880C3EF9BEE9A5E
:1002F300ED99400DC3EF9BFFEE9AFEED99FDE842A9
:10030300F0DC23ACF0D0E0FFD0E0FED0E0FDAB8228
:1003130020E7101BEB60BAEC2CFCEF33FFEE33FE4F
:10032300ED33FD020449E803F830E705C0F075F04A
:1003330000EF2FFFEE33FEED33FD40B830E7C28010
:10034300AA74F8CC6480CCC86480C8F58204604F7A
:10035300C3EB9FF5F0EA9E42F0E99D42F0E89C452D
:10036300F0603C501DE5825FFFE582D313CB5BCB8E
:10037300F42B5582FB50280ABA002409B90020083F
:10038300801DE5825BFBE582D313CF5FCFF4C313FC
:100393002F5582FF50090EBE00050DBD00010CC391
:1003A300EB9FF5F0EA9E42F0E99D42F0E89C45F0B0
:1003B3006007CC4820E701B3EC2275F020800E756E
:1003C300F010800575F0087D007E007F003392D524
:1003D30030D50312082CEC334010EF33FFEE33FE1D
:1003E300ED33FDEC33FCD5F0ED22E5F0247EA2D510
:1003F30013CC92E7CDCEFF22EDD2E7CD33EC33928F
:10040300D524814006E4FFFEFDFC22FCE4CFCECDE3
:10041300CC24E0501174FF80EDC3CC13CCCD13CDAD
:10042300CE13CECF13CF0470F030D5DE02082CE903
:10043300D2E7C933E833F892D5EDD2E7CD33EC33C5
:10044300FC5002B2D522EC30E7100FBF000C0EBEF9
:1004530000080DBD00040BEB6014A2D5EB13FCEDFB
:1004630092E7FD2274FFFCFDFEFF22E480F8A2D593
:1004730074FF13FC7D80E480EFE709F608DFFA8060
:1004830046E709F208DFFA803E88828C83E709F0A9
:10049300A3DFFA8032E309F608DFFA8078E309F292
:1004A30008DFFA807088828C83E309F0A3DFFA8087
:1004B3006489828A83E0A3F608DFFA805889828AF6
:1004C30083E0A3F208DFFA804C80D280FA80C680F2
:1004D300D4806980F28033801080A680EA809A807D
:1004E300A880DA80E280CA803389828A83ECFAE4C6
:1004F30093A3C8C582C8CCC583CCF0A3C8C582C8A2
:10050300CCC583CCDFE9DEE7800D89828A83E4935F
:10051300A3F608DFF9ECFAA9F0EDFB2289828A83BE
:10052300ECFAE0A3C8C582C8CCC583CCF0A3C8C588
:1005330082C8CCC583CCDFEADEE880DB89828A838C
:10054300E493A3F208DFF980CC88F0EF60010E4E4C
:1005530060C388F0ED2402B4040050B9F582EB24A3
:1005630002B4040050AF23234582239004CC73C20A
:10057300D530F707B2D563F0FF05F030E70CB2D5FD
:10058300F4048463F0FF05F080018430D502F404A1
:1005930022BB010689828A83E0225002E722BBFE46
:1005A30002E32289828A83E49322BB010CE5822938
:1005B300F582E5833AF583E0225006E92582F8E6E1
:1005C30022BBFE06E92582F8E222E58229F582E5CF
:1005D300833AF583E49322BB010689828A83F0225E
:1005E3005002F722BBFE01F322F8BB010DE582297D
:1005F300F582E5833AF583E8F0225006E92582C8BF
:10060300F622BBFE05E92582C8F222EF8DF0A4A8ED
:10061300F0CF8CF0A428CE8DF0A42EFE22BC000BCC
:10062300BE0029EF8DF084FFADF022E4CCF875F025
:1006330008EF2FFFEE33FEEC33FCEE9DEC98400504
:10064300FCEE9DFE0FD5F0E9E4CEFD22EDF8F5F0CA
:10065300EE8420D21CFEADF075F008EF2FFFED33D2
:10066300FD4007985006D5F0F222C398FD0FD5F050
:10067300EA22C2D5EC30E709B2D5E4C39DFDE49C80
:10068300FCEE30E715B2D5E4C39FFFE49EFE1206ED
:1006930020C3E49DFDE49CFC800312062030D507B3
:1006A300C3E49FFFE49EFE22C5F0F8A3E028F0C553
:1006B300F0F8E582158270021583E038F022A3F882
:1006C300E0C5F025F0F0E582158270021583E0C8DD
:1006D30038F0E822BB0110E58229F582E5833AF57B
:1006E30083E0F5F0A3E0225009E92582F886F008BB
:1006F300E622BBFE0AE92582F8E2F5F008E222E5EC
:10070300832AF583E993F5F0A3E99322E88FF0A414
:10071300CC8BF0A42CFCE98EF0A42CFC8AF0EDA485
:100723002CFCEA8EF0A4CDA8F08BF0A42DCC3825B8
:10073300F0FDE98FF0A42CCD35F0FCEB8EF0A4FE98
:10074300A9F0EB8FF0A4CFC5F02ECD39FEE43CFC2D
:10075300EAA42DCE35F0FDE43CFC2275F008758249
:1007630000EF2FFFEE33FECD33CDCC33CCC5823338
:10077300C5829BED9AEC99E58298400CF582EE9B3D
:10078300FEED9AFDEC99FC0FD5F0D6E4CEFBE4CD5B
:10079300FAE4CCF9A88222B800C1B90059BA002DF5
:1007A300EC8BF084CFCECDFCE5F0CBF97818EF2FAE
:1007B300FFEE33FEED33FDEC33FCEB33FB10D703DD
:1007C300994004EB99FB0FD8E5E4F9FA227818EF86
:1007D3002FFFEE33FEED33FDEC33FCC933C910D7E5
:1007E300059BE99A4007EC9BFCE99AF90FD8E0E4F2
:1007F300C9FAE4CCFB2275F010EF2FFFEE33FEEDC8
:1008030033FDCC33CCC833C810D7079BEC9AE89997
:10081300400AED9BFDEC9AFCE899F80FD5F0DAE479
:10082300CDFBE4CCFAE4C8F922C3E49FFFE49EFEC7
:10083300E49DFDE49CFC22EB9FF5F0EA9E42F0E987
:100843009D42F0EC6480C864809845F022EB9FF5EC
:10085300F0EA9E42F0E99D42F0E89C45F022E86010
:100863000FECC313FCED13FDEE13FEEF13FFD8F1F2
:1008730022BB010789828A830209695005E9F802CC
:10088300095DBBFE05E9F802097589828A830209BD
:10089300817401FF3395E0FEFDFCA3A3A3E0CF2FFA
:1008A300F0E582158270021583E0CE3EF0E58215F5
:1008B3008270021583E0CD3DF0E58215827002154A
:1008C30083E0CC3CF022ECF0A3EDF0A3EEF0A3EF39
:1008D300F022A8828583F0D083D0821208EC12081C
:1008E300EC1208EC1208ECE473E493A3C583C5F09F
:1008F300C583C8C582C8F0A3C583C5F0C583C8C571
:1009030082C822F5F0C582A4C582C5F0C583A4259B
:1009130083F58322BB010789828A8302099A5005E2
:10092300E9F8020991BBFE05E9F80209A389828A65
:10093300830209ACD083D082F8E4937012740193DC
:10094300700DA3A393F8740193F5828883E4737401
:1009530002936860EFA3A3A380DFE6FC08E6FD082B
:10096300E6FE08E6FF22E0FCA3E0FDA3E0FEA3E031
:10097300FF22E2FC08E2FD08E2FE08E2FF22E49324
:10098300FC740193FD740293FE740393FF22E6FB50
:1009930008E6FA08E6F922E0FBA3E0FAA3E0F9226D
:1009A300E2FB08E2FA08E2F922E493FB740193FA0A
:1009B300740293F922900226EFF0A3EDF0A3EBF07B
:1009C300A3E0F8A3E0F9A3E0FAA3E0FB900234E08C
:1009D300FCA3E0FDA3E0FEA3E0FF12079AE47B047F
:1009E300FAF9F812079AC3E49FFFE49EAD07FC905F
:1009F3000226E0147003020A91147003020AD4144D
:100A03007003020B2D24036003020B8A90022DE076
:100A1300FB7A00640170144398508D8BECF58D4381
:100A23008E40D28EE49001CAF08011EB64024A70CA
:100A33000B4398508DD7ECF5D6438E1553A23F90B8
:100A43000227E0F9FF7E007008A3E06401700280D2
:100A530035EF64024E700D900228E0640370054385
:100A6300A2408022E96404700D900228E0640570BE
:100A73000543A2808010E96406700B900228E064AD
:100A830007700343A2C0E49001CAF0D2AC229002E3
:100A93002DE06402700B439A108DD7ECF5D6438E8C
:100AA3001453BAFE900227E0FF7E0064087008A387
:100AB300E0640970028011EF640A4E700B90022803
:100AC300E0640B700343BA0143AF01E49001CBF040
:100AD3002290022DE0FB7A006402700D43AC108D6E
:100AE300D7ECF5D6438E148011EB64034A700B43A5
:100AF300AC508DD5ECF5D443D10A53BAFD900227FF
:100B0300E0FF7E00640C7008A3E0640D70028011A6
:100B1300EF640E4E700B900228E0640F700343BA2B
:100B23000243AF08E49001CCF02290022DE0FB7A5F
:100B3300006402700D4384108DD7ECF5D6438E14F8
:100B43008011EB64044A700B4384508DD3ECF5D2CF
:100B530043D1A053BAFB900227E0FF7E00641070DC
:100B630008A3E0641170028016EF64124E701090B7
:100B73000228E064137008F5CA75C90443BA044334
:100B8300AF10E49001CDF022787FE4F6D8FD7581B3
:100B930007020BD2020EB8E493A3F8E493A3400335
:100BA300F68001F208DFF48029E493A3F8540724C4
:100BB3000CC8C333C4540F4420C8834004F4568084
:100BC3000146F6DFE4800B01020408102040809008
:100BD3000066E47E019360BCA3FF543F30E50954F3
:100BE3001FFEE493A360010ECF54C025E060A8402C
:100BF300B8E493A3FAE493A3F8E493A3C8C582C823
:100C0300CAC583CAF0A3C8C582C8CAC583CADFE9F7
:100C1300DEE780BE43FF109002341208D500B71BF5
:100C23000075BA8090FE0374C0F090FE03E030E0DC
:100C3300F990FE01E4F090FE0004F0E4F5BA120C22
:100C430091E4F594F593F592F591F596F595F5B252
:100C5300F5B1F5B4F5B3F5CAF5C9F5CCF5CBF5E2C5
:100C6300F5E1F5DEF58EF598F59AF5ACF584F5A288
:100C7300F5BAF5AFF5899002291208D50001C20033
:100C830090022D7402F07B01E4FDFF0209B8E47BBE
:100C9300107A27F9F8900234E0FCA3E0FDA3E0FE0C
:100CA300A3E0FF12079A900238EEF0A3EFF07B4027
:100CB3007A42790F7800900234E0FCA3E0FDA3E0D0
:100CC300FEA3E0FF12079AEF24FEFFEE34FF90022B
:100CD3003AF0A3EFF07F007E1B7DB77C00900234D7
:100CE300E0F8A3E0F9A3E0FAA3E0FBD31208505025
:100CF3000E90023BE004F0700690023AE004F0220A
:100D0300C0E0C083C082C0D075D000C007E5983072
:100D1300E1085398FD9001CAE4F0E59830E02553CB
:100D230098FEAF99EF647F701690023DE0FF04F0E8
:100D3300D3EF941474809480400A75C76080059043
:100D4300023DE4F0D007D0D0D082D083D0E032E4AB
:100D5300900225F0D2B3C2B2C2B3D2B2D2B3C2B2FE
:100D6300F0900225E0C39480748094805027C2B32E
:100D7300E4FD7F04120E21900225E025E02401F515
:100D830082E43400F583EEF0A3EFF0D2B3900225B2
:100D9300E004F080CC9000007401F022C2D5E8306A
:100DA300E70FB2D5E4C39BFBE49AFAE499F9E4981C
:100DB300F8EC30E717B2D5120DD512079AE4C39BAE
:100DC300FBE49AFAE499F9E498F8800312079A305D
:100DD300D50DE4C39FFFE49EFEE49DFDE49CFC224D
:100DE300C0E0C0F0C083C082C0D075D000C000C0D6
:100DF30001C002C003C004C005C006C00753EFFB17
:100E0300120D52D007D006D005D004D003D002D0A3
:100E130001D000D0D0D082D083D0F0D0E032A90569
:100E230053BCF0EF42BC43BC40E5BC30E5FB53BCD4
:100E3300DFAFBDEFFEADBEEDFFE4F5BDF5BEAD0129
:100E4300EFA805088005CEC313CE13D8F9FF22C03F
:100E5300E0C083C082E59A30E108539AFD9001CB4C
:100E6300E4F0E59A30E003539AFED082D083D0E0D9
:100E730032C0E0C083C082E5AC30E10853ACFD90E2
:100E830001CCE4F0E5AC30E00353ACFED082D08378
:100E9300D0E032C0E0C083C082E58430E1085384EF
:100EA300FD9001CDE4F0E58430E0035384FED0826D
:100EB300D083D0E03212004A120C17439202D2912F
:100EC3007FC87E00120026C29112004D7F647E000F
:070ED300120026B2F880F5C1
:00000001FF
