:10000000021A2D02000A53EFFE323202001A53EF99
:10001000FD323202001253EFFB323202002253EF64
:10002000FE3232021C24900249E0FCA3E0FDED1DEB
:1000300070011C14AA044C70F5EF1F70011E144EC1
:1000400070E422021E4A696E6974207375636365E9
:0A00500073730002000653EFFD3247
:06005B0002000EC2AF22FC
:1000630002001E41024D004402450000000042020E
:1000730049000042024B00004101F00000D2AF22D0
:0300830002001662
:03008B00021E6CE6
:03009300021E8EBC
:03009B000200560A
:1000A300021D3802046CE86480F8E933E833601118
:1000B3000460F0ED33EC337009E8FCE9FDEAFEEB94
:1000C300FF220460DED3EB9FEA9EE99DE8C2E78C42
:1000D300F0C2F795F0400CE8CCF8E9CDF9EACEFA96
:1000E300EBCFFB12043785D0F05804700320D5B34F
:1000F300E80470075002B2D502047692D5EC04608E
:10010300F7E4CCC0E0C398F8603B94186008400D56
:10011300D0E0FB02044EE4FBFAC9FC8028E830E49B
:1001230006E4C9FBE4CAFCE830E305E4C9CACBFC36
:10013300E854076010F8C3E913F9EA13FAEB13FB69
:10014300EC13FCD8F130F52FC3E49CFCEF9BFFEEDE
:100153009AFEED99FDD0E0FBEF4E4D4C701222DB81
:1001630003020473EC2CFCEF33FFEE33FEED33FD9F
:10017300ED30E7EB02044EEF2BFFEE3AFEED39FDD7
:10018300D0E0FB50130BBB0003020476ED13FDEE2E
:1001930013FEEF13FFEC13FC02044EEC4D6011E869
:1001A300497017ED33EC3304600DE4FCFFFEFD22D0
:1001B300E933E8330470F802046C1204375804601E
:1001C30009E4CC2481500628500902047628400310
:1001D300020473C0E0EB4A7044B98006D0E0FB022E
:1001E3000462EF4E701CBD8008EBFFEAFEE9FD8060
:1001F300EBE98DF0A4FEE5F0020287E9CDF9EAFE12
:10020300EBFFEF89F0A4FCE5F0CE89F0A42EFFE428
:1002130035F0CD89F0A42DFEE435F08067EF4E7004
:1002230005BD80D780C3EF8BF0A4ACF0EE8BF0A4B8
:100233002CFCE435F0F8EF8AF0A42CE5F038FCE46C
:1002430033CB8DF0A42CFCE5F03BF8EE8AF0A42C24
:10025300FCE5F038F8E433CF89F0A42CFCE5F03862
:10026300CF3400CE89F0A42FFFE5F03EFEE433C97E
:100273008DF0A42EFEE5F039CD8AF0A42FFFE5F032
:100283003EFEE43DFD33D0E0FB50070BBB000F0205
:100293000476EC2CFCEF33FFEE33FEED33FD02046A
:1002A3004E020476EC5D046005E859047003020411
:1002B3006C120437580460F6EC4860F2EC7004FDED
:1002C300FEFF22C860DB2481C85009C39860025036
:1002D300060204739850CAF582E9294B4A7005ABAC
:1002E3008202046275F0007C1A7880C3EF9BEE9A59
:1002F300ED99400DC3EF9BFFEE9AFEED99FDE842A9
:10030300F0DC23ACF0D0E0FFD0E0FED0E0FDAB8228
:1003130020E7101BEB60BAEC2CFCEF33FFEE33FE4F
:10032300ED33FD02044EE803F830E705C0F075F045
:1003330000EF2FFFEE33FEED33FD40B830E7C28010
:10034300AA74F8CC6480CCC86480C8F58204604386
:10035300C3EB9FF5F0EA9E42F0E99D42F0E89C452D
:10036300F060305018E5825FFFE582F42B5582FB85
:1003730050210ABA001D09B90019088016E5825BED
:10038300FBE582F42F5582FF50090EBE00050DBD1B
:1003930000010CC3EB9FF5F0EA9E42F0E99D42F0A9
:1003A300E89C45F06007CC4820E701B3EC22ED332D
:1003B300EC33600A047003BD8004ECB2E7FC2275E1
:1003C300F020800E75F010800575F0087D007E002A
:1003D3007F003392D530D5031209E3EC334010EF9D
:1003E30033FFEE33FEED33FDEC33FCD5F0ED22E5C8
:1003F300F0247EA2D513CC92E7CDCEFF22EDD2E737
:10040300CD33EC3392D524814006E4FFFEFDFC227C
:10041300FCE4CFCECDCC24E0501174FF80EDC3CCEF
:1004230013CCCD13CDCE13CECF13CF0470F030D574
:10043300DE0209E3E9D2E7C933E833F892D5EDD216
:10044300E7CD33EC33FC5002B2D522EC30E7100F8A
:10045300BF000C0EBE00080DBD00040BEB6014A220
:10046300D5EB13FCED92E7FD2274FFFCFDFEFF22AA
:10047300E480F8A2D574FF13FC7D80E480EFF920BB
:10048300E73624F950037907E4F42402FBE58215E7
:100493008270021583DBF6E024FB501BE96014E451
:1004A300F0E582158270021583E004F0B40A08E4D3
:1004B300F0D9EE7401F00A22C2D522ED33EC339267
:1004C300D5FA602AB4FF33EDC2E77BFF60067A04F6
:1004D30079E3E4227A0479EC20D5047A0479E722DB
:1004E3004E614E002B494E46002D494E4600E47A9C
:1004F30008F0A3DAFC7B00740722C083C082ECC03F
:10050300E0EDC0E0EEC0E0EFC0E0EA75F010A4CA91
:10051300ABF075F04DA42BFBE435F0FCEA2410FAA4
:10052300EB34C5FBEC34D9FCEDC2E7FF75F056A400
:10053300F42411C5F0F434C58FF0A42AE5F03BE4AC
:100543003CF020E7141205F3D0E0FFD0E0FED0E04A
:10055300FDD0E0FC1202A78014F4041205F3D0E0EE
:10056300FFD0E0FED0E0FDD0E0FC12019ED082D0AF
:1005730083E0FAEDD2E7CD33EC332482FBE4C3CF3F
:1005830033CFCE33CECD33CD33DBF37B0775F00AD8
:10059300846004F0A31B0AE5F0F0A38FF0740AA4AF
:1005A300FFACF08EF0740AA42CFEACF050010C8D5D
:1005B300F0740AA42CFDE435F0F0A3DBDE7407220B
:1005C3003F8000004120000042C80000447A000040
:1005D300461C400047C35000497424004B189680C2
:1005E3004CBEBC205A0E1BCA6753C21C749DC5AEB9
:1005F300FB60065407601C2323120621EB5438606A
:100603000912060D12061C12019EECF8EDF9EEFA22
:10061300EFCB22EB12061C80F1543803241C900507
:10062300C3FE93FC0EEE93FD0EEE930ECE93FF22CC
:10063300E709F608DFFA8046E709F208DFFA803EA9
:1006430088828C83E709F0A3DFFA8032E309F60896
:10065300DFFA8078E309F208DFFA807088828C83FE
:10066300E309F0A3DFFA806489828A83E0A3F608B2
:10067300DFFA805889828A83E0A3F208DFFA804C8C
:1006830080D280FA80C680D4806980F28033801063
:1006930080A680EA809A80A880DA80E280CA8033CC
:1006A30089828A83ECFAE493A3C8C582C8CCC58344
:1006B300CCF0A3C8C582C8CCC583CCDFE9DEE78014
:1006C3000D89828A83E493A3F608DFF9ECFAA9F093
:1006D300EDFB2289828A83ECFAE0A3C8C582C8CCE9
:1006E300C583CCF0A3C8C582C8CCC583CCDFEADE02
:1006F300E880DB89828A83E493A3F208DFF980CC64
:1007030088F0EF60010E4E60C388F0ED2402B4045C
:100713000050B9F582EB2402B4040050AF23234503
:10072300822390068373C2D530F707B2D563F0FFF7
:1007330005F030E70CB2D5F4048463F0FF05F080D4
:10074300018430D502F40422BB010689828A83E046
:10075300225002E722BBFE02E32289828A83E493CA
:1007630022BB010CE58229F582E5833AF583E02279
:100773005006E92582F8E622BBFE06E92582F8E267
:1007830022E58229F582E5833AF583E49322BB01CE
:100793000689828A83F0225002F722BBFE01F322EC
:1007A300F8BB010DE58229F582E5833AF583E8F08C
:1007B300225006E92582C8F622BBFE05E92582C838
:1007C300F222EF8DF0A4A8F0CF8CF0A428CE8DF008
:1007D300A42EFE22BC000BBE0029EF8DF084FFADDA
:1007E300F022E4CCF875F008EF2FFFEE33FEEC3384
:1007F300FCEE9DEC984005FCEE9DFE0FD5F0E9E480
:10080300CEFD22EDF8F5F0EE8420D21CFEADF0759E
:10081300F008EF2FFFED33FD4007985006D5F0F2B7
:1008230022C398FD0FD5F0EA22C2D5EC30E709B216
:10083300D5E4C39DFDE49CFCEE30E715B2D5E4C3DB
:100843009FFFE49EFE1207D7C3E49DFDE49CFC805A
:10085300031207D730D507C3E49FFFE49EFE22C5EA
:10086300F0F8A3E028F0C5F0F8E5821582700215D0
:1008730083E038F022A3F8E0C5F025F0F0E5821517
:100883008270021583E0C838F0E822BB0110E582CC
:1008930029F582E5833AF583E0F5F0A3E0225009D8
:1008A300E92582F886F008E622BBFE0AE92582F8EC
:1008B300E2F5F008E222E5832AF583E993F5F0A354
:1008C300E99322E88FF0A4CC8BF0A42CFCE98EF002
:1008D300A42CFC8AF0EDA42CFCEA8EF0A4CDA8F0A5
:1008E3008BF0A42DCC3825F0FDE98FF0A42CCD3569
:1008F300F0FCEB8EF0A4FEA9F0EB8FF0A4CFC5F0D3
:100903002ECD39FEE43CFCEAA42DCE35F0FDE43CCB
:10091300FC2275F008758200EF2FFFEE33FECD3316
:10092300CDCC33CCC58233C5829BED9AEC99E5825D
:1009330098400CF582EE9BFEED9AFDEC99FC0FD5E9
:10094300F0D6E4CEFBE4CDFAE4CCF9A88222B800D9
:10095300C1B90059BA002DEC8BF084CFCECDFCE5A4
:10096300F0CBF97818EF2FFFEE33FEED33FDEC33C8
:10097300FCEB33FB10D703994004EB99FB0FD8E54D
:10098300E4F9FA227818EF2FFFEE33FEED33FDEC96
:1009930033FCC933C910D7059BE99A4007EC9BFC8C
:1009A300E99AF90FD8E0E4C9FAE4CCFB2275F01018
:1009B300EF2FFFEE33FEED33FDCC33CCC833C8103D
:1009C300D7079BEC9AE899400AED9BFDEC9AFCE86B
:1009D30099F80FD5F0DAE4CDFBE4CCFAE4C8F922B8
:1009E300C3E49FFFE49EFEE49DFDE49CFC22EB9F99
:1009F300F5F0EA9E42F0E99D42F0EC6480C8648021
:100A03009845F022EB9FF5F0EA9E42F0E99D42F013
:100A1300E89C45F022E8600FECC313FCED13FDEEF8
:100A230013FEEF13FFD8F122BB010789828A8302E9
:100A33000B405005E9F8020B34BBFE05E9F8020B45
:100A43004C89828A83020B587401FF3395E0FEFDC3
:100A5300FCA3A3A3E0CF2FF0E582158270021583D8
:100A6300E0CE3EF0E582158270021583E0CD3DF0C5
:100A7300E582158270021583E0CC3CF022ECF0A3F2
:100A8300EDF0A3EEF0A3EFF022A8828583F0D083EC
:100A9300D082120AA3120AA3120AA3120AA3E473AE
:100AA300E493A3C583C5F0C583C8C582C8F0A3C5B5
:100AB30083C5F0C583C8C582C822F5F0C582A4C525
:100AC30082C5F0C583A42583F58322F8E0FBA3A3A5
:100AD300E0F925F0F0E582158270021583E0FA381B
:100AE300F022EBF0A3EAF0A3E9F022BB010789822D
:100AF3008A83020B715005E9F8020B68BBFE05E916
:100B0300F8020B7A89828A83020B83D083D082F81E
:100B1300E4937012740193700DA3A393F87401937B
:100B2300F5828883E4737402936860EFA3A3A380C0
:100B3300DFE6FC08E6FD08E6FE08E6FF22E0FCA38C
:100B4300E0FDA3E0FEA3E0FF22E2FC08E2FD08E2F1
:100B5300FE08E2FF22E493FC740193FD740293FE0A
:100B6300740393FF22E6FB08E6FA08E6F922E0FBAA
:100B7300A3E0FAA3E0F922E2FB08E2FA08E2F92291
:100B8300E493FB740193FA740293F922ED60030278
:100B93000C66EF54F0FE7014EF540FFC7401A804BC
:100BA300088002C333D8FCF452935294BE1014EF5E
:100BB300540FFE7401A806088002C333D8FCF45214
:100BC300915292EF54F0FEBE2014EF540FFE7401C5
:100BD300A806088002C333D8FCF452955296EF540A
:100BE300F0FEBE3014EF540FFC7401A80408800219
:100BF300C333D8FCF452B152B2BE4014EF540FFECB
:100C03007401A806088002C333D8FCF452B352B46B
:100C1300EF54F0FEBE5014EF540FFE7401A8060803
:100C23008002C333D8FCF452C952CAEF54F0FEBE5B
:100C33006014EF540FFC7401A804088002C333D876
:100C4300FCF452CB52CCEE64706003020F12EF54EB
:100C53000FFE7401A806088002C333D8FCF452E1E6
:100C630052E222ED64016003020D4EEF54F0FE7078
:100C730016EF540FFC7401A804088002C333D8FC98
:100C8300FCF45293EC4294BE1016EF540FFE740121
:100C9300A806088002C333D8FCFEF45291EE4292B8
:100CA300EF54F0FEBE2016EF540FFE7401A80608A1
:100CB3008002C333D8FCFEF45295EE4296EF54F013
:100CC300FEBE3016EF540FFC7401A804088002C363
:100CD30033D8FCFCF452B1EC42B2BE4016EF540FD1
:100CE300FE7401A806088002C333D8FCFEF452B395
:100CF300EE42B4EF54F0FEBE5016EF540FFE7401F3
:100D0300A806088002C333D8FCFEF452C9EE42CAD7
:100D1300EF54F0FEBE6016EF540FFC7401A80408F4
:100D23008002C333D8FCFCF452CBEC42CCEE6470AB
:100D33006003020F12EF540FFE7401A8060880022D
:100D4300C333D8FCFEF452E1020F0FED64026003DB
:100D5300020E37EF54F0FE7016EF540FFC7401A827
:100D630004088002C333D8FCFC4293ECF45294BED3
:100D73001016EF540FFE7401A806088002C333D87F
:100D8300FCFE4291EEF45292EF54F0FEBE2016EFB9
:100D9300540FFE7401A806088002C333D8FCFE4238
:100DA30095EEF45296EF54F0FEBE3016EF540FFC5E
:100DB3007401A804088002C333D8FCFC42B1ECF4EC
:100DC30052B2BE4016EF540FFE7401A8060880020B
:100DD300C333D8FCFE42B3EEF452B4EF54F0FEBE7C
:100DE3005016EF540FFE7401A806088002C333D8CF
:100DF300FCFE42C9EEF452CAEF54F0FEBE6016EF99
:100E0300540FFC7401A804088002C333D8FCFC42CD
:100E1300CBECF452CCEE64706003020F12EF540F6C
:100E2300FE7401A806088002C333D8FCFE42E1EE3B
:100E3300F452E222ED64036003020F12EF54F0FE5A
:100E43007015EF540FFD7401A805088002C333D851
:100E5300FCFD4293ED4294BE1015EF540FFE740156
:100E6300A806088002C333D8FCFE4291EE4292EFFB
:100E730054F0FEBE2015EF540FFE7401A80608803F
:100E830002C333D8FCFE4295EE4296EF54F0FEBE09
:100E93003015EF540FFD7401A805088002C333D841
:100EA300FCFD42B1ED42B2BE4015EF540FFE74019A
:100EB300A806088002C333D8FCFE42B3EE42B4EF67
:100EC30054F0FEBE5015EF540FFE7401A8060880BF
:100ED30002C333D8FCFE42C9EE42CAEF54F0FEBE51
:100EE3006015EF540FFD7401A805088002C333D8C1
:100EF300FCFD42CBED42CCBE7015EF540FFE7401E6
:100F0300A806088002C333D8FCFE42E1EE42E22287
:100F130012005E121B38900205120A8C0000003288
:100F2300E4900209F0A3F07F6112122E90020512E1
:100F33000A8C000001F49002097417F0A37470F096
:100F43007F0212122E900205120A8C000001F49007
:100F530002097417F0A37470F07F1212122E90021C
:100F630005120A8C000001F49002097417F0A374AF
:100F730070F07F2212122E900205120A8C000001DB
:100F8300F49002097417F0A37470F07F3212122EDA
:100F9300900205120A8C000001F4900209740BF010
:100FA300A374B8F07F0312122E900205120A8C006C
:100FB3000001F4900209740BF0A374B8F07F1312CC
:100FC300122E900205120A8C000001F4900209749B
:100FD3000BF0A374B8F07F2312122E900205120AAD
:100FE3008C000001F4900209740BF0A374B8F07F35
:100FF3003312122E9002357413F0A37488F0A37485
:1010030013F0A37488F0A37413F0A37488F0A3748B
:1010130013F0A37488F0A37403F0A37420F0900278
:1010230035E0FCA3E0FD7F021217FF900237E0FCDE
:10103300A3E0FD7F121217FF900239E0FCA3E0FD4D
:101043007F221217FF90023BE0FCA3E0FD7F3212E8
:1010530017FF90023DE0FCA3E0FD7F611217FF1232
:1010630019877BFF7A007946E4FDFF121AB9121E35
:1010730025120080900235E0FAA3E0FB7D04E4FF33
:101083001218D2900237E0FAA3E0FB7D05E4FF12C9
:1010930018D2900239E0FAA3E0FB7D06E4FF1218B0
:1010A300D290023BE0FAA3E0FB7D07E4FF1218D2E3
:1010B30090023DE0FAA3E0FB7D077F401218D212B5
:1010C3001CF6EF24FE605314700302115F147003C7
:1010D3000211A52403709D900235E0B41F21A3E003
:1010E300B4401C9002357407F0A374D0F07D887C63
:1010F300137F021217FF7FC87E00120026800E9016
:101103000236E02464F0900235E03400F0900235BA
:10111300E0FCA3E0FD7F0202119F900237E0B41FC1
:1011230021A3E0B4401C9002377407F0A374D0F0FD
:101133007D887C137F121217FF7FC87E0012002662
:10114300800E900238E02464F0900237E03400F01F
:10115300900237E0FCA3E0FD7F128040900239E06B
:10116300B41F21A3E0B4401C9002397407F0A374A8
:10117300D0F07D887C137F221217FF7FC87E001278
:101183000026800E90023AE024E8F0900239E03421
:1011930003F0900239E0FCA3E0FD7F221217FF0267
:1011A300107790023BE0B41F21A3E0B4401C9002EF
:1011B3003B7407F0A374D0F07D887C137F32121741
:1011C300FF7FC87E00120026800E90023CE024E8D8
:1011D300F090023BE03403F090023BE0FCA3E0FD1F
:1011E3007F321217FF90023DE0B40321A3E0B484E1
:1011F3001C90023D7402F0A374BCF07D207C037F3D
:10120300611217FF7FC87E00120026800E90023EF7
:10121300E02419F090023DE03400F090023DE0FC40
:10122300A3E0FD7F611217FF021077900204EFF035
:10123300E490020DF0A3F043BA80900204E0FF12A1
:10124300166E900205E0F8A3E0F9A3E0FAA3E0FB31
:10125300900245E0FCA3E0FDA3E0FEA3E0FF12093A
:10126300517810120A1890020DEEF0A3EFF09002DD
:1012730005E0F8A3E0F9A3E0FAA3E0FB900245E060
:10128300FCA3E0FDA3E0FEA3E0FF120951C006C0EA
:101293000790020EE02401FF90020DE03400AB073B
:1012A300FAE4F9F8D007D006120951EF24FFFFEE54
:1012B30034FF90020BF0A3EFF0900209E0FCA3E0EF
:1012C300FDE41203C77B007A40791C78461202A71B
:1012D300C004C005C006C00790020BE0FCA3E0FDFC
:1012E300E41203C7D003D002D001D00012019E1232
:1012F3000400AD07AC06900204E0FF7440D39F40A6
:10130300030213D690FEB5C083C082E0FF900204AF
:10131300E0FEC4540F24FCF925E0FB7401A8030884
:101323008002C333D8FC4FD082D083F090FEB6C086
:1013330083C082E0FFEE5403FEA803088002C33398
:10134300D8FC4FD082D083F0E9C31324ECFFE434FC
:10135300FE8F82F583C083C082E0FF900204E0F930
:10136300C4540FFE540125E025E0FB7401A80308D3
:101373008002C333D8FC4FD082D083F0EE24E4FF45
:10138300E434FE8F82F583E04460F0E04408F0909B
:10139300020BE0FFA3E090FEF2CFF0A3EFF0900288
:1013A3000DE0FFA3E090FEF0CFF0A3EFF0E9C4540B
:1013B3000F25E0FFE433FEEF24EDFFEE34FE8F82D2
:1013C300F583ECF0A3EDF090FEFD7480F090FEE069
:1013D3000214C390FEB1C083C082E0FB900204E01C
:1013E300FA5401F974017E00A801088005C333CEC5
:1013F30033CED8F9FFEAC4540F25E0FAEFA8020868
:101403008005C333CE33CED8F94BD082D083F0904E
:10141300FEB2C083C082E0FF900204E05407C3130E
:10142300FEA802088002C333D8FC4FD082D083F0D9
:10143300900204E0FFC413540724CCFBE434FE8B76
:1014430082F583C083C082E0FEEFC4540FFF5401D2
:1014530025E025E0FBE925E02BFB7401A8030880C8
:1014630002C333D8FC4ED082D083F0EF24C8FFE40C
:1014730034FE8F82F583E04460F0E04408F090028C
:101483000BE0FFA3E090FED2CFF0A3EFF090020DAC
:10149300E0FFA3E090FED0CFF0A3EFF0900204E0D2
:1014A300C4540F75F002A424D5FFE5F034FE8F82F7
:1014B300F583ECF0A3EDF090FEDD7480F090FEC0B8
:1014C3007401F022900204EFF0A3EDF0A3EBF0A37C
:1014D300E0F8A3E0F9A3E0FAA3E0FB900245E0FC07
:1014E300A3E0FDA3E0FEA3E0FF120951E47B04FAAD
:1014F300F9F8120951C3E49FFFE49EAD07FC900283
:1015030004E01470030215931470030215CE1470D3
:101513000302161B2403600302166D90020BE0FB0B
:10152300640170144398508D8BECF58D438E40D23B
:101533008EE49001CAF0800FEBB4020B4398508DF8
:10154300D7ECF5D6438E1553A23F900205E0FF700A
:1015530007A3E0B401028030EFB4020C900206E06E
:10156300B4030543A2408020900205E0B4040AA31B
:10157300E0B4050543A280800F900205E0B406089D
:10158300A3E0B4070343A2C0E49001CAF0D2AC22A3
:1015930090020BE0B4020B439A108DD7ECF5D643BF
:1015A3008E1453BAFE900205E0FFB40807A3E0B41B
:1015B3000902800EEFB40A0A900206E0B40B03435B
:1015C300BA0143AF01E49001CBF02290020BE0FBA0
:1015D300B4020D43AC108DD7ECF5D6438E14800FB7
:1015E300EBB4030B43AC508DD5ECF5D443D10A5384
:1015F300BAFD900205E0FFB40C07A3E0B40D02802E
:101603000EEFB40E0A900206E0B40F0343BA02438E
:10161300AF08E49001CCF02290020BE0FBB4020D82
:101623004384108DD7ECF5D6438E14800FEBB404AE
:101633000B4384508DD3ECF5D243D1A053BAFB9026
:101643000205E0FFB41007A3E0B411028014EFB465
:101653001210900206E0B41309E4F5CA75C90443F5
:10166300BA0443AF10E49001CDF022EF120B0E1633
:10167300F40016FB011702021709031710041717CA
:1016830005171E10172511172C12173313173A14A9
:10169300174115174820174F21175622175D231797
:1016A3006424176B25177230177931177F3217852A
:1016B30033178B34179135179736179D3717A34078
:1016C30017A94117AF4217B54317BB5017C151179D
:1016D300C75217CD5317D36017D96117DF6217E5C8
:1016E3006317EB7017977117F17217F773000017F1
:1016F300FE7D017F100217FB7D017F110217FB7D29
:10170300017F200217FB7D017F210217FB7D017FF3
:10171300600217FB7D017F610217FB7D017F1202CF
:1017230017FB7D017F130217FB7D017F220217FB4D
:101733007D017F230217FB7D017F620217FB7D0181
:101743007F630217FB7D017F140217FB7D017F1569
:101753000217FB7D017F240217FB7D017F25021702
:10176300FB7D017F640217FB7D017F650217FB7D13
:10177300017F160217FB7D017F17807C7D017F2689
:1017830080767D017F2780707D017F66806A7D0181
:101793007F6780647D017F34805E7D017F33805865
:1017A3007D017F2080527D017F17804C7D01E4FF06
:1017B30080467D017F7480407D017F21803A7D01D9
:1017C3007F5480347D017F01802E7D017F758028C9
:1017D3007D017F2280227D017F33801C7D017F027A
:1017E30080167D017F7680107D017F23800A7D0135
:1017F3007F0380047D017F77120B8F22900205EC1B
:10180300F0A3EDF0900204EFF07440D39F505BA37C
:10181300E0FCA3E0FDE41203C77B007A40791C7867
:10182300461202A7C004C005C006C00790FEF2E03E
:10183300FCA3E0FDE41203C7D003D002D001D00023
:1018430012019E120400900207EEF0A3EFF0900243
:1018530007E0FCA3E0FD900204E0C4540F25E0FF81
:10186300E433FEEF24EDFFEE8059900205E0FCA384
:10187300E0FDE41203C77B007A40791C784612022C
:10188300A7C004C005C006C00790FED2E0FCA3E0D9
:10189300FDE41203C7D003D002D001D00012019E91
:1018A300120400900207EEF0A3EFF0900207E0FCB1
:1018B300A3E0FD900204E0C4540F75F002A424D504
:1018C300FFE5F034FE8F82F583ECF0A3EDF0229078
:1018D3000204EFF0A3EDF0E490020BF0FC7D0AAFFD
:1018E30003AE021207D7ED243090020AF07C007D8C
:1018F3000AAF03AE021207D77C007D0A1207D7EDA9
:101903002430900209F07C007D64AF03AE0212071D
:10191300D77C007D0A1207D7ED2430900208F07CB3
:10192300037DE8AF03AE021207D77C007D0A1207DE
:10193300D7ED2430900207F0AE02AF037C277D1071
:101943001207D77C007D0A1207D7ED2430900206D8
:10195300F0E4FF74062FF582E43402F583E0B4303B
:101963001274062FF582E43402F5837420F00FEF2E
:10197300B404E0900204E0FFA3E0FD7B017A027966
:1019830006021AB9D2C7D2FCC2FE7F327E00120011
:1019930026D2FE7FAE121DAFE4FF121DAF7F1012E1
:1019A3001DAF7F40121DAF7F81121DAF7F7F121DC0
:1019B300AF7FA1121DAF7FC8121DAF7FA6121DAF4F
:1019C3007FA8121DAF7F3F121DAF7FD3121DAFE45F
:1019D300FF121DAF7FD5121DAF7F80121DAF7FD9C0
:1019E300121DAF7FF1121DAF7FDA121DAF7F1212EE
:1019F3001DAF7FDB121DAF7F40121DAF7F20121D75
:101A0300AF7F02121DAF7F8D121DAF7F14121DAF6A
:101A13007FA4121DAF7FA6121DAF7FAF121DAFE4CF
:101A2300FF121DFEE4FDFF021EB5787FE4F6D8FD2C
:101A3300758107021A74020F13E493A3F8E493A3C6
:101A43004003F68001F208DFF48029E493A3F854FD
:101A530007240CC8C333C4540F4420C8834004F480
:101A630056800146F6DFE4800B0102040810204093
:101A730080900066E47E019360BCA3FF543F30E591
:101A830009541FFEE493A360010ECF54C025E06008
:101A9300A840B8E493A3FAE493A3F8E493A3C8C5D6
:101AA30082C8CAC583CAF0A3C8C582C8CAC583CAC7
:101AB300DFE9DEE780BE90020CEFF0A3EDF0A3EBCD
:101AC300F0A3EAF0A3E9F0E4A3F0FCA3F090020E84
:101AD300E0FBA3E0FAA3E0F9900212E0F58275833C
:101AE30000120764604E24E0900211F090020CE0B3
:101AF300D3947E4006E4F0A3E004F090020C121E9F
:101B0300B0E4FC900211E075F006A424B9F582E577
:101B1300F03424F583E5822CF582E43583121DD459
:101B23000CECB406DE90020CE02406F0900212E006
:101B330004F080992243FF10900245120A8C00B7EB
:101B43001B0075BA8090FE0374C0F090FE03E03072
:101B5300E0F990FE01E4F090FE0004F0E4F5BA121F
:101B63001BB2E4F594F593F592F591F596F595F599
:101B7300B2F5B1F5B4F5B3F5CAF5C9F5CCF5CBF5C6
:101B8300E2F5E1F5DEF58EF598F59AF5ACF584F519
:101B9300A2F5BAF5AFF589900207120A8C0001C2CB
:101BA3000090020B7402F07B01E4FDFF0214C7E412
:101BB3007B107A27F9F8900245E0FCA3E0FDA3E04F
:101BC300FEA3E0FF120951900249EEF0A3EFF07B70
:101BD300407A42790F7800900245E0FCA3E0FDA330
:101BE300E0FEA3E0FF120951EF24FEFFEE34FF9065
:101BF300024BF0A3EFF07F007E1B7DB77C009002C9
:101C030045E0F8A3E0F9A3E0FAA3E0FBD3120A0747
:101C1300500E90024CE004F0700690024BE004F08A
:101C230022C0E0C083C082C0D075D000C007E59851
:101C330030E1085398FD9001CAE4F0E59830E020C4
:101C43005398FEAF99EFB47F1290024EE0FF04F079
:101C5300EFD39414400A75C760800590024EE4F0F8
:101C6300D007D0D0D082D083D0E032E4900203F00A
:101C7300D2B3C2B2C2B3D2B2D2B3C2B2F0C2B3E42D
:101C8300FD7F04121D76900203E025E02401F58216
:101C9300E43400F583EEF0A3EFF0D2B3900203E057
:101CA30004F0E0C3948040D59000007401F022C298
:101CB300D5E830E70FB2D5E4C39BFBE49AFAE49985
:101CC300F9E498F8EC30E717B2D5121CE812095181
:101CD300E4C39BFBE49AFAE499F9E498F8800312CD
:101CE300095130D50DE4C39FFFE49EFEE49DFDE45E
:101CF3009CFC2230B40930B50630B60320B7337FDD
:101D03000A7E0012002620B40830B4FDB2F87F0129
:101D13002220B50830B5FDB2F97F022220B6083083
:101D2300B6FDB2FA7F032220B70830B7FDB2FB7FBE
:101D330004227F0022C0E0C0F0C083C082C0D075FF
:101D4300D000C000C001C002C003C004C005C0066B
:101D5300C00753EFFB121C6ED007D006D005D0048A
:101D6300D003D002D001D000D0D0D082D083D0F025
:101D7300D0E032A90553BCF0EF42BC43BC40E5BC04
:101D830030E5FB53BCDFAFBDEFFEADBEEDFFE4F5C9
:101D9300BDF5BEAD01EFA805088005CEC313CE1374
:101DA300D8F9FF2254F0C4540F4410FF7E08C2C771
:101DB300C2FFC2FCAD061EED6014EF30E704D2FD96
:101DC3008002C2FDD2FCC2FCEF25E0FF80E6D2C751
:101DD30022F583E493FF7E08C2C7D2FFC2FCAD069F
:101DE3001EED6014EF30E704D2FD8002C2FDD2FC89
:101DF300C2FCEF25E0FF80E6D2C722AC07E4FBEB91
:101E030024B0FF121DAFE4FF121DAF7F10121DAFF0
:101E1300E4FAAF04121DD90AEAB480F60BEBB40856
:101E2300DE22E4FCEC24B0FF121DAF7F01121DAFD4
:101E33007F10121DAFE4FBE4FF121DD90BEBB4803E
:101E4300F60CECB408DE22C0E0C083C082E59A3011
:101E5300E108539AFD9001CBE4F0E59A30E0035397
:101E63009AFED082D083D0E032C0E0C083C082E546
:101E7300AC30E10853ACFD9001CCE4F0E5AC30E0CC
:101E83000353ACFED082D083D0E032C0E0C083C025
:101E930082E58430E1085384FD9001CDE4F0E584CC
:101EA30030E0035384FED082D083D0E032E0FFA33E
:101EB300E0FDAC07ED24B0FF121DAFEC121DA7EC43
:101EC300540FFF021DAF00000000000000000000DF
:101ED30000000000000000000008080808080808C7
:101EE300000008080000004824241200000000003D
:101EF3000000000000000000004848487E2424241D
:101F03007E24242400000000103C5252121C305046
:101F13005052523C1010000000222515150D2A586E
:101F23005454522200000000000C1212120A7625AB
:101F33002919916E0000000604040200000000004D
:101F430000000000000000402010100808080808E6
:101F53000810102040000002040808101010101090
:101F63001008080402000000000008086B1C1C6B2A
:101F73000808000000000000000000101010FE1010
:101F8300101000000000000000000000000000002E
:101F930000000604040200000000000000007E00B0
:101FA300000000000000000000000000000000002E
:101FB3000000060600000000402020201010080842
:101FC3000804040202000000001824424242424274
:101FD300424224180000000000101C1010101010C2
:101FE3001010107C00000000003C424242402010D0
:101FF3000804427E00000000003C424240201820BA
:102003004042423C000000000020303028242422BB
:10201300FE2020F800000000007E0202021E224083
:102023004042221C0000000000182402023A4642EB
:102033004242443800000000007E42202010100875
:102043000808080800000000003C4242422418240B
:102053004242423C00000000001C22424242625CB9
:102063004040241800000000000000001818000081
:102073000000181800000000000000000008000025
:1020830000000008080800000040201008040204B3
:102093000810204000000000000000007E00007EC9
:1020A300000000000000000000020408102040208F
:1020B3001008040200000000003C424246201010B9
:1020C3001000181800000000001C225A55555555E1
:1020D300553A423C00000000000808181414243C40
:1020E300224242E700000000001F2222221E224259
:1020F3004242221F00000000007C42420101010114
:102103000142221C00000000001F224242424242C0
:102113004242221F00000000003F4212121E121210
:102123000242423F00000000003F4212121E121200
:102133000202020700000000003C2222010101719B
:102143002122221C0000000000E7424242427E425C
:10215300424242E700000000003E08080808080861
:102163000808083E00000000007C1010101010103A
:1021730010101010110F0000007722120A0E0A121D
:10218300122222770000000000070202020202026C
:102193000202427F00000000007736363636362AC8
:1021A3002A2A2A6B0000000000E346464A4A52529C
:1021B3005262624700000000001C2241414141413C
:1021C3004141221C00000000003F424242423E02C5
:1021D3000202020700000000001C2241414141416C
:1021E300414D321C60000000003F4242423E121249
:1021F300222242C700000000007C42420204182051
:102203004042423E00000000007F490808080808D9
:102213000808081C0000000000E742424242424214
:102223004242423C0000000000E7424222242414C0
:102233001418080800000000006B2A2A2A2A2A36EC
:10224300141414140000000000E742242418181882
:10225300242442E700000000007722221414080817
:102263000808081C00000000007E2120101008044C
:102273000442423F000000780808080808080808DC
:10228300080808087800000002040404080808107D
:10229300102020204040001E1010101010101010AD
:1022A300101010101E000018240000000000000091
:1022B30000000000000000000000000000007E009D
:1022C30000000000000000060800000000000000FD
:1022D300000000000000000000000000001C22308D
:1022E3002C22326C0000000000000302021A264276
:1022F3004242261A00000000000000000038440299
:10230300020244380000000000006040407C42426A
:10231300424262DC0000000000000000003C424238
:102323007E02423C0000000000003048083E0808DE
:102333000808083E0000000000000000007C222284
:102343001C023C42423C000000000302023A4642A7
:10235300424242E700000000000C0C00000E080897
:102363000808083E0000000000303000003820203C
:1023730020202020221E0000000003020272120A05
:102383000E1222770000000000080E080808080853
:102393000808083E0000000000000000007F929241
:1023A300929292B70000000000000000003B4642FA
:1023B300424242E70000000000000000003C4242AD
:1023C3004242423C0000000000000000001B264285
:1023D3004242261A0207000000000000005864422F
:1023E3004242645840E000000000000000774C04C3
:1023F3000404041F0000000000000000007C4202EF
:102403003C40423E0000000000000008083E08086F
:10241300080848300000000000000000006342424A
:10242300424262DC0000000000000000007722222C
:1024330014140808000000000000000000DB9152A3
:102443005A2A24240000000000000000006E241813
:1024530018182476000000000000000000E7422462
:10246300241818080806000000000000007E22104F
:102473000808447E000000C02020202020201020D7
:1024830020202020C0001010101010101010101069
:1024930010101010101000030404040404040804B2
:1024A300040404040300045A200000000000000098
:1024B3000000000000000000000000000000002FEA
:1024C300000000000700070000147F147F1400249D
:1024D3002A7F2A12006264081323003649552250CA
:1024E30000000503000000001C22410000004122FF
:1024F3001C000014083E08140008083E08080000E9
:1025030000A06000000808080808000060600000E0
:10251300002010080402003E5149453E0000427F5E
:102523004000004261514946002141454B310018AA
:1025330014127F10002745454539003C4A4949306C
:102543000001710905030036494949360006494926
:10255300291E000036360000000056360000000831
:10256300142241000014141414140000412214080E
:1025730000020151090600324959513E007C1211F3
:10258300127C007F49494936003E41414122007F88
:102593004141221C007F49494941007F0909090142
:1025A300003E4149497A007F0808087F0000417FC7
:1025B3004100002040413F01007F08142241007F79
:1025C30040404040007F020C027F007F0408107FE0
:1025D300003E4141413E007F09090906003E415149
:1025E300215E007F09192946004649494931000106
:1025F300017F0101003F4040403F001F2040201F5A
:10260300003F4038403F006314081463000708701C
:10261300080700615149454300007F4141000055CF
:102623002A552A55000041417F000004020102049B
:102633000040404040400000010204000020545488
:102643005478007F484444380038444444200038D8
:102653004444487F00385454541800087E0901024A
:102663000018A4A4A47C007F080404780000447D1F
:102673004000004080847D00007F1028440000005B
:10268300417F4000007C04180478007C080404782F
:1026930000384444443800FC24242418001824241B
:1026A30018FC007C08040408004854545420000417
:1026B3003F444020003C4040207C001C2040201C24
:1026C300003C4030403C004428102844001CA0A09B
:1026D300A07C004464544C441414141414140000D7
:1026E30000000000000000000000000000000000E7
:1026F30000F800000000000000333000000000106C
:102703000C06100C0600000000000000000040C092
:102713007840C0784000043F04043F040400007084
:1027230088FC08300000001820FF211E0000F0087C
:10273300F000E018000000211C031E211E0000F021
:102743000888700000001E21232419272110101669
:102753000E00000000000000000000000000000068
:1027630000E01804020000000007182040000002E7
:102773000418E0000000004020180700000040405B
:1027830080F0804040000202010F010202000000BD
:1027930000F0000000000101011F01010100000021
:1027A30000000000000080B0700000000000000086
:1027B300000000000000000101010101010100000F
:1027C30000000000000000303000000000000000A6
:1027D300000080601804006018060100000000E09B
:1027E30010080810E000000F102020100F00001048
:1027F30010F8000000000020203F2020000000709F
:102803000808088870000030282422213000003096
:102813000888884830000018202020110E0000008E
:10282300C02010F8000000070424243F240000F80F
:102833000888880808000019212020110E0000E0F4
:10284300108888180000000F112020110E00003896
:102853000808C83808000000003F000000000070AE
:10286300880808887000001C222121221C0000E037
:1028730010080810E0000000312222110F000000B0
:1028830000C0C00000000000003030000000000065
:1028930000800000000000008060000000000000D5
:1028A300804020100800000102040810200040406E
:1028B30040404040400004040404040404000008B1
:1028C3001020408000000020100804020100007066
:1028D30048080808F0000000003036010000C0304E
:1028E300C828E810E0000718272423140B00000071
:1028F300C038E0000000203C23020227382008F8FB
:10290300888888700000203F202020110E00C030EE
:10291300080808083800071820202010080008F8C5
:1029230008080810E000203F202020100F0008F8BE
:102933008888E8081000203F20202320180008F88A
:102943008888E8081000203F200003000000C03002
:1029530008080838000007182020221E020008F883
:1029630008000008F808203F210101213F2000084A
:1029730008F8080800000020203F20200000000085
:102983000808F8080800C08080807F00000008F86D
:1029930088C028180800203F20012638200008F8A6
:1029A300080000000000203F20202020300008F80D
:1029B300F800F8F80800203F003F003F200008F827
:1029C30030C00008F808203F200007183F00E0103F
:1029D30008080810E0000F10202020100F0008F84E
:1029E30008080808F000203F210101010000E01061
:1029F30008080810E0000F18242438504F0008F886
:102A0300888888887000203F2000030C30200070E5
:102A13008808080838000038202121221C001808E3
:102A230008F8080818000000203F2000000008F8FC
:102A330008000008F808001F202020201F00087845
:102A4300880000C83808000007380E010000F808A5
:102A530000F80008F800033C0700073C03000818CF
:102A630068808068180820302C03032C3020083835
:102A7300C800C83808000000203F200000001008EC
:102A83000808C83808002038262120201800000034
:102A930000FE020202000000007F40404000000CE4
:102AA30030C000000000000000010638C000000232
:102AB3000202FE000000004040407F0000000000D2
:102AC30004020202040000000000000000000000F5
:102AD30000000000000080808080808080800002F1
:102AE30002040000000000000000000000000000DD
:102AF3008080808000000019242222223F2008F8D1
:102B0300008080000000003F112020110E00000013
:102B1300008080800000000E1120202011000000A2
:102B230000808088F800000E112020103F20000054
:102B3300808080800000001F222222221300008058
:102B430080F0888888180020203F202000000000A3
:102B5300808080808000006B94949493600008F8D8
:102B6300008080800000203F210000203F20008063
:102B73009898000000000020203F20200000000063
:102B830000809898000000C08080807F000008F8D3
:102B9300000080808000203F24022D3020000008A8
:102BA30008F8000000000020203F20200000808063
:102BB300808080808000203F20003F20003F808075
:102BC300008080800000203F210000203F20000083
:102BD300808080800000001F202020201F00808034
:102BE30000808000000080FFA12020110E00000063
:102BF300008080808000000E112020A0FF80808054
:102C030080008080800020203F2120000100000000
:102C130080808080800000332424242419000080D5
:102C230080E0808000000000001F202000008080E2
:102C3300000000808000001F202020103F208080A3
:102C430080000080808000010E3008060100808033
:102C53000080008080800F300C030C300F00008058
:102C63008000808080000020312E0E312000808083
:102C730080000080808080818E70180601000080B3
:102C83008080808080000021302C222130000000D1
:102C93000000807C020200000000003F4040000072
:102CA3000000FF00000000000000FF000000000221
:102CB300027C800000000040403F0000000000064E
:0E2CC3000101020204040000000000000000F5
:00000001FF
