:10000000020E1702008053EFFE323202001253EF4D
:10001000FD323202000A53EFFB323202001A53EF74
:02002000FE32AE
:1000230002113B900240E0FCA3E0FDED1D70011CBA
:1000330014AA044C70F5EF1F70011E144E70E422D5
:0E004300021321900203E585F02253EFFD32F7
:06005300020006C2AF220C
:06005B0002000ED2AF22EC
:1000630002001E4102460044023C0000000042021E
:1000730040000042024200004101F00000C2CA32C7
:0300830002001662
:03008B000213431A
:0300930002101E3A
:03009B0002004D13
:1000A30002120D02045BE86480F8E933E83360115F
:1000B3000460F0ED33EC337009E8FCE9FDEAFEEB94
:1000C300FF220460DED3EB9FEA9EE99DE8C2E78C42
:1000D300F0C2F795F0400CE8CCF8E9CDF9EACEFA96
:1000E300EBCFFB12042685D0F05804700320D5B360
:1000F300E80470075002B2D502046592D5EC04609F
:10010300F7E4CCC0E0C398F8603B94186008400D56
:10011300D0E0FB02043DE4FBFAC9FC8028E830E4AC
:1001230006E4C9FBE4CAFCE830E305E4C9CACBFC36
:10013300E854076010F8C3E913F9EA13FAEB13FB69
:10014300EC13FCD8F130F52FC3E49CFCEF9BFFEEDE
:100153009AFEED99FDD0E0FBEF4E4D4C701222DB81
:1001630003020462EC2CFCEF33FFEE33FEED33FDB0
:10017300ED30E7EB02043DEF2BFFEE3AFEED39FDE8
:10018300D0E0FB50130BBB0003020465ED13FDEE3F
:1001930013FEEF13FFEC13FC02043DEC4D6011E87A
:1001A300497017ED33EC3304600DE4FCFFFEFD22D0
:1001B300E933E8330470F802045B12042658046040
:1001C30009E4CC2481500628500902046528400321
:1001D300020462C0E0EB4A7044B98006D0E0FB023F
:1001E3000451EF4E701CBD8008EBFFEAFEE9FD8071
:1001F300EBE98DF0A4FEE5F0020287E9CDF9EAFE12
:10020300EBFFEF89F0A4FCE5F0CE89F0A42EFFE428
:1002130035F0CD89F0A42DFEE435F08067EF4E7004
:1002230005BD80D780C3EF8BF0A4ACF0EE8BF0A4B8
:100233002CFCE435F0F8EF8AF0A42CE5F038FCE46C
:1002430033CB8DF0A42CFCE5F03BF8EE8AF0A42C24
:10025300FCE5F038F8E433CF89F0A42CFCE5F03862
:10026300CF3400CE89F0A42FFFE5F03EFEE433C97E
:100273008DF0A42EFEE5F039CD8AF0A42FFFE5F032
:100283003EFEE43DFD33D0E0FB50070BBB000F0205
:100293000465EC2CFCEF33FFEE33FEED33FD02047B
:1002A3003D020465EC5D046005E859047003020433
:1002B3005B120426580460F6EC4860F2EC7004FD0F
:1002C300FEFF22C860DB2481C85009C39860025036
:1002D300060204629850CAF582E9294B4A7005ABBD
:1002E3008202045175F0007C1A7880C3EF9BEE9A6A
:1002F300ED99400DC3EF9BFFEE9AFEED99FDE842A9
:10030300F0DC23ACF0D0E0FFD0E0FED0E0FDAB8228
:1003130020E7101BEB60BAEC2CFCEF33FFEE33FE4F
:10032300ED33FD02043DE803F830E705C0F075F056
:1003330000EF2FFFEE33FEED33FD40B830E7C28010
:10034300AA74F8CC6480CCC86480C8F58204604386
:10035300C3EB9FF5F0EA9E42F0E99D42F0E89C452D
:10036300F060305018E5825FFFE582F42B5582FB85
:1003730050210ABA001D09B90019088016E5825BED
:10038300FBE582F42F5582FF50090EBE00050DBD1B
:1003930000010CC3EB9FF5F0EA9E42F0E99D42F0A9
:1003A300E89C45F06007CC4820E701B3EC2275F0E8
:1003B30020800E75F010800575F0087D007E007FAB
:1003C300003392D530D503120820EC334010EF33BD
:1003D300FFEE33FEED33FDEC33FCD5F0ED22E5F01B
:1003E300247EA2D513CC92E7CDCEFF22EDD2E7CD6A
:1003F30033EC3392D524814006E4FFFEFDFC22FC5E
:10040300E4CFCECDCC24E0501174FF80EDC3CC13E8
:10041300CCCD13CDCE13CECF13CF0470F030D5DEB9
:10042300020820E9D2E7C933E833F892D5EDD2E7E1
:10043300CD33EC33FC5002B2D522EC30E7100FBFC2
:10044300000C0EBE00080DBD00040BEB6014A2D51A
:10045300EB13FCED92E7FD2274FFFCFDFEFF22E4AB
:1004630080F8A2D574FF13FC7D80E480EFE709F6E2
:1004730008DFFA8046E709F208DFFA803E88828CBB
:1004830083E709F0A3DFFA8032E309F608DFFA8095
:1004930078E309F208DFFA807088828C83E309F03D
:1004A300A3DFFA806489828A83E0A3F608DFFA80F7
:1004B3005889828A83E0A3F208DFFA804C80D280D5
:1004C300FA80C680D4806980F28033801080A68051
:1004D300EA809A80A880DA80E280CA803389828A9F
:1004E30083ECFAE493A3C8C582C8CCC583CCF0A33C
:1004F300C8C582C8CCC583CCDFE9DEE7800D89821D
:100503008A83E493A3F608DFF9ECFAA9F0EDFB2262
:1005130089828A83ECFAE0A3C8C582C8CCC583CCA0
:10052300F0A3C8C582C8CCC583CCDFEADEE880DB94
:1005330089828A83E493A3F208DFF980CC88F0EF01
:1005430060010E4E60C388F0ED2402B4040050B97C
:10055300F582EB2402B4040050AF23234582239099
:1005630004C073C2D530F707B2D563F0FF05F0308E
:10057300E70CB2D5F4048463F0FF05F08001843006
:10058300D502F40422BB010689828A83E022500249
:10059300E722BBFE02E32289828A83E49322BB0122
:1005A3000CE58229F582E5833AF583E0225006E9DA
:1005B3002582F8E622BBFE06E92582F8E222E582DF
:1005C30029F582E5833AF583E49322BB0106898208
:1005D3008A83F0225002F722BBFE01F322F8BB010B
:1005E3000DE58229F582E5833AF583E8F02250068A
:1005F300E92582C8F622BBFE05E92582C8F222EF6F
:100603008DF0A4A8F0CF8CF0A428CE8DF0A42EFEFC
:1006130022BC000BBE0029EF8DF084FFADF022E475
:10062300CCF875F008EF2FFFEE33FEEC33FCEE9DB4
:10063300EC984005FCEE9DFE0FD5F0E9E4CEFD22DB
:10064300EDF8F5F0EE8420D21CFEADF075F008EF66
:100653002FFFED33FD4007985006D5F0F222C398E3
:10066300FD0FD5F0EA22C2D5EC30E709B2D5E4C3D9
:100673009DFDE49CFCEE30E715B2D5E4C39FFFE497
:100683009EFE120614C3E49DFDE49CFC8003120647
:100693001430D507C3E49FFFE49EFE22C5F0F8A300
:1006A300E028F0C5F0F8E582158270021583E03882
:1006B300F022A3F8E0C5F025F0F0E5821582700280
:1006C3001583E0C838F0E822BB0110E58229F582E2
:1006D300E5833AF583E0F5F0A3E0225009E92582AA
:1006E300F886F008E622BBFE0AE92582F8E2F5F077
:1006F30008E222E5832AF583E993F5F0A3E993223F
:10070300E88FF0A4CC8BF0A42CFCE98EF0A42CFC95
:100713008AF0EDA42CFCEA8EF0A4CDA8F08BF0A413
:100723002DCC3825F0FDE98FF0A42CCD35F0FCEB72
:100733008EF0A4FEA9F0EB8FF0A4CFC5F02ECD3937
:10074300FEE43CFCEAA42DCE35F0FDE43CFC22752E
:10075300F008758200EF2FFFEE33FECD33CDCC339F
:10076300CCC58233C5829BED9AEC99E58298400C07
:10077300F582EE9BFEED9AFDEC99FC0FD5F0D6E4E5
:10078300CEFBE4CDFAE4CCF9A88222B800C1B900CB
:1007930059BA002DEC8BF084CFCECDFCE5F0CBF92C
:1007A3007818EF2FFFEE33FEED33FDEC33FCEB3324
:1007B300FB10D703994004EB99FB0FD8E5E4F9FA52
:1007C300227818EF2FFFEE33FEED33FDEC33FCC937
:1007D30033C910D7059BE99A4007EC9BFCE99AF9CA
:1007E3000FD8E0E4C9FAE4CCFB2275F010EF2FFF39
:1007F300EE33FEED33FDCC33CCC833C810D7079BA3
:10080300EC9AE899400AED9BFDEC9AFCE899F80F05
:10081300D5F0DAE4CDFBE4CCFAE4C8F922C3E49FD3
:10082300FFE49EFEE49DFDE49CFC22EB9FF5F0EAD1
:100833009E42F0E99D42F0EC6480C864809845F0E4
:1008430022EB9FF5F0EA9E42F0E99D42F0E89C45D9
:10085300F022E8600FECC313FCED13FDEE13FEEF83
:1008630013FFD8F122BB010789828A8302095D50F5
:1008730005E9F8020951BBFE05E9F8020969898215
:100883008A830209757401FF3395E0FEFDFCA3A37F
:10089300A3E0CF2FF0E582158270021583E0CE3EF0
:1008A300F0E582158270021583E0CD3DF0E58215F7
:1008B3008270021583E0CC3CF022ECF0A3EDF0A3B0
:1008C300EEF0A3EFF022A8828583F0D083D08212CA
:1008D30008E01208E01208E01208E0E473E493A3CE
:1008E300C583C5F0C583C8C582C8F0A3C583C5F059
:1008F300C583C8C582C822F5F0C582A4C582C5F0E8
:10090300C583A42583F58322BB010789828A8302D9
:10091300098E5005E9F8020985BBFE05E9F80209CD
:100923009789828A830209A0D083D082F8E49370E6
:1009330012740193700DA3A393F8740193F5828845
:1009430083E4737402936860EFA3A3A380DFE6FCE0
:1009530008E6FD08E6FE08E6FF22E0FCA3E0FDA3AF
:10096300E0FEA3E0FF22E2FC08E2FD08E2FE08E26B
:10097300FF22E493FC740193FD740293FE740393CA
:10098300FF22E6FB08E6FA08E6F922E0FBA3E0FA19
:10099300A3E0F922E2FB08E2FA08E2F922E493FB7E
:1009A300740193FA740293F92243BA80E59D60318E
:1009B30078FAE6FBAF9FC3EF9BFFE49400FEE49459
:1009C30000FDE49400FC7BE07A28790178001207AB
:1009D30003E42FFFEE3451FEED3425FDEC340280A9
:1009E3002E78FBE6FBAF9FC3EF9BFFE49400FEE48E
:1009F3009400FDE49400FCE47B807ABBF9F81207D1
:100A030003E42FFFEE3436FEED346EFDEC3401FCCF
:100A130090020C1208BD90020CE0FCA3E0FDA3E0E1
:100A2300FEA3E0FFC00790FE01E0FBE4FAF9F8D073
:100A33000712078E90020C1208BD7FC07EF67D5709
:100A43007C0090020CE0F8A3E0F9A3E0FAA3E0FB3A
:100A5300C312084450097F007E607D547C00227FCE
:100A6300C07E267D827C0090020CE0F8A3E0F9A30F
:100A7300E0FAA3E0FBC312084450097F807E8D7D1A
:100A83005B7C00227F807EED7DAF7C0090020CE0DA
:100A9300F8A3E0F9A3E0FAA3E0FBC312084450096A
:100AA3007F007EC07DA87C00227F807E2D7DE87C38
:100AB3000090020CE0F8A3E0F9A3E0FAA3E0FBC383
:100AC30012084450097F007E1B7DB77C00227F8083
:100AD3007E367D257C0190020CE0F8A3E0F9A3E0CB
:100AE300FAA3E0FBC312084450097F007E407D193E
:100AF3007C01227F807E567D417C0190020CE0F8D0
:100B0300A3E0F9A3E0FAA3E0FBC312084450097F72
:100B1300007E2D7D317C01227F007EDB7D5F7C01A9
:100B230090020CE0F8A3E0F9A3E0FAA3E0FBC31200
:100B3300084450097F007E807D517C01227F607EC6
:100B4300197D857C0190020CE0F8A3E0F9A3E0FA9B
:100B5300A3E0FBC312084450097F007E367D6E7C00
:100B630001227F207EE07DB27C0190020CE0F8A39D
:100B7300E0F9A3E0FAA3E0FBC312084450097FC0E5
:100B83007EFC7D9B7C01227FE07EA67DE07C019044
:100B9300020CE0F8A3E0F9A3E0FAA3E0FBC3120818
:100BA3004450097F807EC37DC97C01227F607E2BF8
:100BB3007DFF7C0190020CE0F8A3E0F9A3E0FAA327
:100BC300E0FBC312084450097F007E407DFA7C019C
:100BD300227F607E477D247C0290020CE0F8A3E034
:100BE300F9A3E0FAA3E0FBC312084450097FC07ED7
:100BF3000E7D167C02227F007E6D7D4A7C02900270
:100C03000CE0F8A3E0F9A3E0FAA3E0FBC312084465
:100C130050097F007E807D327C02227F807EDE7DD4
:100C2300807C0290020CE0F8A3E0F9A3E0FAA3E0D1
:100C3300FBC312084450097F007E5A7D627C022266
:100C43007F807EE77DBD7C0290020CE0F8A3E0F993
:100C5300A3E0FAA3E0FBC31208445008E4FFFE7DBF
:100C6300A37C02227F007E6C7DDC7C022290020C3E
:100C7300EFF0A3EDF0A3EBF0A3E0F8A3E0F9A3E01A
:100C8300FAA3E0FB90023CE0FCA3E0FDA3E0FEA39B
:100C9300E0FF12078EE47B04FAF9F812078EC3E42F
:100CA3009FFFE49EAD07FC90020CE0147003020D5D
:100CB3003C147003020D77147003020DC424036007
:100CC30003020E16900213E0FB6401701443985064
:100CD3008D8BECF58D438E40D28EE49001CAF0806B
:100CE3000FEBB4020B4398508DD7ECF5D6438E151A
:100CF30053A23F90020DE0FF7007A3E0B40102800E
:100D030030EFB4020C90020EE0B4030543A240801E
:100D13002090020DE0B4040AA3E0B4050543A280C9
:100D2300800F90020DE0B40608A3E0B4070343A2CA
:100D3300C0E49001CAF0D2AC22900213E0B4020BDB
:100D4300439A108DD7ECF5D6438E1453BAFE900216
:100D53000DE0FFB40807A3E0B40902800EEFB40A64
:100D63000A90020EE0B40B0343BA0143AF01E490CF
:100D730001CBF022900213E0FBB4020D43AC108DC3
:100D8300D7ECF5D6438E14800FEBB4030B43AC5072
:100D93008DD5ECF5D443D10A53BAFD90020DE0FF93
:100DA300B40C07A3E0B40D02800EEFB40E0A900258
:100DB3000EE0B40F0343BA0243AF08E49001CCF052
:100DC30022900213E0FBB4020D4384108DD7ECF59F
:100DD300D6438E14800FEBB4040B4384508DD3ECB5
:100DE300F5D243D1A053BAFB90020DE0FFB4100734
:100DF300A3E0B411028014EFB4121090020EE0B419
:100E03001309E4F5CA75C90443BA0443AF10E49067
:100E130001CDF022787FE4F6D8FD758107020E5EDE
:100E23000210E9E493A3F8E493A34003F68001F2EC
:100E330008DFF48029E493A3F85407240CC8C333D0
:100E4300C4540F4420C8834004F456800146F6DF9F
:100E5300E4800B0102040810204080900066E47EC9
:100E6300019360BCA3FF543F30E509541FFEE49394
:100E7300A360010ECF54C025E060A840B8E493A35B
:100E8300FAE493A3F8E493A3C8C582C8CAC583CA86
:100E9300F0A3C8C582C8CAC583CADFE9DEE780BE3E
:100EA300900203EBF0A3EAF0A3E9F0900206E0FB63
:100EB300A3E0FAA3E0F9120588FE900203E0FBA386
:100EC300E0FAA3E0F9120588FF6E702AEF600E9036
:100ED300020974FFF5F012069F45F070037F0022AC
:100EE300900204E475F00112069F900207E475F086
:100EF3000112069F80B5900203E0FBA3E0FAA3E092
:100F0300F9120588FDD3EE6480F8ED648098400300
:100F13007F0122900206E0FBA3E0FAA3E0F91205A9
:100F230088FFC3ED9FFF224F4B0D0A000D0A0041BE
:100F3300542B003D0041542E2E2E0041542B455876
:100F430049540041542B52455345540041542B4DB1
:100F530041433F0054504C00424C454D4F444500E3
:100F630041542B424C455354413F004E414D4500A3
:100F7300504E414D4500504153454E004F464600AB
:100F83004F4E005041535300434F4E4E00434F4E7C
:100F93004144440052535349004F4E2C3000626C7D
:100FA300650030303030303000E47B107A27F9F8B8
:100FB30090023CE0FCA3E0FDA3E0FEA3E0FF1207E8
:100FC3008E900240EEF0A3EFF07B407A42790F78E7
:100FD3000090023CE0FCA3E0FDA3E0FEA3E0FF12CF
:100FE300078EEF24FEFFEE34FF900242F0A3EFF0F2
:100FF3007F007E1B7DB77C0090023CE0F8A3E0F904
:10100300A3E0FAA3E0FBD3120844500E900243E09E
:1010130004F07006900242E004F022C0E0C0F0C089
:1010230083C082C0D075D000C000C001C002C0031D
:10103300C004C005C006C007E58430E1085384FD41
:101043009001CDE4F0E58430E0255384FE90024620
:10105300E0B401051200468016900246E0B4020592
:101063001212BD800A900246E0B4030312137FD02C
:1010730007D006D005D004D003D002D001D000D0D1
:10108300D0D082D083D0F0D0E03243FF101209AC2D
:1010930090023C1208BD120FACE4F594F593F5925F
:1010A300F591F596F595F5B2F5B1F5B4F5B3F5CA45
:1010B300F5C9F5CCF5CBF5E2F5E1F5DEF58EF5985E
:1010C300F59AF5ACF584F5A2F5BAF5AFF58990027A
:1010D3000F1208C90001C2009002137402F07B01D1
:1010E300E4FDFF020C7012005612108D439202D2DF
:1010F300917FC87E00120026C291E4900244F0A3BF
:10110300F012005E12124BEF24FE601104701C906B
:101113000245E02464F0900244E03400F09002457C
:10112300E0249CF0900244E034FFF0900244E0FE9F
:10113300A3E0FF12136580CCC0E0C083C082C0D09F
:1011430075D000C007E59830E1085398FD9001CAB7
:10115300E4F0E59830E0205398FEAF99EFB47F12A6
:10116300900247E0FF04F0EFD39414400A75C76080
:101173008005900247E4F0D007D0D0D082D083D04E
:10118300E032E490020BF0D2B3C2B2C2B3D2B2D215
:10119300B3C2B2F0C2B3E4FD7F041212F090020BAB
:1011A300E025E02401F582E43400F583EEF0A3EFBB
:1011B300F0D2B390020BE004F0E0C3948040D590EA
:1011C30000007401F022C2D5E830E70FB2D5E4C3C2
:1011D3009BFBE49AFAE499F9E498F8EC30E717B248
:1011E300D51211FF12078EE4C39BFBE49AFAE4992C
:1011F300F9E498F8800312078E30D50DE4C39FFFFE
:10120300E49EFEE49DFDE49CFC22C0E0C0F0C083AC
:10121300C082C0D075D000C000C001C002C003C0EE
:1012230004C005C006C00753EFFB121185D007D0D9
:1012330006D005D004D003D002D001D000D0D0D046
:1012430082D083D0F0D0E03230B40930B50630B666
:101253000320B72B7F0A7E0012002620B40630B489
:10126300FD7F012220B50630B5FD7F022220B606A0
:1012730030B6FD7F032220B70630B7FD7F04227FFF
:1012830000229001CFE0FF7404D39F502CE024CEC2
:10129300F9E43401FA9002067401F0A3EAF0A3E939
:1012A300F0A3E4F0A37404F07BFF7A0F792A120E03
:1012B300A3EF70059001F104F0229001F0E0B40176
:1012C300179001CFE0FF04F074D22FF582E43401CC
:1012D300F583E585F00212859001F0E0B4020790F2
:1012E30001CFE004F0229001D0E585F022A9055357
:1012F300BCF0EF42BC43BC40E5BC30E5FB53BCDF74
:10130300AFBDEFFEADBEEDFFE4F5BDF5BEAD01EF44
:10131300A805088005CEC313CE13D8F9FF22C0E079
:10132300C083C082E59A30E108539AFD9001CBE473
:10133300F0E59A30E003539AFED082D083D0E032B6
:10134300C0E0C083C082E5AC30E10853ACFD90013E
:10135300CCE4F0E5AC30E00353ACFED082D083D0D4
:10136300E0327D107C27ED1D70011C144C70F7C317
:10137300ED9FEC9E5003D2F822C2F822900203E5BF
:0313830085F022D0
:00000001FF
