:100000000219C402000A53EFFE323202001A53EF03
:10001000FD323202001253EFFB323202002253EF64
:10002000FE3232021B8B900251E0FCA3E0FDED1D7D
:1000300070011C14AA044C70F5EF1F70011E144EC1
:1000400070E422021DDF53EFFD32C2AF22D2AF2295
:03005300020006A2
:03005B0002000E92
:1000630002001E4102550044024D000000004202FE
:0D00730051000042025300004101F0000066
:0300830002001662
:03008B00021E0151
:03009300021E2327
:03009B000200461A
:1000A300021CAD020467E86480F8E933E8336011A9
:1000B3000460F0ED33EC337009E8FCE9FDEAFEEB94
:1000C300FF220460DED3EB9FEA9EE99DE8C2E78C42
:1000D300F0C2F795F0400CE8CCF8E9CDF9EACEFA96
:1000E300EBCFFB12043285D0F05804700320D5B354
:1000F300E80470075002B2D502047192D5EC046093
:10010300F7E4CCC0E0C398F8603B94186008400D56
:10011300D0E0FB020449E4FBFAC9FC8028E830E4A0
:1001230006E4C9FBE4CAFCE830E305E4C9CACBFC36
:10013300E854076010F8C3E913F9EA13FAEB13FB69
:10014300EC13FCD8F130F52FC3E49CFCEF9BFFEEDE
:100153009AFEED99FDD0E0FBEF4E4D4C701222DB81
:100163000302046EEC2CFCEF33FFEE33FEED33FDA4
:10017300ED30E7EB020449EF2BFFEE3AFEED39FDDC
:10018300D0E0FB50130BBB0003020471ED13FDEE33
:1001930013FEEF13FFEC13FC020449EC4D6011E86E
:1001A300497017ED33EC3304600DE4FCFFFEFD22D0
:1001B300E933E8330470F802046712043258046028
:1001C30009E4CC2481500628500902047128400315
:1001D30002046EC0E0EB4A7044B98006D0E0FB0233
:1001E300045DEF4E701CBD8008EBFFEAFEE9FD8065
:1001F300EBE98DF0A4FEE5F0020287E9CDF9EAFE12
:10020300EBFFEF89F0A4FCE5F0CE89F0A42EFFE428
:1002130035F0CD89F0A42DFEE435F08067EF4E7004
:1002230005BD80D780C3EF8BF0A4ACF0EE8BF0A4B8
:100233002CFCE435F0F8EF8AF0A42CE5F038FCE46C
:1002430033CB8DF0A42CFCE5F03BF8EE8AF0A42C24
:10025300FCE5F038F8E433CF89F0A42CFCE5F03862
:10026300CF3400CE89F0A42FFFE5F03EFEE433C97E
:100273008DF0A42EFEE5F039CD8AF0A42FFFE5F032
:100283003EFEE43DFD33D0E0FB50070BBB000F0205
:100293000471EC2CFCEF33FFEE33FEED33FD02046F
:1002A30049020471EC5D046005E85904700302041B
:1002B30067120432580460F6EC4860F2EC7004FDF7
:1002C300FEFF22C860DB2481C85009C39860025036
:1002D3000602046E9850CAF582E9294B4A7005ABB1
:1002E3008202045D75F0007C1A7880C3EF9BEE9A5E
:1002F300ED99400DC3EF9BFFEE9AFEED99FDE842A9
:10030300F0DC23ACF0D0E0FFD0E0FED0E0FDAB8228
:1003130020E7101BEB60BAEC2CFCEF33FFEE33FE4F
:10032300ED33FD020449E803F830E705C0F075F04A
:1003330000EF2FFFEE33FEED33FD40B830E7C28010
:10034300AA74F8CC6480CCC86480C8F58204604F7A
:10035300C3EB9FF5F0EA9E42F0E99D42F0E89C452D
:10036300F0603C501DE5825FFFE582D313CB5BCB8E
:10037300F42B5582FB50280ABA002409B90020083F
:10038300801DE5825BFBE582D313CF5FCFF4C313FC
:100393002F5582FF50090EBE00050DBD00010CC391
:1003A300EB9FF5F0EA9E42F0E99D42F0E89C45F0B0
:1003B3006007CC4820E701B3EC2275F020800E756E
:1003C300F010800575F0087D007E007F003392D524
:1003D30030D50312082CEC334010EF33FFEE33FE1D
:1003E300ED33FDEC33FCD5F0ED22E5F0247EA2D510
:1003F30013CC92E7CDCEFF22EDD2E7CD33EC33928F
:10040300D524814006E4FFFEFDFC22FCE4CFCECDE3
:10041300CC24E0501174FF80EDC3CC13CCCD13CDAD
:10042300CE13CECF13CF0470F030D5DE02082CE903
:10043300D2E7C933E833F892D5EDD2E7CD33EC33C5
:10044300FC5002B2D522EC30E7100FBF000C0EBEF9
:1004530000080DBD00040BEB6014A2D5EB13FCEDFB
:1004630092E7FD2274FFFCFDFEFF22E480F8A2D593
:1004730074FF13FC7D80E480EFE709F608DFFA8060
:1004830046E709F208DFFA803E88828C83E709F0A9
:10049300A3DFFA8032E309F608DFFA8078E309F292
:1004A30008DFFA807088828C83E309F0A3DFFA8087
:1004B3006489828A83E0A3F608DFFA805889828AF6
:1004C30083E0A3F208DFFA804C80D280FA80C680F2
:1004D300D4806980F28033801080A680EA809A807D
:1004E300A880DA80E280CA803389828A83ECFAE4C6
:1004F30093A3C8C582C8CCC583CCF0A3C8C582C8A2
:10050300CCC583CCDFE9DEE7800D89828A83E4935F
:10051300A3F608DFF9ECFAA9F0EDFB2289828A83BE
:10052300ECFAE0A3C8C582C8CCC583CCF0A3C8C588
:1005330082C8CCC583CCDFEADEE880DB89828A838C
:10054300E493A3F208DFF980CC88F0EF60010E4E4C
:1005530060C388F0ED2402B4040050B9F582EB24A3
:1005630002B4040050AF23234582239004CC73C20A
:10057300D530F707B2D563F0FF05F030E70CB2D5FD
:10058300F4048463F0FF05F080018430D502F404A1
:1005930022BB010689828A83E0225002E722BBFE46
:1005A30002E32289828A83E49322BB010CE5822938
:1005B300F582E5833AF583E0225006E92582F8E6E1
:1005C30022BBFE06E92582F8E222E58229F582E5CF
:1005D300833AF583E49322BB010689828A83F0225E
:1005E3005002F722BBFE01F322F8BB010DE582297D
:1005F300F582E5833AF583E8F0225006E92582C8BF
:10060300F622BBFE05E92582C8F222EF8DF0A4A8ED
:10061300F0CF8CF0A428CE8DF0A42EFE22BC000BCC
:10062300BE0029EF8DF084FFADF022E4CCF875F025
:1006330008EF2FFFEE33FEEC33FCEE9DEC98400504
:10064300FCEE9DFE0FD5F0E9E4CEFD22EDF8F5F0CA
:10065300EE8420D21CFEADF075F008EF2FFFED33D2
:10066300FD4007985006D5F0F222C398FD0FD5F050
:10067300EA22C2D5EC30E709B2D5E4C39DFDE49C80
:10068300FCEE30E715B2D5E4C39FFFE49EFE1206ED
:1006930020C3E49DFDE49CFC800312062030D507B3
:1006A300C3E49FFFE49EFE22C5F0F8A3E028F0C553
:1006B300F0F8E582158270021583E038F022A3F882
:1006C300E0C5F025F0F0E582158270021583E0C8DD
:1006D30038F0E822BB0110E58229F582E5833AF57B
:1006E30083E0F5F0A3E0225009E92582F886F008BB
:1006F300E622BBFE0AE92582F8E2F5F008E222E5EC
:10070300832AF583E993F5F0A3E99322E88FF0A414
:10071300CC8BF0A42CFCE98EF0A42CFC8AF0EDA485
:100723002CFCEA8EF0A4CDA8F08BF0A42DCC3825B8
:10073300F0FDE98FF0A42CCD35F0FCEB8EF0A4FE98
:10074300A9F0EB8FF0A4CFC5F02ECD39FEE43CFC2D
:10075300EAA42DCE35F0FDE43CFC2275F008758249
:1007630000EF2FFFEE33FECD33CDCC33CCC5823338
:10077300C5829BED9AEC99E58298400CF582EE9B3D
:10078300FEED9AFDEC99FC0FD5F0D6E4CEFBE4CD5B
:10079300FAE4CCF9A88222B800C1B90059BA002DF5
:1007A300EC8BF084CFCECDFCE5F0CBF97818EF2FAE
:1007B300FFEE33FEED33FDEC33FCEB33FB10D703DD
:1007C300994004EB99FB0FD8E5E4F9FA227818EF86
:1007D3002FFFEE33FEED33FDEC33FCC933C910D7E5
:1007E300059BE99A4007EC9BFCE99AF90FD8E0E4F2
:1007F300C9FAE4CCFB2275F010EF2FFFEE33FEEDC8
:1008030033FDCC33CCC833C810D7079BEC9AE89997
:10081300400AED9BFDEC9AFCE899F80FD5F0DAE479
:10082300CDFBE4CCFAE4C8F922C3E49FFFE49EFEC7
:10083300E49DFDE49CFC22EB9FF5F0EA9E42F0E987
:100843009D42F0EC6480C864809845F022EB9FF5EC
:10085300F0EA9E42F0E99D42F0E89C45F022E86010
:100863000FECC313FCED13FDEE13FEEF13FFD8F1F2
:1008730022BB010789828A830209695005E9F802CC
:10088300095DBBFE05E9F802097589828A830209BD
:10089300817401FF3395E0FEFDFCA3A3A3E0CF2FFA
:1008A300F0E582158270021583E0CE3EF0E58215F5
:1008B3008270021583E0CD3DF0E58215827002154A
:1008C30083E0CC3CF022ECF0A3EDF0A3EEF0A3EF39
:1008D300F022A8828583F0D083D0821208EC12081C
:1008E300EC1208EC1208ECE473E493A3C583C5F09F
:1008F300C583C8C582C8F0A3C583C5F0C583C8C571
:1009030082C822F5F0C582A4C582C5F0C583A4259B
:1009130083F58322BB010789828A8302099A5005E2
:10092300E9F8020991BBFE05E9F80209A389828A65
:10093300830209ACD083D082F8E4937012740193DC
:10094300700DA3A393F8740193F5828883E4737401
:1009530002936860EFA3A3A380DFE6FC08E6FD082B
:10096300E6FE08E6FF22E0FCA3E0FDA3E0FEA3E031
:10097300FF22E2FC08E2FD08E2FE08E2FF22E49324
:10098300FC740193FD740293FE740393FF22E6FB50
:1009930008E6FA08E6F922E0FBA3E0FAA3E0F9226D
:1009A300E2FB08E2FA08E2F922E493FB740193FA0A
:1009B300740293F92212004A121A50900217120875
:1009C300D500000032E490021BF0A3F07F61121007
:1009D300ECE4FD7F08121B3CE4FD7F09121B3CE4A1
:1009E300FD7F0A121B3CE4FD7F0B121B3C90021798
:1009F3001208D5000001F490021B7417F0A3747061
:100A0300F07F021210EC9002171208D5000001F4D7
:100A130090021B7417F0A37470F07F121210EC9005
:100A230002171208D5000001F490021B7417F0A3FB
:100A33007470F07F221210EC9002171208D5000098
:100A430001F490021B7417F0A37470F07F3212103C
:100A5300EC9002171208D5000001F490021B740BEE
:100A6300F0A374B8F07F031210EC9002171208D5AC
:100A7300000001F490021B740BF0A374B8F07F1311
:100A83001210EC9002171208D5000001F490021B1B
:100A9300740BF0A374B8F07F231210EC90021712BA
:100AA30008D5000001F490021B740BF0A374B8F096
:100AB3007F331210EC90020B7413F0A37488F0A32D
:100AC3007413F0A37488F0A37413F0A37488F0A3D1
:100AD3007413F0A37488F0A37403F0A37420F0904C
:100AE300020BE0FCA3E0FD7F021216F290020DE080
:100AF300FCA3E0FD7F121216F290020FE0FCA3E0CC
:100B0300FD7F221216F2900211E0FCA3E0FD7F327A
:100B13001216F2900213E0FCA3E0FD7F611216F2BD
:100B230012188E7BFF7A2C7961E4FDFF12193412BF
:100B33001D22439202D2917FC87E00120026C291E9
:100B430012004DE4FD7F08121D57900203EEF0FAE8
:100B5300A3EFF0FBE4FDFF1217D1E4FD7F09121DA3
:100B630057900205EEF0FAA3EFF0FB7D01E4FF12CC
:100B730017D1E4FD7F0A121D57900207EEF0FAA386
:100B8300EFF0FB7D02E4FF1217D1E4FD7F0B121D92
:100B930057900209EEF0FAA3EFF0FB7D03E4FF1296
:100BA30017D190020BE0FAA3E0FB7D04E4FF1217D8
:100BB300D190020DE0FAA3E0FB7D05E4FF1217D10B
:100BC30090020FE0FAA3E0FB7D06E4FF1217D19039
:100BD3000211E0FAA3E0FB7D07E4FF1217D19002B4
:100BE30013E0FAA3E0FB7D077F401217D1121C6BC1
:100BF300EF24FE6056147003020C90147003020C71
:100C0300D624036003020B4690020BE0B41F21A31A
:100C1300E0B4401C90020B7407F0A374D0F07D88FD
:100C23007C137F021216F27FC87E00120026800E0C
:100C330090020CE024E8F090020BE03403F0900201
:100C43000BE0FCA3E0FD7F02020CD090020DE0B4A8
:100C53001F21A3E0B4401C90020D7407F0A374D0CD
:100C6300F07D887C137F121216F27FC87E0012007B
:100C730026800E90020EE024E8F090020DE034038B
:100C8300F090020DE0FCA3E0FD7F12804090020F84
:100C9300E0B41F21A3E0B4401C90020F7407F0A33B
:100CA30074D0F07D887C137F221216F27FC87E00F9
:100CB300120026800E900210E024E8F090020FE06C
:100CC3003403F090020FE0FCA3E0FD7F221216F242
:100CD300020B46900211E0B41F21A3E0B4401C9024
:100CE30002117407F0A374D0F07D887C137F321255
:100CF30016F27FC87E00120026800E900212E024B6
:100D0300E8F0900211E03403F0900211E0FCA3E05C
:100D1300FD7F321216F2900213E0B40321A3E0B474
:100D2300841C9002137402F0A374BCF07D207C0336
:100D33007F611216F27FC87E00120026800E900299
:100D430014E02419F0900213E03400F0900213E051
:100D5300FCA3E0FD7F611216F2020B46ED60030275
:100D63000E36EF54F0F9FB7A007013EF540FFEF8D0
:100D73007401088002C333D8FCF452935294EB6499
:100D8300104A7013EF540FFEF87401088002C33346
:100D9300D8FCF452915292E964207013EF540FFE81
:100DA300F87401088002C333D8FCF452955296E9D3
:100DB300FB7A0064307013EF540FFEF8740108805F
:100DC30002C333D8FCF452B152B2EB64404A7013FD
:100DD300EF540FFEF87401088002C333D8FCF452B9
:100DE300B352B4E964507013EF540FFEF874010862
:100DF3008002C333D8FCF452C952CAE9FB7A0064B7
:100E0300607013EF540FFEF87401088002C333D8E7
:100E1300FCF452CB52CCEB64704A60030210EBEF4C
:100E2300540FFEF87401088002C333D8FCF452E176
:100E330052E222ED64016003020F1EEF54F0F9FB4E
:100E43007A007015EF540FFEF87401088002C33363
:100E5300D8FCFEF45293EE4294EB64104A7015EF03
:100E6300540FFEF87401088002C333D8FCFEF45219
:100E730091EE4292E964207015EF540FFEF874016D
:100E8300088002C333D8FCFEF45295EE4296E9FB88
:100E93007A0064307015EF540FFEF8740108800275
:100EA300C333D8FCFEF452B1EE42B2EB64404A7055
:100EB30015EF540FFEF87401088002C333D8FCFE0B
:100EC300F452B3EE42B4E964507015EF540FFEF8D8
:100ED3007401088002C333D8FCFEF452C9EE42CA3F
:100EE300E9FB7A0064607015EF540FFEF874010893
:100EF3008002C333D8FCFEF452CBEE42CCEB6470D9
:100F03004A60030210EBEF540FFEF87401088002ED
:100F1300C333D8FCFEF452E10210E8ED640260032F
:100F2300021007EF54F0F9FB7A007015EF540FFE2F
:100F3300F87401088002C333D8FCFE4293EEF452E6
:100F430094EB64104A7015EF540FFEF87401088097
:100F530002C333D8FCFE4291EEF45292E96420704E
:100F630015EF540FFEF87401088002C333D8FCFE5A
:100F73004295EEF45296E9FB7A0064307015EF5413
:100F83000FFEF87401088002C333D8FCFE42B1EEB1
:100F9300F452B2EB64404A7015EF540FFEF874013B
:100FA300088002C333D8FCFE42B3EEF452B4E964C2
:100FB300507015EF540FFEF87401088002C333D844
:100FC300FCFE42C9EEF452CAE9FB7A006460701574
:100FD300EF540FFEF87401088002C333D8FCFE42BD
:100FE300CBEEF452CCEB64704A60030210EBEF5487
:100FF3000FFEF87401088002C333D8FCFE42E1EE11
:10100300F452E222ED640360030210EBEF54F0FDAF
:101013007C007014EF540FFEF87401088002C33390
:10102300D8FCFE4293EE4294ED64104C7014EF54DE
:101033000FFEF87401088002C333D8FCFE4291EE20
:101043004292EF54F064207014EF540FFEF87401D1
:10105300088002C333D8FCFE4295EE4296EF54F06B
:10106300FD7C0064307014EF540FFEF874010880A7
:1010730002C333D8FCFE42B1EE42B2ED64404C7081
:1010830014EF540FFEF87401088002C333D8FCFE3A
:1010930042B3EE42B4EF54F064507014EF540FFEB9
:1010A300F87401088002C333D8FCFE42C9EE42CA79
:1010B300EF54F0FD7C0064607014EF540FFEF8747D
:1010C30001088002C333D8FCFE42CBEE42CCED6470
:1010D300704C7014EF540FFEF87401088002C33390
:1010E300D8FCFE42E1EE42E222900216EFF0E490D9
:1010F300021FF0A3F043BA80900216E0FF121561BD
:10110300900217E0F8A3E0F9A3E0FAA3E0FB900252
:101113004DE0FCA3E0FDA3E0FEA3E0FF12079A78F5
:101123001012086190021FEEF0A3EFF0900217E097
:10113300F8A3E0F9A3E0FAA3E0FB90024DE0FCA3DF
:10114300E0FDA3E0FEA3E0FF12079AC006C00790EC
:101153000220E02401FF90021FE03400AB07FAE411
:10116300F9F8D007D00612079AEF24FFFFEE34FFF9
:1011730090021DF0A3EFF090021BE0FCA3E0FDE45E
:101183001203C27B007A40791C78461202A7C0047E
:10119300C005C006C00790021DE0FCA3E0FDE412F9
:1011A30003C2D003D002D001D00012019E1203FB70
:1011B300AD07AC06900216E0FFD374409F7480F82D
:1011C30098400302129E90FEB5C083C082E0FF9058
:1011D3000216E0FEC4540F24FCF925E0FBF8740169
:1011E300088002C333D8FC4FD082D083F090FEB680
:1011F300C083C082E0FFEE5403FEA803088002C34D
:1012030033D8FC4FD082D083F0E9C31324ECFFE43E
:1012130034FE8F82F583C083C082E0FF900216E024
:10122300F9C4540FFE540125E025E0FBF8740108CE
:101233008002C333D8FC4FD082D083F0EE24E4FF86
:10124300E434FE8F82F583E04460F0E04408F090DC
:10125300021DE0FFA3E090FEF2CFF0A3EFF09002B7
:101263001FE0FFA3E090FEF0CFF0A3EFF0E9C4543A
:101273000F24FCFFE434FFFEEF25E0FFEE33FEEF27
:1012830024F5FFEE34FE8F82F583ECF0A3EDF090AE
:10129300FEFD7480F090FEE002138A90FEB1C083DD
:1012A300C082E0FB900216E0FA5401F97E0074015B
:1012B300A801088005C333CE33CED8F9FFEAC4545E
:1012C3000F25E0FAEFA802088005C333CE33CED84A
:1012D300F94BD082D083F090FEB2C083C082E0FF8E
:1012E300900216E05407C313FEA802088002C3331A
:1012F300D8FC4FD082D083F0900216E0FFC4135481
:101303000724CCFBE434FE8B82F583C083C082E0E8
:10131300FEEFC4540FFF540125E025E0FBE925E06F
:101323002BFBF87401088002C333D8FC4ED082D063
:1013330083F0EF24C8FFE434FE8F82F583E044603A
:10134300F0E04408F090021DE0FFA3E090FED2CF4E
:10135300F0A3EFF090021FE0FFA3E090FED0CFF0E8
:10136300A3EFF0900216E0C4540F75F002A424D545
:10137300FFE5F034FE8F82F583ECF0A3EDF090FEF1
:10138300DD7480F090FEC07401F022900216EFF03D
:10139300A3EDF0A3EBF0A3E0F8A3E0F9A3E0FAA335
:1013A300E0FB90024DE0FCA3E0FDA3E0FEA3E0FF21
:1013B30012079AE47B04FAF9F812079AC3E49FFF31
:1013C300E49EAD07FC900216E01470030214671448
:1013D30070030214AA1470030215032403600302AA
:1013E300156090021DE0FB7A00640170144398506D
:1013F3008D8BECF58D438E40D28EE49001CAF08044
:1014030011EB64024A700B4398508DD7ECF5D64329
:101413008E1553A23F900217E0F9FF7E007008A3D8
:10142300E0640170028035EF64024E700D90021883
:10143300E06403700543A2408022E96404700D90C8
:101443000218E06405700543A2808010E964067009
:101453000B900218E06407700343A2C0E49001CA32
:10146300F0D2AC2290021DE06402700B439A108DFF
:10147300D7ECF5D6438E1453BAFE900217E0FF7EE5
:101483000064087008A3E0640970028011EF640A25
:101493004E700B900218E0640B700343BA0143AF24
:1014A30001E49001CBF02290021DE0FB7A0064027C
:1014B300700D43AC108DD7ECF5D6438E148011EB31
:1014C30064034A700B43AC508DD5ECF5D443D10A79
:1014D30053BAFD900217E0FF7E00640C7008A3E08E
:1014E300640D70028011EF640E4E700B900218E0D1
:1014F300640F700343BA0243AF08E49001CCF022B7
:1015030090021DE0FB7A006402700D4384108DD7B6
:10151300ECF5D6438E148011EB64044A700B4384BC
:10152300508DD3ECF5D243D1A053BAFB900217E010
:10153300FF7E0064107008A3E0641170028016EF50
:1015430064124E7010900218E064137008F5CA75A7
:10155300C90443BA0443AF10E49001CDF022EF1263
:10156300093715E70015EE0115F50215FC031603FF
:1015730004160A05161110161811161F1216261333
:10158300162D14163415163B201642211649221621
:101593005023165724165E25166530166C311672C5
:1015A30032167833167E34168435168A36169037FB
:1015B300169640169C4116A24216A84316AE501624
:1015C300B45116BA5216C05316C66016CC6116D261
:1015D3006216D86316DE70168A7116E47216EA7301
:1015E300000016F17D017F100216EE7D017F1102CE
:1015F30016EE7D017F200216EE7D017F210216EE9D
:101603007D017F600216EE7D017F610216EE7D0192
:101613007F120216EE7D017F130216EE7D017F22FB
:101623000216EE7D017F230216EE7D017F62021614
:10163300EE7D017F630216EE7D017F140216EE7DBF
:10164300017F150216EE7D017F240216EE7D017FD8
:10165300250216EE7D017F640216EE7D017F650291
:1016630016EE7D017F160216EE7D017F17807C7DCD
:10167300017F2680767D017F2780707D017F6680D4
:101683006A7D017F6780647D017F34805E7D017F99
:101693003380587D017F2080527D017F17804C7DF0
:1016A30001E4FF80467D017F7480407D017F2180BE
:1016B3003A7D017F5480347D017F01802E7D017F3F
:1016C3007580287D017F2280227D017F33801C7DF0
:1016D300017F0280167D017F7680107D017F23804C
:1016E3000A7D017F0380047D017F77120D5F2290C5
:1016F3000217ECF0A3EDF0900216EFF0D374409FC5
:101703007480F8985063A3E0FCA3E0FDE41203C2E5
:101713007B007A40791C78461202A7C004C005C03A
:1017230006C00790FEF2E0FCA3E0FDE41203C2D082
:1017330003D002D001D00012019E1203FB900219C4
:10174300EEF0A3EFF0900219E0FCA3E0FD90021687
:10175300E0C4540F24FCFFE434FFFEEF25E0FFEE6A
:1017630033FEEF24F5FFEE8059900217E0FCA3E06F
:10177300FDE41203C27B007A40791C78461202A76B
:10178300C004C005C006C00790FED2E0FCA3E0FD84
:10179300E41203C2D003D002D001D00012019E1282
:1017A30003FB900219EEF0A3EFF0900219E0FCA303
:1017B300E0FD900216E0C4540F75F002A424D5FF97
:1017C300E5F034FE8F82F583ECF0A3EDF022900276
:1017D30016EFF0A3EDF0E490021DF0FC7D0AAF03D9
:1017E300AE02120620ED243090021CF07C007D0A2C
:1017F300AF03AE021206207C007D0A120620ED2400
:101803003090021BF07C007D64AF03AE0212062011
:101813007C007D0A120620ED243090021AF07C032E
:101823007DE8AF03AE021206207C007D0A1206207B
:10183300ED2430900219F0AE02AF037C277D101225
:1018430006207C007D0A120620ED2430900218F059
:10185300E4FFEFC3940474809480501E74182FF532
:1018630082E43402F583E0B4301074182FF582E477
:101873003402F5837420F00F80D8900216E0FFA3A2
:10188300E0FD7B017A027918021934D2C7D2FCC277
:10189300FE7F327E00120026D2FE7FAE121D90E440
:1018A300FF121D907F10121D907F40121D907F81AB
:1018B300121D907F7F121D907FA1121D907FC81271
:1018C3001D907FA6121D907FA8121D907F3F121DB1
:1018D300907FD3121D90E4FF121D907FD5121D90AF
:1018E3007F80121D907FD9121D907FF1121D907F72
:1018F300DA121D907F12121D907FDB121D907F4024
:10190300121D907F20121D907F02121D907F8D1259
:101913001D907F14121D907FA4121D907FA6121D8F
:10192300907FAF121D90E4FF121CEBE4FDFF021E3B
:101933004590021EEFF0A3EDF0A3EBF0A3EAF0A3B2
:10194300E9F0E4A3F0FCA3F0900220E0FBA3E0FAAB
:10195300A3E0F9900224E0F5827583001205AD60DF
:101963005F24E0900223F090021EE0D3947E748003
:1019730094804006E4F0A3E004F090021EE0FFA38D
:10198300E0FD121E45E4FCECC39406748094805081
:1019930020900223E075F006A42449F582E5F03493
:1019A30024F583E5822CF582E43583121DB50C8082
:1019B300D690021EE02406F0900224E004F0808812
:1019C30022787FE4F6D8FD758107021A0B0209B865
:1019D300E493A3F8E493A34003F68001F208DFF451
:1019E3008029E493A3F85407240CC8C333C4540FC9
:1019F3004420C8834004F456800146F6DFE4800B9C
:101A03000102040810204080900066E47E01936088
:101A1300BCA3FF543F30E509541FFEE493A36001C8
:101A23000ECF54C025E060A840B8E493A3FAE49332
:101A3300A3F8E493A3C8C582C8CAC583CAF0A3C8E0
:101A4300C582C8CAC583CADFE9DEE780BE43FF108B
:101A530090024D1208D500B71B0075BA8090FE03A3
:101A630074C0F090FE03E030E0F990FE01E4F090E2
:101A7300FE0004F0E4F5BA121ACAE4F594F593F5FE
:101A830092F591F596F595F5B2F5B1F5B4F5B3F593
:101A9300CAF5C9F5CCF5CBF5E2F5E1F5DEF58EF542
:101AA30098F59AF5ACF584F5A2F5BAF5AFF58990FA
:101AB30002191208D50001C20090021D7402F07BC6
:101AC30001E4FDFF02138EE47B107A27F9F89002FC
:101AD3004DE0FCA3E0FDA3E0FEA3E0FF12079A9014
:101AE3000251EEF0A3EFF07B407A42790F78009039
:101AF300024DE0FCA3E0FDA3E0FEA3E0FF12079A82
:101B0300EF24FEFFEE34FF900253F0A3EFF07F00CB
:101B13007E1B7DB77C0090024DE0F8A3E0F9A3E0C3
:101B2300FAA3E0FBD3120850500E900254E004F0E5
:101B33007006900253E004F02243BC8053BCF0EFE4
:101B430042BCEF131313541FFB7A0064017017EFA9
:101B53005407FEF87401088002C333D8FCFEF45224
:101B630094EE42938019EB4A7015EF5407FEF87414
:101B730001088002C333D8FCFEF45292EE4291ED89
:101B8300540F42DE43DE2022C0E0C083C082C0D0B7
:101B930075D000C007E59830E1085398FD9001CA5D
:101BA300E4F0E59830E0255398FEAF99EF647F7039
:101BB30016900256E0FF04F0D3EF941474809480DF
:101BC300400A75C7608005900256E4F0D007D0D074
:101BD300D082D083D0E032E4900215F0D2B3C2B207
:101BE300C2B3D2B2D2B3C2B2F0900215E0C39480B2
:101BF300748094805027C2B3E4FD7F04121D579074
:101C03000215E025E02401F582E43400F583EEF0CB
:101C1300A3EFF0D2B3900215E004F080CC90000063
:101C23007401F022C2D5E830E70FB2D5E4C39BFBC1
:101C3300E49AFAE499F9E498F8EC30E717B2D5128C
:101C43001C5D12079AE4C39BFBE49AFAE499F9E456
:101C530098F8800312079A30D50DE4C39FFFE49EE2
:101C6300FEE49DFDE49CFC2230B40930B50630B699
:101C73000320B7337F0A7E0012002620B40830B455
:101C8300FDB2F87F012220B50830B5FDB2F97F021D
:101C93002220B60830B6FDB2FA7F032220B70830FF
:101CA300B7FDB2FB7F04227F0022C0E0C0F0C083F7
:101CB300C082C0D075D000C000C001C002C003C044
:101CC30004C005C006C00753EFFB121BDAD007D0D0
:101CD30006D005D004D003D002D001D000D0D0D09C
:101CE30082D083D0F0D0E032AC07E4FBEBC394089E
:101CF300748094805028EB24B0FF121D90E4FF12EF
:101D03001D907F10121D90E4FAEAC39480748094AE
:101D1300805008AF04121DBA0A80EE0B80CE22E475
:101D2300FCECC39408748094805028EC24B0FF1218
:101D33001D907F01121D907F10121D90E4FBEBC3D9
:101D43009480748094805008E4FF121DBA0B80EED7
:101D53000C80CE22A90553BCF0EF42BC43BC40E546
:101D6300BC30E5FB53BCDFAFBDEFFEADBEEDFFE422
:101D7300F5BDF5BEAD01EFA805088005CEC313CEB2
:101D830013D8F9FF2254F0C4540F4410FF7E08C245
:101D9300C7C2FFC2FCAD061EED6014EF30E704D2EC
:101DA300FD8002C2FDD2FCC2FCEF25E0FF80E6D23B
:101DB300C722F583E493FF7E08C2C7D2FFC2FCADFE
:101DC300061EED6014EF30E704D2FD8002C2FDD29F
:101DD300FCC2FCEF25E0FF80E6D2C722C0E0C0834F
:101DE300C082E59A30E108539AFD9001CBE4F0E517
:101DF3009A30E003539AFED082D083D0E032C0E021
:101E0300C083C082E5AC30E10853ACFD9001CCE463
:101E1300F0E5AC30E00353ACFED082D083D0E032A7
:101E2300C0E0C083C082E58430E1085384FD9001A3
:101E3300CDE4F0E58430E0035384FED082D083D038
:101E4300E032AC07ED24B0FF121D90EC121D88ECBC
:101E5300540FFF021D90000000000000000000006E
:101E63000000000000000000000808080808080837
:101E730000000808000000482424120000000000AD
:101E83000000000000000000004848487E2424248D
:101E93007E24242400000000103C5252121C3050B7
:101EA3005052523C1010000000222515150D2A58DF
:101EB3005454522200000000000C1212120A76251C
:101EC3002919916E000000060404020000000000BE
:101ED3000000000000000040201010080808080857
:101EE3000810102040000002040808101010101001
:101EF3001008080402000000000008086B1C1C6B9B
:101F03000808000000000000000000101010FE1080
:101F1300101000000000000000000000000000009E
:101F230000000604040200000000000000007E0020
:101F3300000000000000000000000000000000009E
:101F430000000606000000004020202010100808B2
:101F530008040402020000000018244242424242E4
:101F6300424224180000000000101C101010101032
:101F73001010107C00000000003C42424240201040
:101F83000804427E00000000003C4242402018202A
:101F93004042423C0000000000203030282424222C
:101FA300FE2020F800000000007E0202021E2240F4
:101FB3004042221C0000000000182402023A46425C
:101FC3004242443800000000007E422020101008E6
:101FD3000808080800000000003C4242422418247C
:101FE3004242423C00000000001C22424242625C2A
:101FF30040402418000000000000000018180000F2
:102003000000181800000000000000000008000095
:102013000000000808080000004020100804020423
:102023000810204000000000000000007E00007E39
:1020330000000000000000000002040810204020FF
:102043001008040200000000003C42424620101029
:102053001000181800000000001C225A5555555551
:10206300553A423C00000000000808181414243CB0
:10207300224242E700000000001F2222221E2242C9
:102083004242221F00000000007C42420101010184
:102093000142221C00000000001F22424242424231
:1020A3004242221F00000000003F4212121E121281
:1020B3000242423F00000000003F4212121E121271
:1020C3000202020700000000003C2222010101710C
:1020D3002122221C0000000000E7424242427E42CD
:1020E300424242E700000000003E080808080808D2
:1020F3000808083E00000000007C101010101010AB
:1021030010101010110F0000007722120A0E0A128D
:1021130012222277000000000007020202020202DC
:102123000202427F00000000007736363636362A38
:102133002A2A2A6B0000000000E346464A4A52520C
:102143005262624700000000001C224141414141AC
:102153004141221C00000000003F424242423E0235
:102163000202020700000000001C224141414141DC
:10217300414D321C60000000003F4242423E1212B9
:10218300222242C700000000007C424202041820C1
:102193004042423E00000000007F4908080808084A
:1021A3000808081C0000000000E742424242424285
:1021B3004242423C0000000000E742422224241431
:1021C3001418080800000000006B2A2A2A2A2A365D
:1021D300141414140000000000E7422424181818F3
:1021E300242442E700000000007722221414080888
:1021F3000808081C00000000007E212010100804BD
:102203000442423F0000007808080808080808084C
:1022130008080808780000000204040408080810ED
:10222300102020204040001E10101010101010101D
:10223300101010101E000018240000000000000001
:1022430000000000000000000000000000007E000D
:10225300000000000000000608000000000000006D
:10226300000000000000000000000000001C2230FD
:102273002C22326C0000000000000302021A2642E6
:102283004242261A00000000000000000038440209
:10229300020244380000000000006040407C4242DB
:1022A300424262DC0000000000000000003C4242A9
:1022B3007E02423C0000000000003048083E08084F
:1022C3000808083E0000000000000000007C2222F5
:1022D3001C023C42423C000000000302023A464218
:1022E300424242E700000000000C0C00000E080808
:1022F3000808083E000000000030300000382020AD
:1023030020202020221E0000000003020272120A75
:102313000E1222770000000000080E0808080808C3
:102323000808083E0000000000000000007F9292B1
:10233300929292B70000000000000000003B46426A
:10234300424242E70000000000000000003C42421D
:102353004242423C0000000000000000001B2642F5
:102363004242261A0207000000000000005864429F
:102373004242645840E000000000000000774C0433
:102383000404041F0000000000000000007C42025F
:102393003C40423E0000000000000008083E0808E0
:1023A30008084830000000000000000000634242BB
:1023B300424262DC0000000000000000007722229D
:1023C30014140808000000000000000000DB915214
:1023D3005A2A24240000000000000000006E241884
:1023E30018182476000000000000000000E74224D3
:1023F300241818080806000000000000007E2210C0
:102403000808447E000000C0202020202020102047
:1024130020202020C00010101010101010101010D9
:102423001010101010100003040404040404080422
:10243300040404040300045A200000000000000008
:102443000000000000000000000000000000002F5A
:10245300000000000700070000147F147F1400240D
:102463002A7F2A120062640813230036495522503A
:1024730000000503000000001C224100000041226F
:102483001C000014083E08140008083E0808000059
:1024930000A0600000080808080800006060000051
:1024A300002010080402003E5149453E0000427FCF
:1024B3004000004261514946002141454B3100181B
:1024C30014127F10002745454539003C4A494930DD
:1024D3000001710905030036494949360006494997
:1024E300291E0000363600000000563600000008A2
:1024F300142241000014141414140000412214087F
:1025030000020151090600324959513E007C121163
:10251300127C007F49494936003E41414122007FF8
:102523004141221C007F49494941007F09090901B2
:10253300003E4149497A007F0808087F0000417F37
:102543004100002040413F01007F08142241007FE9
:1025530040404040007F020C027F007F0408107F50
:10256300003E4141413E007F09090906003E4151B9
:10257300215E007F09192946004649494931000176
:10258300017F0101003F4040403F001F2040201FCA
:10259300003F4038403F006314081463000708708D
:1025A300080700615149454300007F414100005540
:1025B3002A552A55000041417F000004020102040C
:1025C30000404040404000000102040000205454F9
:1025D3005478007F48444438003844444420003849
:1025E3004444487F00385454541800087E090102BB
:1025F3000018A4A4A47C007F080404780000447D90
:102603004000004080847D00007F102844000000CB
:10261300417F4000007C04180478007C080404789F
:1026230000384444443800FC24242418001824248B
:1026330018FC007C08040408004854545420000487
:102643003F444020003C4040207C001C2040201C94
:10265300003C4030403C004428102844001CA0A00B
:10266300A07C004464544C44141414141414000047
:102673000000000000000000000000000000000057
:1026830000F80000000000000033300000000010DC
:102693000C06100C0600000000000000000040C003
:1026A3007840C0784000043F04043F0404000070F5
:1026B30088FC08300000001820FF211E0000F008ED
:1026C300F000E018000000211C031E211E0000F092
:1026D3000888700000001E212324192721101016DA
:1026E3000E000000000000000000000000000000D9
:1026F30000E0180402000000000718204000000258
:102703000418E000000000402018070000004040CB
:1027130080F0804040000202010F0102020000002D
:1027230000F0000000000101011F01010100000091
:1027330000000000000080B07000000000000000F6
:10274300000000000000000101010101010100007F
:102753000000000000000030300000000000000016
:10276300000080601804006018060100000000E00B
:1027730010080810E000000F102020100F000010B8
:1027830010F8000000000020203F2020000000700F
:102793000808088870000030282422213000003007
:1027A3000888884830000018202020110E000000FF
:1027B300C02010F8000000070424243F240000F880
:1027C3000888880808000019212020110E0000E065
:1027D300108888180000000F112020110E00003807
:1027E3000808C83808000000003F0000000000701F
:1027F300880808887000001C222121221C0000E0A8
:1028030010080810E0000000312222110F00000020
:1028130000C0C000000000000030300000000000D5
:102823000080000000000000806000000000000045
:1028330080402010080000010204081020004040DE
:102843004040404040000404040404040400000821
:1028530010204080000000201008040201000070D6
:1028630048080808F0000000003036010000C030BE
:10287300C828E810E0000718272423140B000000E1
:10288300C038E0000000203C23020227382008F86B
:10289300888888700000203F202020110E00C0305F
:1028A300080808083800071820202010080008F836
:1028B30008080810E000203F202020100F0008F82F
:1028C3008888E8081000203F20202320180008F8FB
:1028D3008888E8081000203F200003000000C03073
:1028E30008080838000007182020221E020008F8F4
:1028F30008000008F808203F210101213F200008BB
:1029030008F8080800000020203F202000000000F5
:102913000808F8080800C08080807F00000008F8DD
:1029230088C028180800203F20012638200008F816
:10293300080000000000203F20202020300008F87D
:10294300F800F8F80800203F003F003F200008F897
:1029530030C00008F808203F200007183F00E010AF
:1029630008080810E0000F10202020100F0008F8BE
:1029730008080808F000203F210101010000E010D1
:1029830008080810E0000F18242438504F0008F8F6
:10299300888888887000203F2000030C3020007056
:1029A3008808080838000038202121221C00180854
:1029B30008F8080818000000203F2000000008F86D
:1029C30008000008F808001F202020201F000878B6
:1029D300880000C83808000007380E010000F80816
:1029E30000F80008F800033C0700073C0300081840
:1029F30068808068180820302C03032C30200838A6
:102A0300C800C83808000000203F2000000010085C
:102A13000808C838080020382621202018000000A4
:102A230000FE020202000000007F40404000000C54
:102A330030C000000000000000010638C0000002A2
:102A43000202FE000000004040407F000000000042
:102A53000402020204000000000000000000000065
:102A63000000000000008080808080808080000261
:102A7300020400000000000000000000000000004D
:102A83008080808000000019242222223F2008F841
:102A9300008080000000003F112020110E00000084
:102AA300008080800000000E112020201100000013
:102AB30000808088F800000E112020103F200000C5
:102AC300808080800000001F2222222213000080C9
:102AD30080F0888888180020203F20200000000014
:102AE300808080808000006B94949493600008F849
:102AF300008080800000203F210000203F200080D4
:102B03009898000000000020203F202000000000D3
:102B130000809898000000C08080807F000008F843
:102B2300000080808000203F24022D302000000818
:102B330008F8000000000020203F202000008080D3
:102B4300808080808000203F20003F20003F8080E5
:102B5300008080800000203F210000203F200000F3
:102B6300808080800000001F202020201F008080A4
:102B730000808000000080FFA12020110E000000D3
:102B8300008080808000000E112020A0FF808080C4
:102B930080008080800020203F2120000100000071
:102BA3008080808080000033242424241900008046
:102BB30080E0808000000000001F20200000808053
:102BC300000000808000001F202020103F20808014
:102BD30080000080808000010E30080601008080A4
:102BE3000080008080800F300C030C300F000080C9
:102BF3008000808080000020312E0E3120008080F4
:102C030080000080808080818E7018060100008023
:102C13008080808080000021302C22213000000041
:102C23000000807C020200000000003F40400000E2
:102C33000000FF00000000000000FF000000000291
:102C4300027C800000000040403F000000000006BE
:102C53000101020204040000000000000000696E8C
:0B2C6300697420737563636573730070
:00000001FF
