:10000000020F2902000A53EFFE323202001A53EFA8
:10001000FD323202001253EFFB323202002253EF64
:10002000FE323202116D900247E0FCA3E0FDED1DAF
:1000300070011C14AA044C70F5EF1F70011E144EC1
:1000400070E422021351696E6974207375636365ED
:0A00500073730002000653EFFD3247
:06005B0002000EC2AF22FC
:1000630002001E41024B0044024300000000420212
:1000730047000042024900004101F00000D2AF22D4
:0300830002001662
:03008B00021373EA
:03009300021395C0
:03009B000200560A
:1000A30002123F02046CE86480F8E933E83360111C
:1000B3000460F0ED33EC337009E8FCE9FDEAFEEB94
:1000C300FF220460DED3EB9FEA9EE99DE8C2E78C42
:1000D300F0C2F795F0400CE8CCF8E9CDF9EACEFA96
:1000E300EBCFFB12043785D0F05804700320D5B34F
:1000F300E80470075002B2D502047692D5EC04608E
:10010300F7E4CCC0E0C398F8603B94186008400D56
:10011300D0E0FB02044EE4FBFAC9FC8028E830E49B
:1001230006E4C9FBE4CAFCE830E305E4C9CACBFC36
:10013300E854076010F8C3E913F9EA13FAEB13FB69
:10014300EC13FCD8F130F52FC3E49CFCEF9BFFEEDE
:100153009AFEED99FDD0E0FBEF4E4D4C701222DB81
:1001630003020473EC2CFCEF33FFEE33FEED33FD9F
:10017300ED30E7EB02044EEF2BFFEE3AFEED39FDD7
:10018300D0E0FB50130BBB0003020476ED13FDEE2E
:1001930013FEEF13FFEC13FC02044EEC4D6011E869
:1001A300497017ED33EC3304600DE4FCFFFEFD22D0
:1001B300E933E8330470F802046C1204375804601E
:1001C30009E4CC2481500628500902047628400310
:1001D300020473C0E0EB4A7044B98006D0E0FB022E
:1001E3000462EF4E701CBD8008EBFFEAFEE9FD8060
:1001F300EBE98DF0A4FEE5F0020287E9CDF9EAFE12
:10020300EBFFEF89F0A4FCE5F0CE89F0A42EFFE428
:1002130035F0CD89F0A42DFEE435F08067EF4E7004
:1002230005BD80D780C3EF8BF0A4ACF0EE8BF0A4B8
:100233002CFCE435F0F8EF8AF0A42CE5F038FCE46C
:1002430033CB8DF0A42CFCE5F03BF8EE8AF0A42C24
:10025300FCE5F038F8E433CF89F0A42CFCE5F03862
:10026300CF3400CE89F0A42FFFE5F03EFEE433C97E
:100273008DF0A42EFEE5F039CD8AF0A42FFFE5F032
:100283003EFEE43DFD33D0E0FB50070BBB000F0205
:100293000476EC2CFCEF33FFEE33FEED33FD02046A
:1002A3004E020476EC5D046005E859047003020411
:1002B3006C120437580460F6EC4860F2EC7004FDED
:1002C300FEFF22C860DB2481C85009C39860025036
:1002D300060204739850CAF582E9294B4A7005ABAC
:1002E3008202046275F0007C1A7880C3EF9BEE9A59
:1002F300ED99400DC3EF9BFFEE9AFEED99FDE842A9
:10030300F0DC23ACF0D0E0FFD0E0FED0E0FDAB8228
:1003130020E7101BEB60BAEC2CFCEF33FFEE33FE4F
:10032300ED33FD02044EE803F830E705C0F075F045
:1003330000EF2FFFEE33FEED33FD40B830E7C28010
:10034300AA74F8CC6480CCC86480C8F58204604386
:10035300C3EB9FF5F0EA9E42F0E99D42F0E89C452D
:10036300F060305018E5825FFFE582F42B5582FB85
:1003730050210ABA001D09B90019088016E5825BED
:10038300FBE582F42F5582FF50090EBE00050DBD1B
:1003930000010CC3EB9FF5F0EA9E42F0E99D42F0A9
:1003A300E89C45F06007CC4820E701B3EC22ED332D
:1003B300EC33600A047003BD8004ECB2E7FC2275E1
:1003C300F020800E75F010800575F0087D007E002A
:1003D3007F003392D530D5031209E3EC334010EF9D
:1003E30033FFEE33FEED33FDEC33FCD5F0ED22E5C8
:1003F300F0247EA2D513CC92E7CDCEFF22EDD2E737
:10040300CD33EC3392D524814006E4FFFEFDFC227C
:10041300FCE4CFCECDCC24E0501174FF80EDC3CCEF
:1004230013CCCD13CDCE13CECF13CF0470F030D574
:10043300DE0209E3E9D2E7C933E833F892D5EDD216
:10044300E7CD33EC33FC5002B2D522EC30E7100F8A
:10045300BF000C0EBE00080DBD00040BEB6014A220
:10046300D5EB13FCED92E7FD2274FFFCFDFEFF22AA
:10047300E480F8A2D574FF13FC7D80E480EFF920BB
:10048300E73624F950037907E4F42402FBE58215E7
:100493008270021583DBF6E024FB501BE96014E451
:1004A300F0E582158270021583E004F0B40A08E4D3
:1004B300F0D9EE7401F00A22C2D522ED33EC339267
:1004C300D5FA602AB4FF33EDC2E77BFF60067A04F6
:1004D30079E3E4227A0479EC20D5047A0479E722DB
:1004E3004E614E002B494E46002D494E4600E47A9C
:1004F30008F0A3DAFC7B00740722C083C082ECC03F
:10050300E0EDC0E0EEC0E0EFC0E0EA75F010A4CA91
:10051300ABF075F04DA42BFBE435F0FCEA2410FAA4
:10052300EB34C5FBEC34D9FCEDC2E7FF75F056A400
:10053300F42411C5F0F434C58FF0A42AE5F03BE4AC
:100543003CF020E7141205F3D0E0FFD0E0FED0E04A
:10055300FDD0E0FC1202A78014F4041205F3D0E0EE
:10056300FFD0E0FED0E0FDD0E0FC12019ED082D0AF
:1005730083E0FAEDD2E7CD33EC332482FBE4C3CF3F
:1005830033CFCE33CECD33CD33DBF37B0775F00AD8
:10059300846004F0A31B0AE5F0F0A38FF0740AA4AF
:1005A300FFACF08EF0740AA42CFEACF050010C8D5D
:1005B300F0740AA42CFDE435F0F0A3DBDE7407220B
:1005C3003F8000004120000042C80000447A000040
:1005D300461C400047C35000497424004B189680C2
:1005E3004CBEBC205A0E1BCA6753C21C749DC5AEB9
:1005F300FB60065407601C2323120621EB5438606A
:100603000912060D12061C12019EECF8EDF9EEFA22
:10061300EFCB22EB12061C80F1543803241C900507
:10062300C3FE93FC0EEE93FD0EEE930ECE93FF22CC
:10063300E709F608DFFA8046E709F208DFFA803EA9
:1006430088828C83E709F0A3DFFA8032E309F60896
:10065300DFFA8078E309F208DFFA807088828C83FE
:10066300E309F0A3DFFA806489828A83E0A3F608B2
:10067300DFFA805889828A83E0A3F208DFFA804C8C
:1006830080D280FA80C680D4806980F28033801063
:1006930080A680EA809A80A880DA80E280CA8033CC
:1006A30089828A83ECFAE493A3C8C582C8CCC58344
:1006B300CCF0A3C8C582C8CCC583CCDFE9DEE78014
:1006C3000D89828A83E493A3F608DFF9ECFAA9F093
:1006D300EDFB2289828A83ECFAE0A3C8C582C8CCE9
:1006E300C583CCF0A3C8C582C8CCC583CCDFEADE02
:1006F300E880DB89828A83E493A3F208DFF980CC64
:1007030088F0EF60010E4E60C388F0ED2402B4045C
:100713000050B9F582EB2402B4040050AF23234503
:10072300822390068373C2D530F707B2D563F0FFF7
:1007330005F030E70CB2D5F4048463F0FF05F080D4
:10074300018430D502F40422BB010689828A83E046
:10075300225002E722BBFE02E32289828A83E493CA
:1007630022BB010CE58229F582E5833AF583E02279
:100773005006E92582F8E622BBFE06E92582F8E267
:1007830022E58229F582E5833AF583E49322BB01CE
:100793000689828A83F0225002F722BBFE01F322EC
:1007A300F8BB010DE58229F582E5833AF583E8F08C
:1007B300225006E92582C8F622BBFE05E92582C838
:1007C300F222EF8DF0A4A8F0CF8CF0A428CE8DF008
:1007D300A42EFE22BC000BBE0029EF8DF084FFADDA
:1007E300F022E4CCF875F008EF2FFFEE33FEEC3384
:1007F300FCEE9DEC984005FCEE9DFE0FD5F0E9E480
:10080300CEFD22EDF8F5F0EE8420D21CFEADF0759E
:10081300F008EF2FFFED33FD4007985006D5F0F2B7
:1008230022C398FD0FD5F0EA22C2D5EC30E709B216
:10083300D5E4C39DFDE49CFCEE30E715B2D5E4C3DB
:100843009FFFE49EFE1207D7C3E49DFDE49CFC805A
:10085300031207D730D507C3E49FFFE49EFE22C5EA
:10086300F0F8A3E028F0C5F0F8E5821582700215D0
:1008730083E038F022A3F8E0C5F025F0F0E5821517
:100883008270021583E0C838F0E822BB0110E582CC
:1008930029F582E5833AF583E0F5F0A3E0225009D8
:1008A300E92582F886F008E622BBFE0AE92582F8EC
:1008B300E2F5F008E222E5832AF583E993F5F0A354
:1008C300E99322E88FF0A4CC8BF0A42CFCE98EF002
:1008D300A42CFC8AF0EDA42CFCEA8EF0A4CDA8F0A5
:1008E3008BF0A42DCC3825F0FDE98FF0A42CCD3569
:1008F300F0FCEB8EF0A4FEA9F0EB8FF0A4CFC5F0D3
:100903002ECD39FEE43CFCEAA42DCE35F0FDE43CCB
:10091300FC2275F008758200EF2FFFEE33FECD3316
:10092300CDCC33CCC58233C5829BED9AEC99E5825D
:1009330098400CF582EE9BFEED9AFDEC99FC0FD5E9
:10094300F0D6E4CEFBE4CDFAE4CCF9A88222B800D9
:10095300C1B90059BA002DEC8BF084CFCECDFCE5A4
:10096300F0CBF97818EF2FFFEE33FEED33FDEC33C8
:10097300FCEB33FB10D703994004EB99FB0FD8E54D
:10098300E4F9FA227818EF2FFFEE33FEED33FDEC96
:1009930033FCC933C910D7059BE99A4007EC9BFC8C
:1009A300E99AF90FD8E0E4C9FAE4CCFB2275F01018
:1009B300EF2FFFEE33FEED33FDCC33CCC833C8103D
:1009C300D7079BEC9AE899400AED9BFDEC9AFCE86B
:1009D30099F80FD5F0DAE4CDFBE4CCFAE4C8F922B8
:1009E300C3E49FFFE49EFEE49DFDE49CFC22EB9F99
:1009F300F5F0EA9E42F0E99D42F0EC6480C8648021
:100A03009845F022EB9FF5F0EA9E42F0E99D42F013
:100A1300E89C45F022E8600FECC313FCED13FDEEF8
:100A230013FEEF13FFD8F122BB010789828A8302E9
:100A33000B405005E9F8020B34BBFE05E9F8020B45
:100A43004C89828A83020B587401FF3395E0FEFDC3
:100A5300FCA3A3A3E0CF2FF0E582158270021583D8
:100A6300E0CE3EF0E582158270021583E0CD3DF0C5
:100A7300E582158270021583E0CC3CF022ECF0A3F2
:100A8300EDF0A3EEF0A3EFF022A8828583F0D083EC
:100A9300D082120AA3120AA3120AA3120AA3E473AE
:100AA300E493A3C583C5F0C583C8C582C8F0A3C5B5
:100AB30083C5F0C583C8C582C822F5F0C582A4C525
:100AC30082C5F0C583A42583F58322F8E0FBA3A3A5
:100AD300E0F925F0F0E582158270021583E0FA381B
:100AE300F022EBF0A3EAF0A3E9F022BB010789822D
:100AF3008A83020B715005E9F8020B68BBFE05E916
:100B0300F8020B7A89828A83020B83D083D082F81E
:100B1300E4937012740193700DA3A393F87401937B
:100B2300F5828883E4737402936860EFA3A3A380C0
:100B3300DFE6FC08E6FD08E6FE08E6FF22E0FCA38C
:100B4300E0FDA3E0FEA3E0FF22E2FC08E2FD08E2F1
:100B5300FE08E2FF22E493FC740193FD740293FE0A
:100B6300740393FF22E6FB08E6FA08E6F922E0FBAA
:100B7300A3E0FAA3E0F922E2FB08E2FA08E2F92291
:100B8300E493FB740193FA740293F922900204EF45
:100B9300F0A3EDF0A3EBF0A3E0F8A3E0F9A3E0FAF0
:100BA300A3E0FB900243E0FCA3E0FDA3E0FEA3E08F
:100BB300FF120951E47B04FAF9F8120951C3E49FC7
:100BC300FFE49EAD07FC900204E0147003020C5B8B
:100BD300147003020C96147003020CE324036003E5
:100BE300020D3590020BE0FB640170144398508DA5
:100BF3008BECF58D438E40D28EE49001CAF0800FCA
:100C0300EBB4020B4398508DD7ECF5D6438E1553B6
:100C1300A23F900205E0FF7007A3E0B40102803019
:100C2300EFB4020C900206E0B4030543A240802017
:100C3300900205E0B4040AA3E0B4050543A2808052
:100C43000F900205E0B40608A3E0B4070343A2C073
:100C5300E49001CAF0D2AC2290020BE0B4020B4341
:100C63009A108DD7ECF5D6438E1453BAFE90020535
:100C7300E0FFB40807A3E0B40902800EEFB40A0A48
:100C8300900206E0B40B0343BA0143AF01E49001C1
:100C9300CBF02290020BE0FBB4020D43AC108DD7D6
:100CA300ECF5D6438E14800FEBB4030B43AC508D9D
:100CB300D5ECF5D443D10A53BAFD900205E0FFB455
:100CC3000C07A3E0B40D02800EEFB40E0A900206E7
:100CD300E0B40F0343BA0243AF08E49001CCF0221F
:100CE30090020BE0FBB4020D4384108DD7ECF5D6D4
:100CF300438E14800FEBB4040B4384508DD3ECF577
:100D0300D243D1A053BAFB900205E0FFB41007A36E
:100D1300E0B411028014EFB41210900206E0B41391
:100D230009E4F5CA75C90443BA0443AF10E490015A
:100D3300CDF022900204EFF0A3EDF0E490020BF06B
:100D4300FC7D0AAF03AE021207D7ED243090020AEE
:100D5300F07C007D0AAF03AE021207D77C007D0A48
:100D63001207D7ED2430900209F07C007D64AF03B5
:100D7300AE021207D77C007D0A1207D7ED2430900C
:100D83000208F07C037DE8AF03AE021207D77C00B4
:100D93007D0A1207D7ED2430900207F0AE02AF03AD
:100DA3007C277D101207D77C007D0A1207D7ED241C
:100DB30030900206F0E4FF74062FF582E43402F566
:100DC30083E0B4301274062FF582E43402F58374A1
:100DD30020F00FEFB404E0900204E0FFA3E0FD7BFA
:100DE300017A027906020FB5D2C7D2FCC2FE7F3266
:100DF3007E00120026D2FE7FAE1212B6E4FF12125C
:100E0300B67F101212B67F401212B67F811212B64D
:100E13007F7F1212B67FA11212B67FC81212B67F5D
:100E2300A61212B67FA81212B67F3F1212B67FD354
:100E33001212B6E4FF1212B67FD51212B67F8012D9
:100E430012B67FD91212B67FF11212B67FDA1212DE
:100E5300B67F121212B67FDB1212B67F401212B6A1
:100E63007F201212B67F021212B67F8D1212B67F46
:100E7300141212B67FA41212B67FA61212B67FAF57
:100E83001212B6E4FF121305E4FDFF0213BC1200B5
:100E93005E121034120DEB7BFF7A007946E4FDFFFE
:100EA300120FB512132CE4FD7F08121120E4FD7F0D
:100EB30009121120E4FD7F0A121120E4FD7F0B12B9
:100EC3001120120080E4FD7F0812127D900235EE9E
:100ED300F0FAA3EFF0FBE4FDFF120D36E4FD7F090A
:100EE30012127D900237EEF0FAA3EFF0FB7D01E4DE
:100EF300FF120D36E4FD7F0A12127D900239EEF0E7
:100F0300FAA3EFF0FB7D02E4FF120D36E4FD7F0B45
:100F130012127D90023BEEF0FAA3EFF0FB7D03E4A7
:100F2300FF120D36809F787FE4F6D8FD75810702A6
:100F33000F70020E91E493A3F8E493A34003F680A9
:100F430001F208DFF48029E493A3F85407240CC8C2
:100F5300C333C4540F4420C8834004F4568001466D
:100F6300F6DFE4800B010204081020408090006645
:100F7300E47E019360BCA3FF543F30E509541FFE98
:100F8300E493A360010ECF54C025E060A840B8E409
:100F930093A3FAE493A3F8E493A3C8C582C8CAC58C
:100FA30083CAF0A3C8C582C8CAC583CADFE9DEE71E
:100FB30080BE90020CEFF0A3EDF0A3EBF0A3EAF0F8
:100FC300A3E9F0E4A3F0FCA3F090020EE0FBA3E09E
:100FD300FAA3E0F9900212E0F58275830012076428
:100FE300604E24E0900211F090020CE0D3947E4016
:100FF30006E4F0A3E004F090020C1213B7E4FC90B3
:101003000211E075F006A424C0F582E5F03419F569
:1010130083E5822CF582E435831212DB0CECB406F3
:10102300DE90020CE02406F0900212E004F08099B6
:101033002243FF10900243120A8C00B71B0075BABB
:101043008090FE0374C0F090FE03E030E0F990FE60
:1010530001E4F090FE0004F0E4F5BA1210AEE4F5FA
:1010630094F593F592F591F596F595F5B2F5B1F5FD
:10107300B4F5B3F5CAF5C9F5CCF5CBF5E2F5E1F571
:10108300DEF58EF598F59AF5ACF584F5A2F5BAF58B
:10109300AFF589900207120A8C0001C20090020B7F
:1010A3007402F07B01E4FDFF020B8FE47B107A27CF
:1010B300F9F8900243E0FCA3E0FDA3E0FEA3E0FF08
:1010C300120951900247EEF0A3EFF07B407A427988
:1010D3000F7800900243E0FCA3E0FDA3E0FEA3E051
:1010E300FF120951EF24FEFFEE34FF900249F0A3F3
:1010F300EFF07F007E1B7DB77C00900243E0F8A3F6
:10110300E0F9A3E0FAA3E0FBD3120A07500E900222
:101113004AE004F07006900249E004F02243BC80E8
:1011230053BCF0EF42BCEF131313541FFEBE011860
:10113300EF5407FC7401A804088002C333D8FCFCF5
:10114300F45294EC42938019EE7016EF5407FE7438
:1011530001A806088002C333D8FCFEF45292EE4283
:1011630091ED540F42DE43DE2022C0E0C083C082F3
:10117300C0D075D000C007E59830E1085398FD90C2
:1011830001CAE4F0E59830E0205398FEAF99EFB43C
:101193007F1290024CE0FF04F0EFD39414400A75E1
:1011A300C760800590024CE4F0D007D0D0D082D045
:1011B30083D0E032E4900203F0D2B3C2B2C2B3D21E
:1011C300B2D2B3C2B2F0C2B3E4FD7F0412127D9077
:1011D3000203E025E02401F582E43400F583EEF018
:1011E300A3EFF0D2B3900203E004F0E0C394804095
:1011F300D59000007401F022C2D5E830E70FB2D5D4
:10120300E4C39BFBE49AFAE499F9E498F8EC30E739
:1012130017B2D5121231120951E4C39BFBE49AFAB7
:10122300E499F9E498F8800312095130D50DE4C329
:101233009FFFE49EFEE49DFDE49CFC22C0E0C0F021
:10124300C083C082C0D075D000C000C001C002C03E
:1012530003C004C005C006C00753EFFB1211B7D08B
:1012630007D006D005D004D003D002D001D000D0DF
:10127300D0D082D083D0F0D0E032A90553BCF0EFB8
:1012830042BC43BC40E5BC30E5FB53BCDFAFBDEF24
:10129300FEADBEEDFFE4F5BDF5BEAD01EFA805085B
:1012A3008005CEC313CE13D8F9FF2254F0C4540FD4
:1012B3004410FF7E08C2C7C2FFC2FCAD061EED602C
:1012C30014EF30E704D2FD8002C2FDD2FCC2FCEF72
:1012D30025E0FF80E6D2C722F583E493FF7E08C2B0
:1012E300C7D2FFC2FCAD061EED6014EF30E704D297
:1012F300FD8002C2FDD2FCC2FCEF25E0FF80E6D2F6
:10130300C722AC07E4FBEB24B0FF1212B6E4FF12D2
:1013130012B67F101212B6E4FAAF041212E00AEA10
:10132300B480F60BEBB408DE22E4FCEC24B0FF122D
:1013330012B67F011212B67F101212B6E4FBE4FF5D
:101343001212E00BEBB480F60CECB408DE22C0E022
:10135300C083C082E59A30E108539AFD9001CBE443
:10136300F0E59A30E003539AFED082D083D0E03286
:10137300C0E0C083C082E5AC30E10853ACFD90010E
:10138300CCE4F0E5AC30E00353ACFED082D083D0A4
:10139300E032C0E0C083C082E58430E1085384FDBD
:1013A3009001CDE4F0E58430E0035384FED082D095
:1013B30083D0E032E0FFA3E0FDAC07ED24B0FF12E1
:1013C30012B6EC1212AEEC540FFF0212B60000007C
:1013D300000000000000000000000000000000000A
:1013E3000808080808080800000808000000482446
:1013F30024120000000000000000000000000000B4
:101403004848487E2424247E24242400000000101D
:101413003C5252121C30505052523C1010000000EB
:10142300222515150D2A585454522200000000009D
:101433000C1212120A76252919916E000000060477
:101443000402000000000000000000000000402033
:1014530010100808080808081010204000000204B3
:1014630008081010101010100808040200000000F3
:101473000008086B1C1C6B0808000000000000003B
:101483000000101010FE10101000000000000000FB
:101493000000000000000000000604040200000039
:1014A30000000000007E00000000000000000000BB
:1014B30000000000000000000006060000000040DD
:1014C3002020201010080808040402020000000075
:1014D30018244242424242424224180000000000C3
:1014E300101C10101010101010107C0000000000D1
:1014F3003C4242424020100804427E0000000000AB
:101503003C4242402018204042423C000000000080
:1015130020303028242422FE2020F8000000000080
:101523007E0202021E22404042221C0000000000F4
:10153300182402023A4642424244380000000000A6
:101543007E42202010100808080808000000000050
:101553003C4242422418244242423C000000000024
:101563001C22424242625C404024180000000000FA
:101573000000001818000000001818000000000008
:101583000000000008000000000008080800000038
:10159300402010080402040810204000000000004E
:1015A3000000007E00007E0000000000000000003C
:1015B300020408102040201008040200000000006C
:1015C3003C42424620101010001818000000000092
:1015D3001C225A55555555553A423C00000000000F
:1015E3000808181414243C224242E70000000000BB
:1015F3001F2222221E22424242221F00000000001C
:101603007C4242010101010142221C000000000052
:101613001F2242424242424242221F000000000077
:101623003F4212121E12120242423F00000000000B
:101633003F4212121E1212020202070000000000B3
:101643003C2222010101712122221C000000000022
:10165300E7424242427E42424242E700000000002B
:101663003E0808080808080808083E0000000000B3
:101673007C10101010101010101010110F0000002B
:101683007722120A0E0A12122222770000000000AB
:10169300070202020202020202427F00000000006F
:1016A3007736363636362A2A2A2A6B00000000009F
:1016B300E346464A4A525252626247000000000023
:1016C3001C2241414141414141221C0000000000D4
:1016D3003F424242423E0202020207000000000073
:1016E3001C224141414141414D321C600000000038
:1016F3003F4242423E1212222242C7000000000033
:101703007C4242020418204042423E000000000096
:101713007F4908080808080808081C0000000000A2
:10172300E74242424242424242423C000000000041
:10173300E742422224241414180808000000000081
:101743006B2A2A2A2A2A36141414140000000000D3
:10175300E7422424181818242442E700000000005C
:10176300772222141408080808081C00000000004F
:101773007E2120101008040442423F000000780834
:101783000808080808080808080808780000000284
:1017930004040408080810102020204040001E10F4
:1017A30010101010101010101010101E000018242C
:1017B3000000000000000000000000000000000026
:1017C30000000000007E000000000000000006088A
:1017D3000000000000000000000000000000000006
:1017E300000000001C22302C22326C00000000009C
:1017F300000302021A26424242261A000000000099
:1018030000000000384402020244380000000000D7
:10181300006040407C4242424262DC000000000023
:10182300000000003C42427E02423C0000000000F7
:10183300003048083E08080808083E000000000081
:10184300000000007C22221C023C42423C000000BB
:10185300000302023A4642424242E700000000000F
:101863000C0C00000E08080808083E0000000000E9
:101873003030000038202020202020221E000000CD
:101883000003020272120A0E122277000000000007
:10189300080E08080808080808083E0000000000B1
:1018A300000000007F9292929292B7000000000025
:1018B300000000003B4642424242E70000000000B5
:1018C300000000003C42424242423C000000000053
:1018D300000000001B26424242261A0207000000B5
:1018E300000000005864424242645840E000000097
:1018F30000000000774C040404041F0000000000F3
:10190300000000007C42023C40423E000000000018
:10191300000008083E0808080848300000000000DE
:1019230000000000634242424262DC00000000000B
:1019330000000000772222141408080000000000B1
:1019430000000000DB91525A2A242400000000000A
:10195300000000006E241818182476000000000010
:1019630000000000E74224241818080806000000BD
:10197300000000007E22100808447E000000C02002
:101983002020202020102020202020C00010101014
:10199300101010101010101010101010100003046D
:1019A30004040404040804040404040300045A2083
:1019B3000000000000000000000000000000000024
:1019C3000000000000002F000000000700070000D7
:1019D300147F147F1400242A7F2A120062640813E0
:1019E3002300364955225000000503000000001C67
:1019F300224100000041221C000014083E0814008C
:101A030008083E0808000000A06000000808080855
:101A130008000060600000002010080402003E512E
:101A230049453E0000427F40000042615149460063
:101A33002141454B31001814127F100027454545BD
:101A430039003C4A49493000017109050300364910
:101A530049493600064949291E0000363600000070
:101A63000056360000000814224100001414141418
:101A730014000041221408000201510906003249F2
:101A830059513E007C1211127C007F4949493600AE
:101A93003E41414122007F4141221C007F49494987
:101AA30041007F09090901003E4149497A007F0845
:101AB30008087F0000417F4100002040413F0100B2
:101AC3007F08142241007F40404040007F020C0207
:101AD3007F007F0408107F003E4141413E007F09A3
:101AE300090906003E4151215E007F09192946007C
:101AF30046494949310001017F0101003F4040400F
:101B03003F001F2040201F003F4038403F00631428
:101B13000814630007087008070061514945430032
:101B2300007F41410000552A552A55000041417F5D
:101B33000000040201020400404040404000000154
:101B4300020400002054545478007F484444380071
:101B5300384444442000384444487F0038545454A3
:101B63001800087E0901020018A4A4A47C007F08C1
:101B73000404780000447D4000004080847D000020
:101B83007F102844000000417F4000007C041804BB
:101B930078007C0804047800384444443800FC246A
:101BA3002424180018242418FC007C0804040800CA
:101BB300485454542000043F444020003C404020FB
:101BC3007C001C2040201C003C4030403C0044284A
:101BD300102844001CA0A0A07C004464544C44146E
:101BE300141414141400000000000000000000008E
:101BF3000000000000000000F800000000000000EA
:101C0300333000000000100C06100C06000000002A
:101C1300000000000040C07840C0784000043F044A
:101C2300043F040400007088FC0830000000182002
:101C3300FF211E0000F008F000E018000000211C46
:101C4300031E211E0000F00888700000001E2123DF
:101C5300241927211010160E0000000000000000B8
:101C63000000000000000000E01804020000000073
:101C7300071820400000020418E000000000402084
:101C83001807000000404080F0804040000202013D
:101C93000F01020200000000F0000000000101013A
:101CA3001F01010100000000000000000080B0706F
:101CB300000000000000000000000000000001011F
:101CC30001010101010000000000000000003030AC
:101CD300000000000000000000806018040060188D
:101CE300060100000000E010080810E000000F10DB
:101CF3002020100F00001010F8000000000020202A
:101D03003F20200000007008080888700000302879
:101D13002422213000003008888848300000182031
:101D23002020110E000000C02010F800000007045E
:101D330024243F240000F80888880808000019219B
:101D43002020110E0000E0108888180000000F11F9
:101D53002020110E0000380808C8380800000000D1
:101D63003F000000000070880808887000001C22F3
:101D73002121221C0000E010080810E000000031BF
:101D83002222110F00000000C0C00000000000006C
:101D930030300000000000008000000000000080E0
:101DA30060000000000000804020100800000102D5
:101DB3000408102000404040404040400004040418
:101DC30004040404000008102040800000002010D8
:101DD3000804020100007048080808F00000000031
:101DE3003036010000C030C828E810E0000718278B
:101DF3002423140B000000C038E0000000203C2323
:101E0300020227382008F8888888700000203F20C5
:101E13002020110E00C030080808083800071820D9
:101E2300202010080008F808080810E000203F20D0
:101E33002020100F0008F88888E8081000203F20B1
:101E4300202320180008F88888E8081000203F2085
:101E53000003000000C030080808380000071820FD
:101E630020221E020008F808000008F808203F217D
:101E73000101213F20000808F80808000000202085
:101E83003F2020000000000808F8080800C08080F8
:101E9300807F00000008F888C028180800203F2031
:101EA300012638200008F8080000000000203F2029
:101EB300202020300008F8F800F8F80800203F0040
:101EC3003F003F200008F830C00008F808203F20FA
:101ED3000007183F00E01008080810E0000F10206A
:101EE3002020100F0008F808080808F000203F2100
:101EF3000101010000E01008080810E0000F182499
:101F03002438504F0008F8888888887000203F20C4
:101F130000030C30200070880808083800003820BF
:101F23002121221C00180808F808081800000020C6
:101F33003F2000000008F808000008F808001F20F0
:101F43002020201F000878880000C83808000007F8
:101F5300380E010000F80800F80008F800033C07F9
:101F630000073C0300081868808068180820302C9C
:101F730003032C30200838C800C8380800000020AC
:101F83003F2000000010080808C838080020382641
:101F93002120201800000000FE02020200000000C1
:101FA3007F40404000000C30C000000000000000F3
:101FB300010638C00000020202FE0000000040409B
:101FC300407F000000000004020202040000000041
:101FD300000000000000000000000000008080807E
:101FE3008080808080000202040000000000000066
:101FF30000000000000000808080800000001924A1
:102003002222223F2008F8008080000000003F11B8
:102013002020110E000000008080800000000E11BF
:102023002020201100000000808088F800000E119D
:102033002020103F200000808080800000001F22AD
:102043002222221300008080F08888881800202034
:102053003F202000000000808080808000006B947F
:10206300949493600008F8008080800000203F2152
:102073000000203F200080989800000000002020EE
:102083003F20200000000000809898000000C080DE
:1020930080807F000008F8000080808000203F24BB
:1020A300022D302000000808F80000000000202066
:1020B3003F202000008080808080808000203F209F
:1020C300003F20003F8080008080800000203F216F
:1020D3000000203F200000808080800000001F203F
:1020E3002020201F00808000808000000080FFA14E
:1020F3002020110E000000008080808000000E115F
:102103002020A0FF80808080008080800020203FEE
:1021130021200001000000808080808000003324A3
:102123002424241900008080E08080000000000047
:102133001F202000008080000000808000001F20FE
:102143002020103F20808080000080808000010ECE
:10215300300806010080800080008080800F300CF2
:10216300030C300F0000808000808080000020314D
:102173002E0E312000808080000080808080818E40
:10218300701806010000808080808080000021306C
:102193002C2221300000000000807C02020000009D
:1021A30000003F404000000000FF0000000000006E
:1021B30000FF0000000002027C800000000040409D
:1021C3003F000000000006010102020404000000B9
:0521D300000000000007
:00000001FF
